{
  "address": "0xDF4996d1B191a57F57A61830350D5A009cd1300E",
  "abi": [
    {
      "inputs": [
        {
          "internalType": "address",
          "name": "_pool",
          "type": "address"
        },
        {
          "internalType": "address",
          "name": "_WETH",
          "type": "address"
        }
      ],
      "stateMutability": "nonpayable",
      "type": "constructor"
    },
    {
      "inputs": [],
      "name": "BaseCondition__ConditionDoesNotExist",
      "type": "error"
    },
    {
      "inputs": [],
      "name": "BaseCondition__ConditionIsInUse",
      "type": "error"
    },
    {
      "inputs": [],
      "name": "InvalidComparison",
      "type": "error"
    },
    {
      "inputs": [],
      "name": "InvalidPositionType",
      "type": "error"
    },
    {
      "anonymous": false,
      "inputs": [
        {
          "indexed": false,
          "internalType": "uint32",
          "name": "id",
          "type": "uint32"
        },
        {
          "indexed": false,
          "internalType": "address",
          "name": "wallet",
          "type": "address"
        },
        {
          "components": [
            {
              "internalType": "address",
              "name": "asset",
              "type": "address"
            },
            {
              "internalType": "uint256",
              "name": "balance",
              "type": "uint256"
            },
            {
              "internalType": "enum IAaveV3PositionBalance.PositionType",
              "name": "positionType",
              "type": "uint8"
            },
            {
              "internalType": "enum IAaveV3PositionBalance.Comparison",
              "name": "comparison",
              "type": "uint8"
            },
            {
              "internalType": "bool",
              "name": "updateable",
              "type": "bool"
            }
          ],
          "indexed": false,
          "internalType": "struct IAaveV3PositionBalance.Condition",
          "name": "condition",
          "type": "tuple"
        }
      ],
      "name": "ConditionAdded",
      "type": "event"
    },
    {
      "anonymous": false,
      "inputs": [
        {
          "indexed": false,
          "internalType": "uint32",
          "name": "id",
          "type": "uint32"
        },
        {
          "indexed": false,
          "internalType": "address",
          "name": "wallet",
          "type": "address"
        }
      ],
      "name": "ConditionDeleted",
      "type": "event"
    },
    {
      "inputs": [],
      "name": "WETH",
      "outputs": [
        {
          "internalType": "address",
          "name": "",
          "type": "address"
        }
      ],
      "stateMutability": "view",
      "type": "function"
    },
    {
      "inputs": [
        {
          "internalType": "address",
          "name": "wallet",
          "type": "address"
        },
        {
          "internalType": "uint32",
          "name": "id",
          "type": "uint32"
        }
      ],
      "name": "activeCondition",
      "outputs": [
        {
          "internalType": "bool",
          "name": "",
          "type": "bool"
        }
      ],
      "stateMutability": "view",
      "type": "function"
    },
    {
      "inputs": [
        {
          "internalType": "uint32",
          "name": "id",
          "type": "uint32"
        },
        {
          "internalType": "uint32",
          "name": "action",
          "type": "uint32"
        }
      ],
      "name": "addAutomationToCondition",
      "outputs": [
        {
          "internalType": "bool",
          "name": "",
          "type": "bool"
        }
      ],
      "stateMutability": "nonpayable",
      "type": "function"
    },
    {
      "inputs": [
        {
          "internalType": "uint32",
          "name": "_id",
          "type": "uint32"
        },
        {
          "components": [
            {
              "internalType": "address",
              "name": "asset",
              "type": "address"
            },
            {
              "internalType": "uint256",
              "name": "balance",
              "type": "uint256"
            },
            {
              "internalType": "enum IAaveV3PositionBalance.PositionType",
              "name": "positionType",
              "type": "uint8"
            },
            {
              "internalType": "enum IAaveV3PositionBalance.Comparison",
              "name": "comparison",
              "type": "uint8"
            },
            {
              "internalType": "bool",
              "name": "updateable",
              "type": "bool"
            }
          ],
          "internalType": "struct IAaveV3PositionBalance.Condition",
          "name": "condition",
          "type": "tuple"
        }
      ],
      "name": "addCondition",
      "outputs": [],
      "stateMutability": "nonpayable",
      "type": "function"
    },
    {
      "inputs": [
        {
          "internalType": "uint32",
          "name": "id",
          "type": "uint32"
        },
        {
          "internalType": "uint32",
          "name": "strategy",
          "type": "uint32"
        }
      ],
      "name": "addStrategyToCondition",
      "outputs": [
        {
          "internalType": "bool",
          "name": "",
          "type": "bool"
        }
      ],
      "stateMutability": "nonpayable",
      "type": "function"
    },
    {
      "inputs": [
        {
          "internalType": "address",
          "name": "wallet",
          "type": "address"
        },
        {
          "internalType": "uint32",
          "name": "id",
          "type": "uint32"
        },
        {
          "internalType": "uint32",
          "name": "action",
          "type": "uint32"
        }
      ],
      "name": "automationValid",
      "outputs": [
        {
          "internalType": "bool",
          "name": "",
          "type": "bool"
        }
      ],
      "stateMutability": "view",
      "type": "function"
    },
    {
      "inputs": [
        {
          "internalType": "address",
          "name": "wallet",
          "type": "address"
        },
        {
          "internalType": "uint32",
          "name": "id",
          "type": "uint32"
        }
      ],
      "name": "automations",
      "outputs": [
        {
          "internalType": "uint32[]",
          "name": "",
          "type": "uint32[]"
        }
      ],
      "stateMutability": "view",
      "type": "function"
    },
    {
      "inputs": [
        {
          "internalType": "address",
          "name": "wallet",
          "type": "address"
        },
        {
          "internalType": "uint32",
          "name": "id",
          "type": "uint32"
        }
      ],
      "name": "checkCondition",
      "outputs": [
        {
          "internalType": "uint8",
          "name": "",
          "type": "uint8"
        }
      ],
      "stateMutability": "view",
      "type": "function"
    },
    {
      "inputs": [
        {
          "internalType": "address",
          "name": "_wallet",
          "type": "address"
        },
        {
          "internalType": "uint32",
          "name": "_id",
          "type": "uint32"
        }
      ],
      "name": "conditionActive",
      "outputs": [
        {
          "internalType": "bool",
          "name": "",
          "type": "bool"
        }
      ],
      "stateMutability": "view",
      "type": "function"
    },
    {
      "inputs": [
        {
          "internalType": "uint32",
          "name": "_id",
          "type": "uint32"
        }
      ],
      "name": "deleteCondition",
      "outputs": [],
      "stateMutability": "nonpayable",
      "type": "function"
    },
    {
      "inputs": [
        {
          "internalType": "address",
          "name": "wallet",
          "type": "address"
        },
        {
          "internalType": "uint32",
          "name": "id",
          "type": "uint32"
        }
      ],
      "name": "isUpdateable",
      "outputs": [
        {
          "internalType": "bool",
          "name": "",
          "type": "bool"
        }
      ],
      "stateMutability": "view",
      "type": "function"
    },
    {
      "inputs": [],
      "name": "pool",
      "outputs": [
        {
          "internalType": "address",
          "name": "",
          "type": "address"
        }
      ],
      "stateMutability": "view",
      "type": "function"
    },
    {
      "inputs": [
        {
          "internalType": "uint32",
          "name": "id",
          "type": "uint32"
        },
        {
          "internalType": "uint32",
          "name": "automation",
          "type": "uint32"
        }
      ],
      "name": "removeAutomationFromCondition",
      "outputs": [
        {
          "internalType": "bool",
          "name": "",
          "type": "bool"
        }
      ],
      "stateMutability": "nonpayable",
      "type": "function"
    },
    {
      "inputs": [
        {
          "internalType": "uint32",
          "name": "id",
          "type": "uint32"
        },
        {
          "internalType": "uint32",
          "name": "strategy",
          "type": "uint32"
        }
      ],
      "name": "removeStrategyFromCondition",
      "outputs": [
        {
          "internalType": "bool",
          "name": "",
          "type": "bool"
        }
      ],
      "stateMutability": "nonpayable",
      "type": "function"
    },
    {
      "inputs": [
        {
          "internalType": "address",
          "name": "wallet",
          "type": "address"
        },
        {
          "internalType": "uint32",
          "name": "id",
          "type": "uint32"
        }
      ],
      "name": "strategies",
      "outputs": [
        {
          "internalType": "uint32[]",
          "name": "",
          "type": "uint32[]"
        }
      ],
      "stateMutability": "view",
      "type": "function"
    },
    {
      "inputs": [
        {
          "internalType": "address",
          "name": "wallet",
          "type": "address"
        },
        {
          "internalType": "uint32",
          "name": "id",
          "type": "uint32"
        },
        {
          "internalType": "uint32",
          "name": "strategy",
          "type": "uint32"
        }
      ],
      "name": "strategyValid",
      "outputs": [
        {
          "internalType": "bool",
          "name": "",
          "type": "bool"
        }
      ],
      "stateMutability": "view",
      "type": "function"
    },
    {
      "inputs": [
        {
          "internalType": "uint32",
          "name": "_id",
          "type": "uint32"
        }
      ],
      "name": "updateCondition",
      "outputs": [
        {
          "internalType": "bool",
          "name": "",
          "type": "bool"
        }
      ],
      "stateMutability": "view",
      "type": "function"
    },
    {
      "inputs": [
        {
          "internalType": "address",
          "name": "wallet",
          "type": "address"
        },
        {
          "internalType": "uint32",
          "name": "id",
          "type": "uint32"
        }
      ],
      "name": "walletCondition",
      "outputs": [
        {
          "components": [
            {
              "internalType": "address",
              "name": "asset",
              "type": "address"
            },
            {
              "internalType": "uint256",
              "name": "balance",
              "type": "uint256"
            },
            {
              "internalType": "enum IAaveV3PositionBalance.PositionType",
              "name": "positionType",
              "type": "uint8"
            },
            {
              "internalType": "enum IAaveV3PositionBalance.Comparison",
              "name": "comparison",
              "type": "uint8"
            },
            {
              "internalType": "bool",
              "name": "updateable",
              "type": "bool"
            }
          ],
          "internalType": "struct IAaveV3PositionBalance.Condition",
          "name": "",
          "type": "tuple"
        }
      ],
      "stateMutability": "view",
      "type": "function"
    }
  ],
  "transactionHash": "0x6c6281b97dd5e06bbb489cc4de9eebe62e2c3e627d0ac07eebf21732e646d6f2",
  "args": [
    "0xBfC91D59fdAA134A4ED45f7B584cAf96D7792Eff",
    "0x1dF462e2712496373A347f8ad10802a5E95f053D"
  ],
  "numDeployments": 3,
  "solcInputHash": "469c054a6398d7669e89683d90e58de8",
  "bytecode": "0x60c0604052348015600f57600080fd5b50604051611957380380611957833981016040819052602c91605d565b6001600160a01b039182166080521660a052608b565b80516001600160a01b0381168114605857600080fd5b919050565b60008060408385031215606f57600080fd5b6076836042565b91506082602084016042565b90509250929050565b60805160a05161187d6100da600039600081816102da01528181610fbd015281816110ac015261118201526000818161018301528181610f8601528181611075015261114b015261187d6000f3fe608060405234801561001057600080fd5b50600436106101165760003560e01c80636f2b9aff116100a2578063cff8364011610071578063cff83640146102fc578063d39f2c961461030f578063e5012fb414610322578063eec93dd014610335578063fff5cf191461034857600080fd5b80636f2b9aff1461027d57806389a78a031461029d5780638a4914c2146102c2578063ad5c4648146102d557600080fd5b806316f0115b116100e957806316f0115b1461017e578063384c879d146101bd5780634fcb3176146101dd57806357182cae146101f0578063687c0e311461023a57600080fd5b8063023ef5a91461011b57806303d049bb146101435780631245f2981461015657806314b0af701461016b575b600080fd5b61012e610129366004611230565b61038b565b60405190151581526020015b60405180910390f35b61012e610151366004611263565b61042f565b610169610164366004611263565b61048c565b005b61012e610179366004611230565b610557565b6101a57f000000000000000000000000000000000000000000000000000000000000000081565b6040516001600160a01b03909116815260200161013a565b6101d06101cb366004611293565b6106f5565b60405161013a91906112b1565b6101696101eb3660046112fa565b61079c565b61012e6101fe366004611293565b6001600160a01b0391909116600090815260046020908152604080832063ffffffff949094168352929052206002015462010000900460ff1690565b61012e610248366004611339565b6001600160a01b0392909216600090815260036020908152604080832063ffffffff9586168452909152902054821691161490565b61029061028b366004611293565b6108ba565b60405161013a91906113b8565b6102b06102ab366004611293565b6109bb565b60405160ff909116815260200161013a565b61012e6102d0366004611230565b610c73565b6101a57f000000000000000000000000000000000000000000000000000000000000000081565b61012e61030a366004611293565b610d93565b61012e61031d366004611293565b610da6565b61012e610330366004611230565b610dd9565b6101d0610343366004611293565b610e78565b61012e610356366004611339565b6001600160a01b0392909216600090815260026020908152604080832063ffffffff9586168452909152902054821691161490565b33600090815260016020818152604080842063ffffffff878116808752918452918520805480860182558187529386206008850401805460079095166004026101000a808502199095169388169490940292909217909255908352546103f1919061140a565b33600090815260036020908152604080832063ffffffff87811685529252909120805463ffffffff1916929091169190911790555060015b92915050565b60008161043c3382610da6565b61045957604051630453eefd60e11b815260040160405180910390fd5b505033600090815260046020908152604080832063ffffffff949094168352929052206002015462010000900460ff1690565b806104973382610da6565b6104b457604051630453eefd60e11b815260040160405180910390fd5b6104bd82610ef5565b33600081815260046020908152604080832063ffffffff871680855290835281842080546001600160a01b031916815560018101859055600201805462ffffff1916905584845260058352818420818552835292819020805460ff191690558051928352908201929092527f9c33cb453d76063bb338c509094bd32900fe4a7e3ccbb52ef947618994a4a6c3910160405180910390a15050565b3360008181526020818152604080832063ffffffff8088168552908352818420948452600283528184208682168086529352908320548454939493911691908390839081106105a8576105a861142b565b6000918252602090912060088204015460079091166004026101000a900463ffffffff16146105dc57600092505050610429565b81546000906105ed9060019061140a565b90508163ffffffff1681146106aa5760008382815481106106105761061061142b565b6000918252602080832060088304015433845260028252604080852060079094166004026101000a90910463ffffffff90811680865293909252909220805463ffffffff1916928616928317905585549092508291869181106106755761067561142b565b90600052602060002090600891828204019190066004026101000a81548163ffffffff021916908363ffffffff160217905550505b828054806106ba576106ba611441565b600082815260209020600860001990920191820401805463ffffffff600460078516026101000a021916905590555060019250505092915050565b6001600160a01b038216600090815260016020908152604080832063ffffffff8516845282529182902080548351818402810184019094528084526060939283018282801561078f57602002820191906000526020600020906000905b82829054906101000a900463ffffffff1663ffffffff16815260200190600401906020826003010492830192600103820291508084116107525790505b5050505050905092915050565b8060026107af6060830160408401611464565b60028111156107c0576107c061137e565b11156107df576040516387d192c760e01b815260040160405180910390fd5b60056107f1608083016060840161148e565b60058111156108025761080261137e565b11156108215760405163d9e2f2ed60e01b815260040160405180910390fd5b33600090815260046020908152604080832063ffffffff871684529091529020829061084d82826114c6565b505033600081815260056020908152604080832063ffffffff8816845290915290819020805460ff19166001179055517f9cf9f87bd030824ff6b01ebc106d8d95ec128c1c1d5f9a267bad8ff36006614b916108ad918691908690611590565b60405180910390a1505050565b6108ec6040805160a0810182526000808252602082018190529091820190815260200160008152600060209091015290565b6001600160a01b03808416600090815260046020908152604080832063ffffffff87168452825291829020825160a08101845281549094168452600181015491840191909152600280820154919284019160ff16908111156109505761095061137e565b60028111156109615761096161137e565b81526020016002820160019054906101000a900460ff1660058111156109895761098961137e565b600581111561099a5761099a61137e565b81526002919091015462010000900460ff1615156020909101529392505050565b6001600160a01b03808316600090815260046020908152604080832063ffffffff861684528252808320815160a081018352815490951685526001810154928501929092526002808301549394859490939284019160ff90911690811115610a2557610a2561137e565b6002811115610a3657610a3661137e565b81526020016002820160019054906101000a900460ff166005811115610a5e57610a5e61137e565b6005811115610a6f57610a6f61137e565b81526002919091015462010000900460ff16151560209091015280516040820151919250600091610aa09190610f61565b6040516370a0823160e01b81526001600160a01b0387811660048301529192506000918316906370a0823190602401602060405180830381865afa158015610aec573d6000803e3d6000fd5b505050506040513d601f19601f82011682018060405250810190610b109190611628565b9050600183606001516005811115610b2a57610b2a61137e565b1480610b4b5750600383606001516005811115610b4957610b4961137e565b145b15610b68578260200151811115610b685760019350505050610429565b600083606001516005811115610b8057610b8061137e565b1480610ba15750600483606001516005811115610b9f57610b9f61137e565b145b15610bbe578260200151811015610bbe5760019350505050610429565b600283606001516005811115610bd657610bd661137e565b1480610bf75750600383606001516005811115610bf557610bf561137e565b145b80610c175750600483606001516005811115610c1557610c1561137e565b145b15610c335782602001518103610c335760019350505050610429565b600583606001516005811115610c4b57610c4b61137e565b03610c675782602001518114610c675760019350505050610429565b50600095945050505050565b33600081815260016020908152604080832063ffffffff808816855290835281842094845260038352818420868216808652935290832054845493949391169190839083908110610cc657610cc661142b565b6000918252602090912060088204015460079091166004026101000a900463ffffffff1614610cfa57600092505050610429565b8154600090610d0b9060019061140a565b90508163ffffffff1681146106aa576000838281548110610d2e57610d2e61142b565b6000918252602080832060088304015433845260038252604080852060079094166004026101000a90910463ffffffff90811680865293909252909220805463ffffffff1916928616928317905585549092508291869181106106755761067561142b565b6000610d9f8383610da6565b9392505050565b6001600160a01b038216600090815260056020908152604080832063ffffffff8516845290915290205460ff1692915050565b3360009081526020818152604080832063ffffffff8681168086529184529184208054600180820183558287529486206008820401805460079092166004026101000a808602199092169488169190910293909317909255835254610e3e919061140a565b33600090815260026020908152604080832063ffffffff96871684529091529020805463ffffffff19169190931617909155506001919050565b6001600160a01b03821660009081526020818152604080832063ffffffff8516845282529182902080548351818402810184019094528084526060939283018282801561078f576000918252602091829020805463ffffffff16845290820283019290916004910180841161075257509498975050505050505050565b33600090815260016020908152604080832063ffffffff85168452909152902054151580610f4057503360009081526020818152604080832063ffffffff8516845290915290205415155b15610f5e5760405163846e233f60e01b815260040160405180910390fd5b50565b60006002826002811115610f7757610f7761137e565b03611052576001600160a01b037f00000000000000000000000000000000000000000000000000000000000000008116906335ea6a7590851615610fbb5784610fdd565b7f00000000000000000000000000000000000000000000000000000000000000005b6040516001600160e01b031960e084901b1681526001600160a01b0390911660048201526024016101e060405180830381865afa158015611022573d6000803e3d6000fd5b505050506040513d601f19601f82011682018060405250810190611046919061171b565b61012001519050610429565b60008260028111156110665761106661137e565b03611141576001600160a01b037f00000000000000000000000000000000000000000000000000000000000000008116906335ea6a75908516156110aa57846110cc565b7f00000000000000000000000000000000000000000000000000000000000000005b6040516001600160e01b031960e084901b1681526001600160a01b0390911660048201526024016101e060405180830381865afa158015611111573d6000803e3d6000fd5b505050506040513d601f19601f82011682018060405250810190611135919061171b565b61010001519050610429565b6001600160a01b037f00000000000000000000000000000000000000000000000000000000000000008116906335ea6a759085161561118057846111a2565b7f00000000000000000000000000000000000000000000000000000000000000005b6040516001600160e01b031960e084901b1681526001600160a01b0390911660048201526024016101e060405180830381865afa1580156111e7573d6000803e3d6000fd5b505050506040513d601f19601f8201168201806040525081019061120b919061171b565b61014001519050610429565b803563ffffffff8116811461122b57600080fd5b919050565b6000806040838503121561124357600080fd5b61124c83611217565b915061125a60208401611217565b90509250929050565b60006020828403121561127557600080fd5b610d9f82611217565b6001600160a01b0381168114610f5e57600080fd5b600080604083850312156112a657600080fd5b823561124c8161127e565b602080825282518282018190526000918401906040840190835b818110156112ef57835163ffffffff168352602093840193909201916001016112cb565b509095945050505050565b60008082840360c081121561130e57600080fd5b61131784611217565b925060a0601f198201121561132b57600080fd5b506020830190509250929050565b60008060006060848603121561134e57600080fd5b83356113598161127e565b925061136760208501611217565b915061137560408501611217565b90509250925092565b634e487b7160e01b600052602160045260246000fd5b600381106113a4576113a461137e565b9052565b600681106113a4576113a461137e565b81516001600160a01b031681526020808301519082015260408083015160a08301916113e690840182611394565b5060608301516113f960608401826113a8565b506080928301511515919092015290565b8181038181111561042957634e487b7160e01b600052601160045260246000fd5b634e487b7160e01b600052603260045260246000fd5b634e487b7160e01b600052603160045260246000fd5b60038110610f5e57600080fd5b60006020828403121561147657600080fd5b8135610d9f81611457565b60068110610f5e57600080fd5b6000602082840312156114a057600080fd5b8135610d9f81611481565b8015158114610f5e57600080fd5b60008135610429816114ab565b81356114d18161127e565b81546001600160a01b0319166001600160a01b03919091161781556020820135600182015560028101604083013561150881611457565b600381106115185761151861137e565b60ff1982541660ff82168117835550506000606084013561153881611481565b8091506006811061154b5761154b61137e565b825461ff00191660089190911b61ff00161782555061158b61156f608085016114b9565b82805462ff0000191691151560101b62ff000016919091179055565b505050565b63ffffffff841681526001600160a01b038316602082015260e0810182356115b78161127e565b6001600160a01b0316604083810191909152602084013560608401528301356115df81611457565b6115ec6080840182611394565b5060608301356115fb81611481565b61160860a08401826113a8565b506080830135611617816114ab565b80151560c084015250949350505050565b60006020828403121561163a57600080fd5b5051919050565b6040516101e0810167ffffffffffffffff8111828210171561167357634e487b7160e01b600052604160045260246000fd5b60405290565b60006020828403121561168b57600080fd5b6040516020810167ffffffffffffffff811182821017156116bc57634e487b7160e01b600052604160045260246000fd5b6040529151825250919050565b80516fffffffffffffffffffffffffffffffff8116811461122b57600080fd5b805164ffffffffff8116811461122b57600080fd5b805161ffff8116811461122b57600080fd5b805161122b8161127e565b60006101e082840312801561172f57600080fd5b50611738611641565b6117428484611679565b8152611750602084016116c9565b6020820152611761604084016116c9565b6040820152611772606084016116c9565b6060820152611783608084016116c9565b608082015261179460a084016116c9565b60a08201526117a560c084016116e9565b60c08201526117b660e084016116fe565b60e08201526117c86101008401611710565b6101008201526117db6101208401611710565b6101208201526117ee6101408401611710565b6101408201526118016101608401611710565b61016082015261181461018084016116c9565b6101808201526118276101a084016116c9565b6101a082015261183a6101c084016116c9565b6101c0820152939250505056fea264697066735822122081e8384b73ea48d51897ec0c0d7899c590c4da9a0ab62bd94438100e242212e764736f6c634300081a0033",
  "devdoc": {
    "kind": "dev",
    "methods": {},
    "version": 1
  },
  "userdoc": {
    "kind": "user",
    "methods": {},
    "version": 1
  },
  "storageLayout": {
    "storage": [
      {
        "astId": 1296,
        "contract": "src/condition/aave-v3/AaveV3PositionBalance.sol:AaveV3PositionBalance",
        "label": "conditionStrategies",
        "offset": 0,
        "slot": "0",
        "type": "t_mapping(t_address,t_mapping(t_uint32,t_array(t_uint32)dyn_storage))"
      },
      {
        "astId": 1303,
        "contract": "src/condition/aave-v3/AaveV3PositionBalance.sol:AaveV3PositionBalance",
        "label": "conditionAutomations",
        "offset": 0,
        "slot": "1",
        "type": "t_mapping(t_address,t_mapping(t_uint32,t_array(t_uint32)dyn_storage))"
      },
      {
        "astId": 1309,
        "contract": "src/condition/aave-v3/AaveV3PositionBalance.sol:AaveV3PositionBalance",
        "label": "strategyConditionIndex",
        "offset": 0,
        "slot": "2",
        "type": "t_mapping(t_address,t_mapping(t_uint32,t_uint32))"
      },
      {
        "astId": 1315,
        "contract": "src/condition/aave-v3/AaveV3PositionBalance.sol:AaveV3PositionBalance",
        "label": "automationConditionIndex",
        "offset": 0,
        "slot": "3",
        "type": "t_mapping(t_address,t_mapping(t_uint32,t_uint32))"
      },
      {
        "astId": 1783,
        "contract": "src/condition/aave-v3/AaveV3PositionBalance.sol:AaveV3PositionBalance",
        "label": "conditions",
        "offset": 0,
        "slot": "4",
        "type": "t_mapping(t_address,t_mapping(t_uint32,t_struct(Condition)2219_storage))"
      },
      {
        "astId": 1789,
        "contract": "src/condition/aave-v3/AaveV3PositionBalance.sol:AaveV3PositionBalance",
        "label": "activeConditions",
        "offset": 0,
        "slot": "5",
        "type": "t_mapping(t_address,t_mapping(t_uint32,t_bool))"
      }
    ],
    "types": {
      "t_address": {
        "encoding": "inplace",
        "label": "address",
        "numberOfBytes": "20"
      },
      "t_array(t_uint32)dyn_storage": {
        "base": "t_uint32",
        "encoding": "dynamic_array",
        "label": "uint32[]",
        "numberOfBytes": "32"
      },
      "t_bool": {
        "encoding": "inplace",
        "label": "bool",
        "numberOfBytes": "1"
      },
      "t_enum(Comparison)2202": {
        "encoding": "inplace",
        "label": "enum IAaveV3PositionBalance.Comparison",
        "numberOfBytes": "1"
      },
      "t_enum(PositionType)2206": {
        "encoding": "inplace",
        "label": "enum IAaveV3PositionBalance.PositionType",
        "numberOfBytes": "1"
      },
      "t_mapping(t_address,t_mapping(t_uint32,t_array(t_uint32)dyn_storage))": {
        "encoding": "mapping",
        "key": "t_address",
        "label": "mapping(address => mapping(uint32 => uint32[]))",
        "numberOfBytes": "32",
        "value": "t_mapping(t_uint32,t_array(t_uint32)dyn_storage)"
      },
      "t_mapping(t_address,t_mapping(t_uint32,t_bool))": {
        "encoding": "mapping",
        "key": "t_address",
        "label": "mapping(address => mapping(uint32 => bool))",
        "numberOfBytes": "32",
        "value": "t_mapping(t_uint32,t_bool)"
      },
      "t_mapping(t_address,t_mapping(t_uint32,t_struct(Condition)2219_storage))": {
        "encoding": "mapping",
        "key": "t_address",
        "label": "mapping(address => mapping(uint32 => struct IAaveV3PositionBalance.Condition))",
        "numberOfBytes": "32",
        "value": "t_mapping(t_uint32,t_struct(Condition)2219_storage)"
      },
      "t_mapping(t_address,t_mapping(t_uint32,t_uint32))": {
        "encoding": "mapping",
        "key": "t_address",
        "label": "mapping(address => mapping(uint32 => uint32))",
        "numberOfBytes": "32",
        "value": "t_mapping(t_uint32,t_uint32)"
      },
      "t_mapping(t_uint32,t_array(t_uint32)dyn_storage)": {
        "encoding": "mapping",
        "key": "t_uint32",
        "label": "mapping(uint32 => uint32[])",
        "numberOfBytes": "32",
        "value": "t_array(t_uint32)dyn_storage"
      },
      "t_mapping(t_uint32,t_bool)": {
        "encoding": "mapping",
        "key": "t_uint32",
        "label": "mapping(uint32 => bool)",
        "numberOfBytes": "32",
        "value": "t_bool"
      },
      "t_mapping(t_uint32,t_struct(Condition)2219_storage)": {
        "encoding": "mapping",
        "key": "t_uint32",
        "label": "mapping(uint32 => struct IAaveV3PositionBalance.Condition)",
        "numberOfBytes": "32",
        "value": "t_struct(Condition)2219_storage"
      },
      "t_mapping(t_uint32,t_uint32)": {
        "encoding": "mapping",
        "key": "t_uint32",
        "label": "mapping(uint32 => uint32)",
        "numberOfBytes": "32",
        "value": "t_uint32"
      },
      "t_struct(Condition)2219_storage": {
        "encoding": "inplace",
        "label": "struct IAaveV3PositionBalance.Condition",
        "members": [
          {
            "astId": 2208,
            "contract": "src/condition/aave-v3/AaveV3PositionBalance.sol:AaveV3PositionBalance",
            "label": "asset",
            "offset": 0,
            "slot": "0",
            "type": "t_address"
          },
          {
            "astId": 2210,
            "contract": "src/condition/aave-v3/AaveV3PositionBalance.sol:AaveV3PositionBalance",
            "label": "balance",
            "offset": 0,
            "slot": "1",
            "type": "t_uint256"
          },
          {
            "astId": 2213,
            "contract": "src/condition/aave-v3/AaveV3PositionBalance.sol:AaveV3PositionBalance",
            "label": "positionType",
            "offset": 0,
            "slot": "2",
            "type": "t_enum(PositionType)2206"
          },
          {
            "astId": 2216,
            "contract": "src/condition/aave-v3/AaveV3PositionBalance.sol:AaveV3PositionBalance",
            "label": "comparison",
            "offset": 1,
            "slot": "2",
            "type": "t_enum(Comparison)2202"
          },
          {
            "astId": 2218,
            "contract": "src/condition/aave-v3/AaveV3PositionBalance.sol:AaveV3PositionBalance",
            "label": "updateable",
            "offset": 2,
            "slot": "2",
            "type": "t_bool"
          }
        ],
        "numberOfBytes": "96"
      },
      "t_uint256": {
        "encoding": "inplace",
        "label": "uint256",
        "numberOfBytes": "32"
      },
      "t_uint32": {
        "encoding": "inplace",
        "label": "uint32",
        "numberOfBytes": "4"
      }
    }
  }
}