{
  "address": "0x6ACb84dAE6ab305b001E7De89B1B5690B02b334f",
  "abi": [
    {
      "inputs": [
        {
          "internalType": "address",
          "name": "_aaveV3Pool",
          "type": "address"
        },
        {
          "internalType": "address",
          "name": "_WETH",
          "type": "address"
        },
        {
          "internalType": "address",
          "name": "_priceOracle",
          "type": "address"
        }
      ],
      "stateMutability": "nonpayable",
      "type": "constructor"
    },
    {
      "inputs": [],
      "name": "HealthFactorNotValid",
      "type": "error"
    },
    {
      "inputs": [],
      "name": "InvalidPercentage",
      "type": "error"
    },
    {
      "inputs": [],
      "name": "InvalidTokenGetterID",
      "type": "error"
    },
    {
      "inputs": [],
      "name": "ZeroAmountNotValid",
      "type": "error"
    },
    {
      "inputs": [],
      "name": "PERCENTAGE_FACTOR",
      "outputs": [
        {
          "internalType": "uint256",
          "name": "",
          "type": "uint256"
        }
      ],
      "stateMutability": "view",
      "type": "function"
    },
    {
      "inputs": [],
      "name": "WETH",
      "outputs": [
        {
          "internalType": "address",
          "name": "",
          "type": "address"
        }
      ],
      "stateMutability": "view",
      "type": "function"
    },
    {
      "inputs": [
        {
          "internalType": "address",
          "name": "wallet",
          "type": "address"
        },
        {
          "internalType": "address",
          "name": "asset",
          "type": "address"
        },
        {
          "internalType": "uint256",
          "name": "amount",
          "type": "uint256"
        },
        {
          "internalType": "uint256",
          "name": "interestRateMode",
          "type": "uint256"
        }
      ],
      "name": "borrow",
      "outputs": [
        {
          "components": [
            {
              "internalType": "address",
              "name": "target",
              "type": "address"
            },
            {
              "internalType": "uint256",
              "name": "value",
              "type": "uint256"
            },
            {
              "internalType": "bytes",
              "name": "data",
              "type": "bytes"
            }
          ],
          "internalType": "struct IAction.PluginExecution[]",
          "name": "",
          "type": "tuple[]"
        }
      ],
      "stateMutability": "view",
      "type": "function"
    },
    {
      "inputs": [
        {
          "internalType": "address",
          "name": "wallet",
          "type": "address"
        },
        {
          "internalType": "uint256",
          "name": "amount",
          "type": "uint256"
        },
        {
          "internalType": "uint256",
          "name": "interestRateMode",
          "type": "uint256"
        }
      ],
      "name": "borrowETH",
      "outputs": [
        {
          "components": [
            {
              "internalType": "address",
              "name": "target",
              "type": "address"
            },
            {
              "internalType": "uint256",
              "name": "value",
              "type": "uint256"
            },
            {
              "internalType": "bytes",
              "name": "data",
              "type": "bytes"
            }
          ],
          "internalType": "struct IAction.PluginExecution[]",
          "name": "",
          "type": "tuple[]"
        }
      ],
      "stateMutability": "view",
      "type": "function"
    },
    {
      "inputs": [
        {
          "internalType": "address",
          "name": "wallet",
          "type": "address"
        },
        {
          "internalType": "address",
          "name": "asset",
          "type": "address"
        },
        {
          "internalType": "uint256",
          "name": "percentage",
          "type": "uint256"
        },
        {
          "internalType": "uint256",
          "name": "interestRateMode",
          "type": "uint256"
        }
      ],
      "name": "borrowPercentageOfAvailable",
      "outputs": [
        {
          "components": [
            {
              "internalType": "address",
              "name": "target",
              "type": "address"
            },
            {
              "internalType": "uint256",
              "name": "value",
              "type": "uint256"
            },
            {
              "internalType": "bytes",
              "name": "data",
              "type": "bytes"
            }
          ],
          "internalType": "struct IAction.PluginExecution[]",
          "name": "",
          "type": "tuple[]"
        }
      ],
      "stateMutability": "view",
      "type": "function"
    },
    {
      "inputs": [
        {
          "internalType": "address",
          "name": "wallet",
          "type": "address"
        },
        {
          "internalType": "uint256",
          "name": "percentage",
          "type": "uint256"
        },
        {
          "internalType": "uint256",
          "name": "interestRateMode",
          "type": "uint256"
        }
      ],
      "name": "borrowPercentageOfAvailableETH",
      "outputs": [
        {
          "components": [
            {
              "internalType": "address",
              "name": "target",
              "type": "address"
            },
            {
              "internalType": "uint256",
              "name": "value",
              "type": "uint256"
            },
            {
              "internalType": "bytes",
              "name": "data",
              "type": "bytes"
            }
          ],
          "internalType": "struct IAction.PluginExecution[]",
          "name": "",
          "type": "tuple[]"
        }
      ],
      "stateMutability": "view",
      "type": "function"
    },
    {
      "inputs": [
        {
          "internalType": "address",
          "name": "wallet",
          "type": "address"
        },
        {
          "internalType": "address",
          "name": "asset",
          "type": "address"
        },
        {
          "internalType": "uint256",
          "name": "targetHealthFactor",
          "type": "uint256"
        },
        {
          "internalType": "uint256",
          "name": "interestRateMode",
          "type": "uint256"
        }
      ],
      "name": "changeDebtToHealthFactor",
      "outputs": [
        {
          "components": [
            {
              "internalType": "address",
              "name": "target",
              "type": "address"
            },
            {
              "internalType": "uint256",
              "name": "value",
              "type": "uint256"
            },
            {
              "internalType": "bytes",
              "name": "data",
              "type": "bytes"
            }
          ],
          "internalType": "struct IAction.PluginExecution[]",
          "name": "",
          "type": "tuple[]"
        }
      ],
      "stateMutability": "view",
      "type": "function"
    },
    {
      "inputs": [
        {
          "internalType": "address",
          "name": "wallet",
          "type": "address"
        },
        {
          "internalType": "uint256",
          "name": "targetHealthFactor",
          "type": "uint256"
        },
        {
          "internalType": "uint256",
          "name": "interestRateMode",
          "type": "uint256"
        }
      ],
      "name": "changeDebtToHealthFactorETH",
      "outputs": [
        {
          "components": [
            {
              "internalType": "address",
              "name": "target",
              "type": "address"
            },
            {
              "internalType": "uint256",
              "name": "value",
              "type": "uint256"
            },
            {
              "internalType": "bytes",
              "name": "data",
              "type": "bytes"
            }
          ],
          "internalType": "struct IAction.PluginExecution[]",
          "name": "",
          "type": "tuple[]"
        }
      ],
      "stateMutability": "view",
      "type": "function"
    },
    {
      "inputs": [
        {
          "internalType": "address",
          "name": "wallet",
          "type": "address"
        },
        {
          "internalType": "address",
          "name": "asset",
          "type": "address"
        },
        {
          "internalType": "uint256",
          "name": "targetHealthFactor",
          "type": "uint256"
        }
      ],
      "name": "changeSupplyToHealthFactor",
      "outputs": [
        {
          "components": [
            {
              "internalType": "address",
              "name": "target",
              "type": "address"
            },
            {
              "internalType": "uint256",
              "name": "value",
              "type": "uint256"
            },
            {
              "internalType": "bytes",
              "name": "data",
              "type": "bytes"
            }
          ],
          "internalType": "struct IAction.PluginExecution[]",
          "name": "",
          "type": "tuple[]"
        }
      ],
      "stateMutability": "view",
      "type": "function"
    },
    {
      "inputs": [
        {
          "internalType": "address",
          "name": "wallet",
          "type": "address"
        },
        {
          "internalType": "uint256",
          "name": "targetHealthFactor",
          "type": "uint256"
        }
      ],
      "name": "changeSupplyToHealthFactorETH",
      "outputs": [
        {
          "components": [
            {
              "internalType": "address",
              "name": "target",
              "type": "address"
            },
            {
              "internalType": "uint256",
              "name": "value",
              "type": "uint256"
            },
            {
              "internalType": "bytes",
              "name": "data",
              "type": "bytes"
            }
          ],
          "internalType": "struct IAction.PluginExecution[]",
          "name": "",
          "type": "tuple[]"
        }
      ],
      "stateMutability": "view",
      "type": "function"
    },
    {
      "inputs": [
        {
          "internalType": "bytes4",
          "name": "selector",
          "type": "bytes4"
        },
        {
          "internalType": "bytes",
          "name": "params",
          "type": "bytes"
        }
      ],
      "name": "getTokenForSelector",
      "outputs": [
        {
          "internalType": "address",
          "name": "",
          "type": "address"
        }
      ],
      "stateMutability": "view",
      "type": "function"
    },
    {
      "inputs": [],
      "name": "oracle",
      "outputs": [
        {
          "internalType": "contract IAaveOracle",
          "name": "",
          "type": "address"
        }
      ],
      "stateMutability": "view",
      "type": "function"
    },
    {
      "inputs": [],
      "name": "pool",
      "outputs": [
        {
          "internalType": "address",
          "name": "",
          "type": "address"
        }
      ],
      "stateMutability": "view",
      "type": "function"
    },
    {
      "inputs": [
        {
          "internalType": "address",
          "name": "wallet",
          "type": "address"
        },
        {
          "internalType": "address",
          "name": "asset",
          "type": "address"
        },
        {
          "internalType": "uint256",
          "name": "amount",
          "type": "uint256"
        },
        {
          "internalType": "uint256",
          "name": "interestRateMode",
          "type": "uint256"
        }
      ],
      "name": "repay",
      "outputs": [
        {
          "components": [
            {
              "internalType": "address",
              "name": "target",
              "type": "address"
            },
            {
              "internalType": "uint256",
              "name": "value",
              "type": "uint256"
            },
            {
              "internalType": "bytes",
              "name": "data",
              "type": "bytes"
            }
          ],
          "internalType": "struct IAction.PluginExecution[]",
          "name": "",
          "type": "tuple[]"
        }
      ],
      "stateMutability": "view",
      "type": "function"
    },
    {
      "inputs": [
        {
          "internalType": "address",
          "name": "wallet",
          "type": "address"
        },
        {
          "internalType": "uint256",
          "name": "amount",
          "type": "uint256"
        },
        {
          "internalType": "uint256",
          "name": "interestRateMode",
          "type": "uint256"
        }
      ],
      "name": "repayETH",
      "outputs": [
        {
          "components": [
            {
              "internalType": "address",
              "name": "target",
              "type": "address"
            },
            {
              "internalType": "uint256",
              "name": "value",
              "type": "uint256"
            },
            {
              "internalType": "bytes",
              "name": "data",
              "type": "bytes"
            }
          ],
          "internalType": "struct IAction.PluginExecution[]",
          "name": "",
          "type": "tuple[]"
        }
      ],
      "stateMutability": "view",
      "type": "function"
    },
    {
      "inputs": [
        {
          "internalType": "address",
          "name": "wallet",
          "type": "address"
        },
        {
          "internalType": "address",
          "name": "asset",
          "type": "address"
        },
        {
          "internalType": "uint256",
          "name": "percentage",
          "type": "uint256"
        },
        {
          "internalType": "uint256",
          "name": "interestRateMode",
          "type": "uint256"
        }
      ],
      "name": "repayPercentageOfDebt",
      "outputs": [
        {
          "components": [
            {
              "internalType": "address",
              "name": "target",
              "type": "address"
            },
            {
              "internalType": "uint256",
              "name": "value",
              "type": "uint256"
            },
            {
              "internalType": "bytes",
              "name": "data",
              "type": "bytes"
            }
          ],
          "internalType": "struct IAction.PluginExecution[]",
          "name": "",
          "type": "tuple[]"
        }
      ],
      "stateMutability": "view",
      "type": "function"
    },
    {
      "inputs": [
        {
          "internalType": "address",
          "name": "wallet",
          "type": "address"
        },
        {
          "internalType": "uint256",
          "name": "percentage",
          "type": "uint256"
        },
        {
          "internalType": "uint256",
          "name": "interestRateMode",
          "type": "uint256"
        }
      ],
      "name": "repayPercentageOfDebtETH",
      "outputs": [
        {
          "components": [
            {
              "internalType": "address",
              "name": "target",
              "type": "address"
            },
            {
              "internalType": "uint256",
              "name": "value",
              "type": "uint256"
            },
            {
              "internalType": "bytes",
              "name": "data",
              "type": "bytes"
            }
          ],
          "internalType": "struct IAction.PluginExecution[]",
          "name": "",
          "type": "tuple[]"
        }
      ],
      "stateMutability": "view",
      "type": "function"
    },
    {
      "inputs": [
        {
          "internalType": "address",
          "name": "wallet",
          "type": "address"
        },
        {
          "internalType": "address",
          "name": "asset",
          "type": "address"
        },
        {
          "internalType": "uint256",
          "name": "amount",
          "type": "uint256"
        }
      ],
      "name": "supply",
      "outputs": [
        {
          "components": [
            {
              "internalType": "address",
              "name": "target",
              "type": "address"
            },
            {
              "internalType": "uint256",
              "name": "value",
              "type": "uint256"
            },
            {
              "internalType": "bytes",
              "name": "data",
              "type": "bytes"
            }
          ],
          "internalType": "struct IAction.PluginExecution[]",
          "name": "",
          "type": "tuple[]"
        }
      ],
      "stateMutability": "view",
      "type": "function"
    },
    {
      "inputs": [
        {
          "internalType": "address",
          "name": "wallet",
          "type": "address"
        },
        {
          "internalType": "uint256",
          "name": "amount",
          "type": "uint256"
        }
      ],
      "name": "supplyETH",
      "outputs": [
        {
          "components": [
            {
              "internalType": "address",
              "name": "target",
              "type": "address"
            },
            {
              "internalType": "uint256",
              "name": "value",
              "type": "uint256"
            },
            {
              "internalType": "bytes",
              "name": "data",
              "type": "bytes"
            }
          ],
          "internalType": "struct IAction.PluginExecution[]",
          "name": "",
          "type": "tuple[]"
        }
      ],
      "stateMutability": "view",
      "type": "function"
    },
    {
      "inputs": [
        {
          "internalType": "address",
          "name": "wallet",
          "type": "address"
        },
        {
          "internalType": "address",
          "name": "asset",
          "type": "address"
        },
        {
          "internalType": "uint256",
          "name": "percentage",
          "type": "uint256"
        }
      ],
      "name": "supplyPercentageOfBalance",
      "outputs": [
        {
          "components": [
            {
              "internalType": "address",
              "name": "target",
              "type": "address"
            },
            {
              "internalType": "uint256",
              "name": "value",
              "type": "uint256"
            },
            {
              "internalType": "bytes",
              "name": "data",
              "type": "bytes"
            }
          ],
          "internalType": "struct IAction.PluginExecution[]",
          "name": "",
          "type": "tuple[]"
        }
      ],
      "stateMutability": "view",
      "type": "function"
    },
    {
      "inputs": [
        {
          "internalType": "address",
          "name": "wallet",
          "type": "address"
        },
        {
          "internalType": "uint256",
          "name": "percentage",
          "type": "uint256"
        }
      ],
      "name": "supplyPercentageOfBalanceETH",
      "outputs": [
        {
          "components": [
            {
              "internalType": "address",
              "name": "target",
              "type": "address"
            },
            {
              "internalType": "uint256",
              "name": "value",
              "type": "uint256"
            },
            {
              "internalType": "bytes",
              "name": "data",
              "type": "bytes"
            }
          ],
          "internalType": "struct IAction.PluginExecution[]",
          "name": "",
          "type": "tuple[]"
        }
      ],
      "stateMutability": "view",
      "type": "function"
    },
    {
      "inputs": [
        {
          "internalType": "bytes4",
          "name": "",
          "type": "bytes4"
        }
      ],
      "name": "tokenGetterIDs",
      "outputs": [
        {
          "internalType": "uint8",
          "name": "",
          "type": "uint8"
        }
      ],
      "stateMutability": "view",
      "type": "function"
    },
    {
      "inputs": [
        {
          "internalType": "address",
          "name": "wallet",
          "type": "address"
        },
        {
          "internalType": "address",
          "name": "asset",
          "type": "address"
        },
        {
          "internalType": "uint256",
          "name": "amount",
          "type": "uint256"
        }
      ],
      "name": "withdraw",
      "outputs": [
        {
          "components": [
            {
              "internalType": "address",
              "name": "target",
              "type": "address"
            },
            {
              "internalType": "uint256",
              "name": "value",
              "type": "uint256"
            },
            {
              "internalType": "bytes",
              "name": "data",
              "type": "bytes"
            }
          ],
          "internalType": "struct IAction.PluginExecution[]",
          "name": "",
          "type": "tuple[]"
        }
      ],
      "stateMutability": "view",
      "type": "function"
    },
    {
      "inputs": [
        {
          "internalType": "address",
          "name": "wallet",
          "type": "address"
        },
        {
          "internalType": "uint256",
          "name": "amount",
          "type": "uint256"
        }
      ],
      "name": "withdrawETH",
      "outputs": [
        {
          "components": [
            {
              "internalType": "address",
              "name": "target",
              "type": "address"
            },
            {
              "internalType": "uint256",
              "name": "value",
              "type": "uint256"
            },
            {
              "internalType": "bytes",
              "name": "data",
              "type": "bytes"
            }
          ],
          "internalType": "struct IAction.PluginExecution[]",
          "name": "",
          "type": "tuple[]"
        }
      ],
      "stateMutability": "view",
      "type": "function"
    }
  ],
  "transactionHash": "0x4566229afac331ca54aac6f0dab7ce753e54278bcedb34c2916eae5e34a5bb92",
  "args": [
    "0xBfC91D59fdAA134A4ED45f7B584cAf96D7792Eff",
    "0x1dF462e2712496373A347f8ad10802a5E95f053D",
    "0xEf95A6B9e88Bd509Fd67BA741cf2b263DaC65c00"
  ],
  "numDeployments": 3,
  "solcInputHash": "d7120f61adec0592537307530463a52d",
  "bytecode": "0x60e060405234801561001057600080fd5b50604051612e7c380380612e7c83398101604081905261002f91610370565b6001600160a01b0392831660805290821660a0521660c052600060208190527f07db34c1fd05f9d9187921f8f057420bb79f0b230fd08bf0c4d430753d180cc68054600160ff1991821681179092557fd478db7aa2849b0ece7fc74f9ee624ae708dbf122a7c57593fe1313b230914e280548216831790557f620a92a28ae78ce8b800ad793b764db6f0448948078f8cd3d7d2c1e322840ce480548216831790557f93a80a3095f0e987eccc262cca2b95be8b2b32782e8815c8f9a20f61b4322f4980548216831790557f8773539c4eb3cc8db4f80ab3a87b218f19c1348e739fa85ca67d1d920c4991aa80548216831790557facfc9969eee7390e0bd6dd87d4eba64182e81f9f8ac45a3df15fea0d9ff65b9580548216831790557f3b6b4d41c2a628f599b13ab8abfa6bf4528c5012f1e1e14c2e9020f6c1fef16e80548216831790557f4a9552237c94df496f63e97aece21c062a9f4c4baaa7a73c8229dbbf39e3cb8280548216831790557f2ee2d95b5f8945c49bf263313b4e8c44aea0d6d414febcd48531c6a151c09deb805482169092179091557f48b87e637b5c727f2a3e4cc31d56909bd86b76045e1f547361f026e650044d358054600290831681179091557fbb1a113f269177581ab2acb315267a5025addf042ef6699c2b20b819e7b8119980548316821790557f9ddee275b761f7835736451cc77550ac42bf93d563dd51258c55c29e59db228680548316821790557f43eb5a693a06350caa7e6d84ced1ab9b3904d21190208240e12c22991a97c1cd8054831690911790557f9667fd401f62d29357e095aba0a65ade01749e2b86052208a387023a39fece498054600390831681179091557fbbcdc05896c709ec1d1176ca3a1da22c4ff4e2c05117d1308be246c3558520eb80548316821790557fa6eb3ea879a1aec1fa857eb3f8822c5eab9cf3dce8818416f0661f19b46e5c0780548316821790557f1e79192a8e6a66135581d6786f887c0de5e3ac970527b94f32ef83edd2c020ff8054831682179055634b6a4acf60e11b9092527f0fc9473281da938d34fc5a85d9479b33b2b12c0a3da3e24d40c4c406d404332b805490911690911790556103b3565b80516001600160a01b038116811461036b57600080fd5b919050565b60008060006060848603121561038557600080fd5b61038e84610354565b925061039c60208501610354565b91506103aa60408501610354565b90509250925092565b60805160a05160c0516129dd61049f60003960008181610262015281816117580152611eba0152600081816102c201528181610536015281816105e2015281816108b4015281816108fd01528181610949015281816109c201528181610b3701528181610c8601528181610ccf0152818161129b015281816112d10152818161156b0152818161166401528181611ab70152611d2801526000818161019e015281816116c5015281816118830152818161197401528181611a2001528181611b5c01528181611c0b01528181611d8e01528181611ff401528181612091015261212901526129dd6000f3fe608060405234801561001057600080fd5b50600436106101585760003560e01c806389cbe656116100c3578063d963b5b11161007c578063d963b5b11461033f578063d9caed1214610352578063e42fb6ca14610365578063ee01e5e714610378578063fbf377391461038f578063fc1c1e11146103a257600080fd5b806389cbe6561461029757806396d4959e146102aa578063ad5c4648146102bd578063b1d61368146102e4578063c1a8638614610319578063c7b94b1e1461032c57600080fd5b80634af8c8ce116101155780634af8c8ce146102115780635581161b146102245780635770aafe146102375780637d9cec4d1461024a5780637dc0d1d01461025d578063865eac3d1461028457600080fd5b80630bd834341461015d5780630c0a769b1461018657806316f0115b146101995780632b933c62146101d85780634782f779146101eb57806349002749146101fe575b600080fd5b61017061016b366004612267565b6103b5565b60405161017d91906122ad565b60405180910390f35b610170610194366004612374565b610424565b6101c07f000000000000000000000000000000000000000000000000000000000000000081565b6040516001600160a01b03909116815260200161017d565b6101706101e63660046123b5565b6104d7565b6101706101f93660046123ea565b610583565b61017061020c366004612267565b610654565b61017061021f366004612374565b610709565b6101c06102323660046124a4565b610778565b6101706102453660046123ea565b61082f565b6101706102583660046123ea565b610935565b6101c07f000000000000000000000000000000000000000000000000000000000000000081565b6101706102923660046123b5565b610ae8565b6101706102a53660046123b5565b610c01565b6101706102b8366004612267565b610d08565b6101c07f000000000000000000000000000000000000000000000000000000000000000081565b6103076102f236600461254f565b60006020819052908152604090205460ff1681565b60405160ff909116815260200161017d565b610170610327366004612267565b610fb5565b61017061033a366004612374565b6110b0565b61017061034d3660046123b5565b611287565b610170610360366004612374565b6114a5565b6101706103733660046123b5565b61151b565b61038161271081565b60405190815260200161017d565b61017061039d366004612267565b61159d565b6101706103b03660046123ea565b611614565b606082806000036103d957604051631a30ee4d60e11b815260040160405180910390fd5b836127108111156103fd57604051631f3b85d360e01b815260040160405180910390fd5b600061040a8888886116a1565b90506104188888838861159d565b98975050505050505050565b6060818060000361044857604051631a30ee4d60e11b815260040160405180910390fd5b60408051600280825260608201909252600091816020015b610468612228565b815260200190600190039081610460579050509050610487858561186e565b8160008151811061049a5761049a61256a565b60200260200101819052506104b0868686611907565b816001815181106104c3576104c361256a565b602090810291909101015295945050505050565b606082806000036104fb57604051631a30ee4d60e11b815260040160405180910390fd5b60408051600280825260608201909252600091816020015b61051b612228565b81526020019060019003908161051357905050905061055c867f000000000000000000000000000000000000000000000000000000000000000087876119a5565b8160008151811061056f5761056f61256a565b60200260200101819052506104b085611a5d565b606081806000036105a757604051631a30ee4d60e11b815260040160405180910390fd5b60408051600280825260608201909252600091816020015b6105c7612228565b8152602001906001900390816105bf579050509050610607857f000000000000000000000000000000000000000000000000000000000000000086611af0565b8160008151811061061a5761061a61256a565b602002602001018190525061062e84611a5d565b816001815181106106415761064161256a565b6020908102919091010152949350505050565b6060828060000361067857604051631a30ee4d60e11b815260040160405180910390fd5b60408051600280825260608201909252600091816020015b610698612228565b8152602001906001900390816106905790505090506106b7868661186e565b816000815181106106ca576106ca61256a565b60200260200101819052506106e187878787611b98565b816001815181106106f4576106f461256a565b60209081029190910101529695505050505050565b6060818060000361072d57604051631a30ee4d60e11b815260040160405180910390fd5b8261271081111561075157604051631f3b85d360e01b815260040160405180910390fd5b60006107608787876000611c48565b905061076d878783610424565b979650505050505050565b6001600160e01b0319821660009081526020819052604081205460ff168015806107a5575060038160ff16115b156107c35760405163ae563a1f60e01b815260040160405180910390fd5b8060ff166001036107d8576000915050610829565b8060ff16600203610805576000838060200190518101906107f99190612580565b50935061082992505050565b60008380602001905181019061081b91906125c4565b509094506108299350505050565b92915050565b6060818060000361085357604051631a30ee4d60e11b815260040160405180910390fd5b60408051600380825260808201909252600091816020015b610873612228565b81526020019060019003908161086b57905050905061089184611ce4565b816000815181106108a4576108a461256a565b60200260200101819052506108d97f00000000000000000000000000000000000000000000000000000000000000008561186e565b816001815181106108ec576108ec61256a565b6020026020010181905250610922857f000000000000000000000000000000000000000000000000000000000000000086611907565b816002815181106106415761064161256a565b606061094082611d58565b60008061096e857f000000000000000000000000000000000000000000000000000000000000000086611d84565b915091508015610a7957816000036109bb5760408051600080825260208201909252906109b1565b61099e612228565b8152602001906001900390816109965790505b5092505050610829565b60006109e67f0000000000000000000000000000000000000000000000000000000000000000611fd2565b6040516370a0823160e01b81526001600160a01b0388811660048301529192506000918316906370a0823190602401602060405180830381865afa158015610a32573d6000803e3d6000fd5b505050506040513d601f19601f82011682018060405250810190610a56919061260c565b905080841115610a64578093505b610a6e8785610583565b945050505050610829565b6001600160a01b0385163180831115610a90578092505b82600003610ad4576040805160008082526020820190925290610ac9565b610ab6612228565b815260200190600190039081610aae5790505b509350505050610829565b610ade868461082f565b9350505050610829565b60608280600003610b0c57604051631a30ee4d60e11b815260040160405180910390fd5b83612710811115610b3057604051631f3b85d360e01b815260040160405180910390fd5b6000610b5c7f00000000000000000000000000000000000000000000000000000000000000008661206d565b6040516370a0823160e01b81526001600160a01b0389811660048301529192506000918316906370a0823190602401602060405180830381865afa158015610ba8573d6000803e3d6000fd5b505050506040513d601f19601f82011682018060405250810190610bcc919061260c565b90506000612710610bdd898461263b565b610be79190612652565b9050610bf4898289610c01565b9998505050505050505050565b60608280600003610c2557604051631a30ee4d60e11b815260040160405180910390fd5b60408051600380825260808201909252600091816020015b610c45612228565b815260200190600190039081610c3d579050509050610c6385611ce4565b81600081518110610c7657610c7661256a565b6020026020010181905250610cab7f00000000000000000000000000000000000000000000000000000000000000008661186e565b81600181518110610cbe57610cbe61256a565b6020026020010181905250610cf5867f00000000000000000000000000000000000000000000000000000000000000008787611b98565b816002815181106104c3576104c361256a565b6060610d1383611d58565b600080610d2187878761211f565b915091508015610f59576000610d37878661206d565b6040516370a0823160e01b81526001600160a01b038a811660048301529192506000918316906370a0823190602401602060405180830381865afa158015610d83573d6000803e3d6000fd5b505050506040513d601f19601f82011682018060405250810190610da7919061260c565b6040516370a0823160e01b81526001600160a01b038b811660048301528a16906370a0823190602401602060405180830381865afa158015610ded573d6000803e3d6000fd5b505050506040513d601f19601f82011682018060405250810190610e11919061260c565b11610e85576040516370a0823160e01b81526001600160a01b038a811660048301528316906370a0823190602401602060405180830381865afa158015610e5c573d6000803e3d6000fd5b505050506040513d601f19601f82011682018060405250810190610e80919061260c565b610eef565b6040516370a0823160e01b81526001600160a01b038a811660048301528916906370a0823190602401602060405180830381865afa158015610ecb573d6000803e3d6000fd5b505050506040513d601f19601f82011682018060405250810190610eef919061260c565b905080841115610efd578093505b83600003610f42576040805160008082526020820190925290610f36565b610f23612228565b815260200190600190039081610f1b5790505b50945050505050610fad565b610f4e89898689610654565b945050505050610fad565b81600003610f9c576040805160008082526020820190925290610f92565b610f7f612228565b815260200190600190039081610f775790505b5092505050610fad565b610fa88787848761159d565b925050505b949350505050565b60608280600003610fd957604051631a30ee4d60e11b815260040160405180910390fd5b83612710811115610ffd57604051631f3b85d360e01b815260040160405180910390fd5b6000611009878661206d565b6040516370a0823160e01b81526001600160a01b038a811660048301529192506000918316906370a0823190602401602060405180830381865afa158015611055573d6000803e3d6000fd5b505050506040513d601f19601f82011682018060405250810190611079919061260c565b9050600061271061108a898461263b565b6110949190612652565b90506110a28a8a838a610654565b9a9950505050505050505050565b60606110bb82611d58565b6000806110c9868686611d84565b9150915080156111b5578160000361111657604080516000808252602082019092529061110c565b6110f9612228565b8152602001906001900390816110f15790505b5092505050611280565b600061112186611fd2565b6040516370a0823160e01b81526001600160a01b0389811660048301529192506000918316906370a0823190602401602060405180830381865afa15801561116d573d6000803e3d6000fd5b505050506040513d601f19601f82011682018060405250810190611191919061260c565b90508084111561119f578093505b6111aa8888866114a5565b945050505050611280565b6040516370a0823160e01b81526001600160a01b038781166004830152600091908716906370a0823190602401602060405180830381865afa1580156111ff573d6000803e3d6000fd5b505050506040513d601f19601f82011682018060405250810190611223919061260c565b905080831115611231578092505b8260000361127557604080516000808252602082019092529061126a565b611257612228565b81526020019060019003908161124f5790505b509350505050611280565b61076d878785610424565b9392505050565b606061129283611d58565b6000806112c0867f00000000000000000000000000000000000000000000000000000000000000008761211f565b91509150801561144f5760006112f67f00000000000000000000000000000000000000000000000000000000000000008661206d565b6040516370a0823160e01b81526001600160a01b0389811660048301529192506000918316906370a0823190602401602060405180830381865afa158015611342573d6000803e3d6000fd5b505050506040513d601f19601f82011682018060405250810190611366919061260c565b886001600160a01b031631116113e5576040516370a0823160e01b81526001600160a01b0389811660048301528316906370a0823190602401602060405180830381865afa1580156113bc573d6000803e3d6000fd5b505050506040513d601f19601f820116820180604052508101906113e0919061260c565b6113f1565b876001600160a01b0316315b9050808411156113ff578093505b83600003611444576040805160008082526020820190925290611438565b611425612228565b81526020019060019003908161141d5790505b50945050505050611280565b6111aa888588610c01565b8160000361149157604080516000808252602082019092529061110c565b611475612228565b81526020019060019003908161146d5790505092505050611280565b61149c8683866104d7565b92505050611280565b606081806000036114c957604051631a30ee4d60e11b815260040160405180910390fd5b604080516001808252818301909252600091816020015b6114e8612228565b8152602001906001900390816114e0579050509050611508868686611af0565b816000815181106104c3576104c361256a565b6060828060000361153f57604051631a30ee4d60e11b815260040160405180910390fd5b8361271081111561156357604051631f3b85d360e01b815260040160405180910390fd5b6000611590877f0000000000000000000000000000000000000000000000000000000000000000886116a1565b905061076d8782876104d7565b606082806000036115c157604051631a30ee4d60e11b815260040160405180910390fd5b604080516001808252818301909252600091816020015b6115e0612228565b8152602001906001900390816115d8579050509050611601878787876119a5565b816000815181106106f4576106f461256a565b6060818060000361163857604051631a30ee4d60e11b815260040160405180910390fd5b8261271081111561165c57604051631f3b85d360e01b815260040160405180910390fd5b600061168b867f0000000000000000000000000000000000000000000000000000000000000000876001611c48565b9050611697868261082f565b9695505050505050565b604051632fe4a15f60e21b81526001600160a01b03848116600483015260009182917f0000000000000000000000000000000000000000000000000000000000000000169063bf92857c9060240160c060405180830381865afa15801561170c573d6000803e3d6000fd5b505050506040513d601f19601f820116820180604052508101906117309190612674565b505060405163b3596f0760e01b81526001600160a01b038981166004830152929550600094507f0000000000000000000000000000000000000000000000000000000000000000909216925063b3596f07916024019050602060405180830381865afa1580156117a4573d6000803e3d6000fd5b505050506040513d601f19601f820116820180604052508101906117c8919061260c565b90506000856001600160a01b031663313ce5676040518163ffffffff1660e01b8152600401602060405180830381865afa15801561180a573d6000803e3d6000fd5b505050506040513d601f19601f8201168201806040525081019061182e91906126be565b60ff16905060008261184183600a6127c8565b61184b908661263b565b6118559190612652565b9050612710611864878361263b565b6104189190612652565b611876612228565b6040516001600160a01b037f00000000000000000000000000000000000000000000000000000000000000001660248201526044810183905260009060640160408051601f19818403018152918152602080830180516001600160e01b031663095ea7b360e01b17905281516060810183526001600160a01b03979097168752600090870152850152509192915050565b61190f612228565b50604080516001600160a01b03938416602482015260448101929092529282166064820152600060848083018290528451808403909101815260a49092018452602080830180516001600160e01b031663617ba03760e01b17905284516060810186527f000000000000000000000000000000000000000000000000000000000000000090941684528301529181019190915290565b6119ad612228565b6040516001600160a01b038086166024830152604482018590526064820184905260006084830181905290871660a48301529060c40160408051601f19818403018152918152602080830180516001600160e01b031663a415bcad60e01b17905281516060810183526001600160a01b037f000000000000000000000000000000000000000000000000000000000000000016815260009181019190915290810191909152915050949350505050565b611a65612228565b600082604051602401611a7a91815260200190565b60408051601f19818403018152918152602080830180516001600160e01b0316632e1a7d4d60e01b17905281516060810183526001600160a01b037f0000000000000000000000000000000000000000000000000000000000000000168152600091810191909152908101919091529392505050565b611af8612228565b6040516001600160a01b038085166024830152604482018490528516606482015260009060840160408051601f19818403018152918152602080830180516001600160e01b0316631a4ca37b60e21b17905281516060810183526001600160a01b037f0000000000000000000000000000000000000000000000000000000000000000168152600091810191909152908101919091529150509392505050565b611ba0612228565b6040516001600160a01b03808616602483015260448201859052606482018490528616608482015260009060a40160408051601f19818403018152918152602080830180516001600160e01b031663573ade8160e01b17905281516060810183526001600160a01b037f000000000000000000000000000000000000000000000000000000000000000016815260009181019190915290810191909152915050949350505050565b60008082611cbf576040516370a0823160e01b81526001600160a01b0387811660048301528616906370a0823190602401602060405180830381865afa158015611c96573d6000803e3d6000fd5b505050506040513d601f19601f82011682018060405250810190611cba919061260c565b611ccb565b856001600160a01b0316315b9050612710611cda858361263b565b6116979190612652565b611cec612228565b506040805160048152602481018252602080820180516001600160e01b0316630d0e30db60e41b17905282516060810184526001600160a01b037f0000000000000000000000000000000000000000000000000000000000000000168152908101939093529082015290565b670de0b6b3a7640000811015611d815760405163b0a8c6c360e01b815260040160405180910390fd5b50565b60008060008060007f00000000000000000000000000000000000000000000000000000000000000006001600160a01b031663bf92857c896040518263ffffffff1660e01b8152600401611de791906001600160a01b0391909116815260200190565b60c060405180830381865afa158015611e04573d6000803e3d6000fd5b505050506040513d601f19601f82011682018060405250810190611e289190612674565b505093505092509250600081612710670de0b6b3a7640000858a611e4c919061263b565b611e569190612652565b611e60919061263b565b611e6a9190612652565b9050600084821015611e8b5760019550611e8482866127d4565b9050611e98565b611e9585836127d4565b90505b60405163b3596f0760e01b81526001600160a01b038a811660048301526000917f00000000000000000000000000000000000000000000000000000000000000009091169063b3596f0790602401602060405180830381865afa158015611f03573d6000803e3d6000fd5b505050506040513d601f19601f82011682018060405250810190611f27919061260c565b905060008a6001600160a01b031663313ce5676040518163ffffffff1660e01b8152600401602060405180830381865afa158015611f69573d6000803e3d6000fd5b505050506040513d601f19601f82011682018060405250810190611f8d91906126be565b60ff16905060008211611fa1576000611fc1565b81611fad82600a6127c8565b611fb7908561263b565b611fc19190612652565b985050505050505050935093915050565b6040516335ea6a7560e01b81526001600160a01b0382811660048301526000917f0000000000000000000000000000000000000000000000000000000000000000909116906335ea6a75906024016101e060405180830381865afa15801561203e573d6000803e3d6000fd5b505050506040513d601f19601f82011682018060405250810190612062919061287b565b610100015192915050565b6040516335ea6a7560e01b81526001600160a01b03838116600483015260009182917f000000000000000000000000000000000000000000000000000000000000000016906335ea6a75906024016101e060405180830381865afa1580156120d9573d6000803e3d6000fd5b505050506040513d601f19601f820116820180604052508101906120fd919061287b565b9050826001036121135761012001519050610829565b61014001519050610829565b60008060008060007f00000000000000000000000000000000000000000000000000000000000000006001600160a01b031663bf92857c896040518263ffffffff1660e01b815260040161218291906001600160a01b0391909116815260200190565b60c060405180830381865afa15801561219f573d6000803e3d6000fd5b505050506040513d601f19601f820116820180604052508101906121c39190612674565b50509350509250925060008661271083866121de919061263b565b6121e89190612652565b6121fa90670de0b6b3a764000061263b565b6122049190612652565b905060008382101561221e5760019550611e8482856127d4565b611e9584836127d4565b604051806060016040528060006001600160a01b0316815260200160008152602001606081525090565b6001600160a01b0381168114611d8157600080fd5b6000806000806080858703121561227d57600080fd5b843561228881612252565b9350602085013561229881612252565b93969395505050506040820135916060013590565b6000602082016020835280845180835260408501915060408160051b86010192506020860160005b8281101561236857868503603f19018452815180516001600160a01b0316865260208082015190870152604090810151606091870182905280519187018290529060005b8181101561233657602081840181015160808a8401015201612319565b506000608082890101526080601f19601f830116880101965050506020820191506020840193506001810190506122d5565b50929695505050505050565b60008060006060848603121561238957600080fd5b833561239481612252565b925060208401356123a481612252565b929592945050506040919091013590565b6000806000606084860312156123ca57600080fd5b83356123d581612252565b95602085013595506040909401359392505050565b600080604083850312156123fd57600080fd5b823561240881612252565b946020939093013593505050565b80356001600160e01b03198116811461242e57600080fd5b919050565b634e487b7160e01b600052604160045260246000fd5b6040516101e0810167ffffffffffffffff8111828210171561246d5761246d612433565b60405290565b604051601f8201601f1916810167ffffffffffffffff8111828210171561249c5761249c612433565b604052919050565b600080604083850312156124b757600080fd5b6124c083612416565b9150602083013567ffffffffffffffff8111156124dc57600080fd5b8301601f810185136124ed57600080fd5b803567ffffffffffffffff81111561250757612507612433565b61251a601f8201601f1916602001612473565b81815286602083850101111561252f57600080fd5b816020840160208301376000602083830101528093505050509250929050565b60006020828403121561256157600080fd5b61128082612416565b634e487b7160e01b600052603260045260246000fd5b60008060006060848603121561259557600080fd5b83516125a081612252565b60208501519093506125b181612252565b6040949094015192959394509192915050565b600080600080608085870312156125da57600080fd5b84516125e581612252565b60208601519094506125f681612252565b6040860151606090960151949790965092505050565b60006020828403121561261e57600080fd5b5051919050565b634e487b7160e01b600052601160045260246000fd5b808202811582820484141761082957610829612625565b60008261266f57634e487b7160e01b600052601260045260246000fd5b500490565b60008060008060008060c0878903121561268d57600080fd5b50508451602086015160408701516060880151608089015160a090990151939a929950909790965094509092509050565b6000602082840312156126d057600080fd5b815160ff8116811461128057600080fd5b6001815b600184111561271c5780850481111561270057612700612625565b600184161561270e57908102905b60019390931c9280026126e5565b935093915050565b60008261273357506001610829565b8161274057506000610829565b816001811461275657600281146127605761277c565b6001915050610829565b60ff84111561277157612771612625565b50506001821b610829565b5060208310610133831016604e8410600b841016171561279f575081810a610829565b6127ac60001984846126e1565b80600019048211156127c0576127c0612625565b029392505050565b60006112808383612724565b8181038181111561082957610829612625565b6000602082840312156127f957600080fd5b6040516020810167ffffffffffffffff8111828210171561281c5761281c612433565b6040529151825250919050565b80516fffffffffffffffffffffffffffffffff8116811461242e57600080fd5b805164ffffffffff8116811461242e57600080fd5b805161ffff8116811461242e57600080fd5b805161242e81612252565b60006101e082840312801561288f57600080fd5b50612898612449565b6128a284846127e7565b81526128b060208401612829565b60208201526128c160408401612829565b60408201526128d260608401612829565b60608201526128e360808401612829565b60808201526128f460a08401612829565b60a082015261290560c08401612849565b60c082015261291660e0840161285e565b60e08201526129286101008401612870565b61010082015261293b6101208401612870565b61012082015261294e6101408401612870565b6101408201526129616101608401612870565b6101608201526129746101808401612829565b6101808201526129876101a08401612829565b6101a082015261299a6101c08401612829565b6101c0820152939250505056fea2646970667358221220fcafbb19047b5555e93dc49a31e63f976b9e1b1c3f26665e2d3f38c5149edae164736f6c634300081a0033",
  "devdoc": {
    "kind": "dev",
    "methods": {},
    "version": 1
  },
  "userdoc": {
    "kind": "user",
    "methods": {},
    "version": 1
  },
  "storageLayout": {
    "storage": [
      {
        "astId": 1465,
        "contract": "src/actions/aave-v3/AaveV3Actions.sol:AaveV3Actions",
        "label": "tokenGetterIDs",
        "offset": 0,
        "slot": "0",
        "type": "t_mapping(t_bytes4,t_uint8)"
      }
    ],
    "types": {
      "t_bytes4": {
        "encoding": "inplace",
        "label": "bytes4",
        "numberOfBytes": "4"
      },
      "t_mapping(t_bytes4,t_uint8)": {
        "encoding": "mapping",
        "key": "t_bytes4",
        "label": "mapping(bytes4 => uint8)",
        "numberOfBytes": "32",
        "value": "t_uint8"
      },
      "t_uint8": {
        "encoding": "inplace",
        "label": "uint8",
        "numberOfBytes": "1"
      }
    }
  }
}