{
  "address": "0x4a8Da20ee44677b41210b4851a799BfF3aB7d9E9",
  "abi": [
    {
      "inputs": [
        {
          "internalType": "address",
          "name": "_vault",
          "type": "address"
        },
        {
          "internalType": "uint256",
          "name": "_beneficaryPercentage",
          "type": "uint256"
        },
        {
          "internalType": "uint256",
          "name": "_creatorPercentage",
          "type": "uint256"
        },
        {
          "internalType": "uint256",
          "name": "_vaultPercentage",
          "type": "uint256"
        }
      ],
      "stateMutability": "nonpayable",
      "type": "constructor"
    },
    {
      "inputs": [],
      "name": "InvalidAmount",
      "type": "error"
    },
    {
      "inputs": [],
      "name": "InvalidBeneficiaryOrCreator",
      "type": "error"
    },
    {
      "inputs": [],
      "name": "InvalidPercentageDistribution",
      "type": "error"
    },
    {
      "inputs": [],
      "name": "InvalidPrimaryTokenDiscount",
      "type": "error"
    },
    {
      "inputs": [],
      "name": "PrimaryTokenAlreadyActivated",
      "type": "error"
    },
    {
      "inputs": [],
      "name": "TokenNotAllowed",
      "type": "error"
    },
    {
      "inputs": [],
      "name": "ZeroAddressNotValid",
      "type": "error"
    },
    {
      "anonymous": false,
      "inputs": [
        {
          "indexed": true,
          "internalType": "address",
          "name": "token",
          "type": "address"
        },
        {
          "indexed": false,
          "internalType": "uint256",
          "name": "amount",
          "type": "uint256"
        }
      ],
      "name": "FeeHandled",
      "type": "event"
    },
    {
      "anonymous": false,
      "inputs": [
        {
          "indexed": false,
          "internalType": "uint256",
          "name": "amount",
          "type": "uint256"
        }
      ],
      "name": "FeeHandledETH",
      "type": "event"
    },
    {
      "anonymous": false,
      "inputs": [
        {
          "indexed": true,
          "internalType": "address",
          "name": "previousOwner",
          "type": "address"
        },
        {
          "indexed": true,
          "internalType": "address",
          "name": "newOwner",
          "type": "address"
        }
      ],
      "name": "OwnershipTransferred",
      "type": "event"
    },
    {
      "anonymous": false,
      "inputs": [
        {
          "indexed": false,
          "internalType": "address",
          "name": "token",
          "type": "address"
        },
        {
          "indexed": false,
          "internalType": "address",
          "name": "treasury",
          "type": "address"
        }
      ],
      "name": "PrimaryTokenActivated",
      "type": "event"
    },
    {
      "anonymous": false,
      "inputs": [
        {
          "indexed": false,
          "internalType": "uint256",
          "name": "beneficiary",
          "type": "uint256"
        },
        {
          "indexed": false,
          "internalType": "uint256",
          "name": "creator",
          "type": "uint256"
        },
        {
          "indexed": false,
          "internalType": "uint256",
          "name": "vault",
          "type": "uint256"
        }
      ],
      "name": "UpdatedPercentages",
      "type": "event"
    },
    {
      "anonymous": false,
      "inputs": [
        {
          "indexed": false,
          "internalType": "uint256",
          "name": "discount",
          "type": "uint256"
        }
      ],
      "name": "UpdatedPrimaryTokenDiscount",
      "type": "event"
    },
    {
      "anonymous": false,
      "inputs": [
        {
          "indexed": false,
          "internalType": "address",
          "name": "token",
          "type": "address"
        },
        {
          "indexed": false,
          "internalType": "bool",
          "name": "allowed",
          "type": "bool"
        }
      ],
      "name": "UpdatedTokenAllowance",
      "type": "event"
    },
    {
      "anonymous": false,
      "inputs": [
        {
          "indexed": false,
          "internalType": "address",
          "name": "vault",
          "type": "address"
        }
      ],
      "name": "UpdatedVault",
      "type": "event"
    },
    {
      "inputs": [],
      "name": "MAX_PRIMARY_TOKEN_DISCOUNT",
      "outputs": [
        {
          "internalType": "uint256",
          "name": "",
          "type": "uint256"
        }
      ],
      "stateMutability": "view",
      "type": "function"
    },
    {
      "inputs": [],
      "name": "PERCENTAGE_DIVISOR",
      "outputs": [
        {
          "internalType": "uint256",
          "name": "",
          "type": "uint256"
        }
      ],
      "stateMutability": "view",
      "type": "function"
    },
    {
      "inputs": [
        {
          "internalType": "address",
          "name": "_token",
          "type": "address"
        },
        {
          "internalType": "address",
          "name": "_treasury",
          "type": "address"
        }
      ],
      "name": "activatePrimaryToken",
      "outputs": [],
      "stateMutability": "nonpayable",
      "type": "function"
    },
    {
      "inputs": [],
      "name": "beneficiaryPercentage",
      "outputs": [
        {
          "internalType": "uint256",
          "name": "",
          "type": "uint256"
        }
      ],
      "stateMutability": "view",
      "type": "function"
    },
    {
      "inputs": [],
      "name": "creatorPercentage",
      "outputs": [
        {
          "internalType": "uint256",
          "name": "",
          "type": "uint256"
        }
      ],
      "stateMutability": "view",
      "type": "function"
    },
    {
      "inputs": [
        {
          "internalType": "address",
          "name": "token",
          "type": "address"
        },
        {
          "internalType": "uint256",
          "name": "amount",
          "type": "uint256"
        },
        {
          "internalType": "address",
          "name": "beneficiary",
          "type": "address"
        },
        {
          "internalType": "address",
          "name": "creator",
          "type": "address"
        }
      ],
      "name": "handleFee",
      "outputs": [],
      "stateMutability": "nonpayable",
      "type": "function"
    },
    {
      "inputs": [
        {
          "internalType": "address",
          "name": "beneficiary",
          "type": "address"
        },
        {
          "internalType": "address",
          "name": "creator",
          "type": "address"
        }
      ],
      "name": "handleFeeETH",
      "outputs": [],
      "stateMutability": "payable",
      "type": "function"
    },
    {
      "inputs": [],
      "name": "owner",
      "outputs": [
        {
          "internalType": "address",
          "name": "",
          "type": "address"
        }
      ],
      "stateMutability": "view",
      "type": "function"
    },
    {
      "inputs": [],
      "name": "primaryToken",
      "outputs": [
        {
          "internalType": "address",
          "name": "",
          "type": "address"
        }
      ],
      "stateMutability": "view",
      "type": "function"
    },
    {
      "inputs": [],
      "name": "primaryTokenActive",
      "outputs": [
        {
          "internalType": "bool",
          "name": "",
          "type": "bool"
        }
      ],
      "stateMutability": "view",
      "type": "function"
    },
    {
      "inputs": [],
      "name": "primaryTokenDiscount",
      "outputs": [
        {
          "internalType": "uint256",
          "name": "",
          "type": "uint256"
        }
      ],
      "stateMutability": "view",
      "type": "function"
    },
    {
      "inputs": [],
      "name": "renounceOwnership",
      "outputs": [],
      "stateMutability": "nonpayable",
      "type": "function"
    },
    {
      "inputs": [
        {
          "internalType": "address",
          "name": "token",
          "type": "address"
        }
      ],
      "name": "tokenAllowed",
      "outputs": [
        {
          "internalType": "bool",
          "name": "",
          "type": "bool"
        }
      ],
      "stateMutability": "view",
      "type": "function"
    },
    {
      "inputs": [
        {
          "internalType": "address",
          "name": "newOwner",
          "type": "address"
        }
      ],
      "name": "transferOwnership",
      "outputs": [],
      "stateMutability": "nonpayable",
      "type": "function"
    },
    {
      "inputs": [],
      "name": "treasury",
      "outputs": [
        {
          "internalType": "address",
          "name": "",
          "type": "address"
        }
      ],
      "stateMutability": "view",
      "type": "function"
    },
    {
      "inputs": [
        {
          "internalType": "uint256",
          "name": "_beneficiary",
          "type": "uint256"
        },
        {
          "internalType": "uint256",
          "name": "_creator",
          "type": "uint256"
        },
        {
          "internalType": "uint256",
          "name": "_vault",
          "type": "uint256"
        }
      ],
      "name": "updatePercentages",
      "outputs": [],
      "stateMutability": "nonpayable",
      "type": "function"
    },
    {
      "inputs": [
        {
          "internalType": "uint256",
          "name": "_discount",
          "type": "uint256"
        }
      ],
      "name": "updatePrimaryTokenDiscount",
      "outputs": [],
      "stateMutability": "nonpayable",
      "type": "function"
    },
    {
      "inputs": [
        {
          "internalType": "address",
          "name": "token",
          "type": "address"
        },
        {
          "internalType": "bool",
          "name": "allowed",
          "type": "bool"
        }
      ],
      "name": "updateTokenAllowance",
      "outputs": [],
      "stateMutability": "nonpayable",
      "type": "function"
    },
    {
      "inputs": [
        {
          "internalType": "address",
          "name": "_vault",
          "type": "address"
        }
      ],
      "name": "updateVault",
      "outputs": [],
      "stateMutability": "nonpayable",
      "type": "function"
    },
    {
      "inputs": [],
      "name": "vault",
      "outputs": [
        {
          "internalType": "address",
          "name": "",
          "type": "address"
        }
      ],
      "stateMutability": "view",
      "type": "function"
    },
    {
      "inputs": [],
      "name": "vaultPercentage",
      "outputs": [
        {
          "internalType": "uint256",
          "name": "",
          "type": "uint256"
        }
      ],
      "stateMutability": "view",
      "type": "function"
    }
  ],
  "transactionHash": "0xb6497cedb1a76e8c30267ab12fb05b317118e9d203be9bb4f2fbdb7a2f80ef2f",
  "args": [
    "0x36375828fd821935cFf3E8AB6322cAb54BBfaDeC",
    1000,
    500,
    8500
  ],
  "numDeployments": 1,
  "solcInputHash": "4b77b1615366c5fedbc67911183a0195",
  "bytecode": "0x60806040526107d06007553480156200001757600080fd5b5060405162001339380380620013398339810160408190526200003a91620001d1565b620000453362000067565b6200005084620000b7565b6200005d83838362000116565b5050505062000246565b600080546001600160a01b038381166001600160a01b0319831681178455604051919092169283917f8be0079c531659141344cd1fd0a4f28419497f9722a3daafe3b4186f6b6457e09190a35050565b620000c281620001a6565b600180546001600160a01b0319166001600160a01b0383169081179091556040519081527f6f558b65df41ac351cf689106e82861fcd8565c6e5826e57870ddfa645c6f3659060200160405180910390a150565b612710816200012684866200021e565b6200013291906200021e565b146200015157604051631ca624c360e11b815260040160405180910390fd5b60048390556005829055600681905560408051848152602081018490529081018290527f1a9c7b51149f1736f1cdaf2c64576ac08a15e1a84d04408ed0e9620e7214e53c9060600160405180910390a1505050565b6001600160a01b038116620001ce57604051633bf95ba760e01b815260040160405180910390fd5b50565b60008060008060808587031215620001e857600080fd5b84516001600160a01b03811681146200020057600080fd5b60208601516040870151606090970151919890975090945092505050565b808201808211156200024057634e487b7160e01b600052601160045260246000fd5b92915050565b6110e380620002566000396000f3fe60806040526004361061012a5760003560e01c80638da5cb5b116100ab578063e7563f3f1161006f578063e7563f3f14610315578063eb56faf014610335578063f071bf4f14610355578063f2fde38b1461036b578063f94ebb601461038b578063fbfa77cf146103ab57600080fd5b80638da5cb5b1461028e57806391ac094c146102ac5780639c06d4dd146102cc578063caf29765146102ec578063d66672c91461030257600080fd5b806355219d5a116100f257806355219d5a146101d25780635b7e52fc1461020b57806361d027b314610221578063715018a6146102595780637ed944a21461026e57600080fd5b80630230ee011461012f5780630bceddc714610158578063263d5ad01461017a5780634346e4c6146101905780634a0db270146101bc575b600080fd5b34801561013b57600080fd5b5061014560045481565b6040519081526020015b60405180910390f35b34801561016457600080fd5b50610178610173366004610e76565b6103cb565b005b34801561018657600080fd5b5061014560065481565b34801561019c57600080fd5b506003546001600160a01b031615155b604051901515815260200161014f565b3480156101c857600080fd5b5061014561138881565b3480156101de57600080fd5b506101ac6101ed366004610ec3565b6001600160a01b031660009081526008602052604090205460ff1690565b34801561021757600080fd5b5061014560075481565b34801561022d57600080fd5b50600254610241906001600160a01b031681565b6040516001600160a01b03909116815260200161014f565b34801561026557600080fd5b50610178610582565b34801561027a57600080fd5b50610178610289366004610ee5565b610596565b34801561029a57600080fd5b506000546001600160a01b0316610241565b3480156102b857600080fd5b50600354610241906001600160a01b031681565b3480156102d857600080fd5b506101786102e7366004610f18565b610649565b3480156102f857600080fd5b5061014561271081565b610178610310366004610ee5565b6106b0565b34801561032157600080fd5b50610178610330366004610ec3565b61080a565b34801561034157600080fd5b50610178610350366004610f31565b61081e565b34801561036157600080fd5b5061014560055481565b34801561037757600080fd5b50610178610386366004610ec3565b610836565b34801561039757600080fd5b506101786103a6366004610f6b565b6108b1565b3480156103b757600080fd5b50600154610241906001600160a01b031681565b6103d483610915565b6103de8282610936565b6001600160a01b03841660009081526008602052604090205460ff166104175760405163514e24c360e11b815260040160405180910390fd5b8260008061042f6003546001600160a01b0316151590565b801561044857506003546001600160a01b038881169116145b1561047b576127106007548761045e9190610fb8565b6104689190610fd5565b91506104748284610ff7565b92506104b6565b6003546001600160a01b0316156104b6576127106007548761049d9190610fb8565b6104a79190610fd5565b90506104b38184610ff7565b92505b60008060006104c486610975565b919450925090506104e06001600160a01b038b16338a866109e2565b6104f56001600160a01b038b163389856109e2565b600154610511906001600160a01b038c811691339116846109e2565b831561053357600254610533906001600160a01b038c811691339116876109e2565b896001600160a01b03167f688d783b50fa758d478f9ddad692eb5ede5fdce41b0ade95f71b2876797899a18a60405161056e91815260200190565b60405180910390a250505050505050505050565b61058a610a42565b6105946000610a9c565b565b61059e610a42565b6003546001600160a01b0316156105c857604051634d9de1df60e01b815260040160405180910390fd5b6105d182610aec565b6105da81610aec565b600380546001600160a01b038481166001600160a01b03199283168117909355600280549185169190921681179091556040805192835260208301919091527f4f4c174026603892e13a637b7d3b6d7629dd1955b94cd65672b02b2d8f2240e691015b60405180910390a15050565b610651610a42565b61138881111561067457604051633a6327bb60e01b815260040160405180910390fd5b60078190556040518181527ff913ea771342f9f955b95942e99c2069a73c4a82e7c6c222f696b105a79d5f4f906020015b60405180910390a150565b6000805260086020527f5eff886ea0ce6ca488a3d6e336d6c0f75f46d19b42c06ce5ee98e42c96d256c75460ff166106fb5760405163514e24c360e11b815260040160405180910390fd5b6107058282610936565b3461070f81610915565b600080600061071d84610975565b925092509250856001600160a01b03166108fc849081150290604051600060405180830381858888f1935050505015801561075c573d6000803e3d6000fd5b506040516001600160a01b0386169083156108fc029084906000818181858888f19350505050158015610793573d6000803e3d6000fd5b506001546040516001600160a01b039091169082156108fc029083906000818181858888f193505050501580156107ce573d6000803e3d6000fd5b506040513481527f65dccc23bea9f05a8c853012ff41f89b6d1820d1ed5109afe029761397c01a2e9060200160405180910390a1505050505050565b610812610a42565b61081b81610b13565b50565b610826610a42565b610831838383610b6a565b505050565b61083e610a42565b6001600160a01b0381166108a85760405162461bcd60e51b815260206004820152602660248201527f4f776e61626c653a206e6577206f776e657220697320746865207a65726f206160448201526564647265737360d01b60648201526084015b60405180910390fd5b61081b81610a9c565b6108b9610a42565b6001600160a01b038216600081815260086020908152604091829020805460ff19168515159081179091558251938452908301527f21fb5ab330e6efd4fe3f3ddbc29f5e8b6a8860cc338fd853a89ca420f77dd436910161063d565b8060000361081b5760405163162908e360e11b815260040160405180910390fd5b6001600160a01b038216158061095357506001600160a01b038116155b156109715760405163768d53fd60e11b815260040160405180910390fd5b5050565b6000806000806127106004548661098c9190610fb8565b6109969190610fd5565b90506000612710600554876109ab9190610fb8565b6109b59190610fd5565b90506000612710600654886109ca9190610fb8565b6109d49190610fd5565b929791965091945092505050565b604080516001600160a01b0385811660248301528416604482015260648082018490528251808303909101815260849091019091526020810180516001600160e01b03166323b872dd60e01b179052610a3c908590610bf5565b50505050565b6000546001600160a01b031633146105945760405162461bcd60e51b815260206004820181905260248201527f4f776e61626c653a2063616c6c6572206973206e6f7420746865206f776e6572604482015260640161089f565b600080546001600160a01b038381166001600160a01b0319831681178455604051919092169283917f8be0079c531659141344cd1fd0a4f28419497f9722a3daafe3b4186f6b6457e09190a35050565b6001600160a01b03811661081b57604051633bf95ba760e01b815260040160405180910390fd5b610b1c81610aec565b600180546001600160a01b0319166001600160a01b0383169081179091556040519081527f6f558b65df41ac351cf689106e82861fcd8565c6e5826e57870ddfa645c6f365906020016106a5565b61271081610b78848661100a565b610b82919061100a565b14610ba057604051631ca624c360e11b815260040160405180910390fd5b60048390556005829055600681905560408051848152602081018490529081018290527f1a9c7b51149f1736f1cdaf2c64576ac08a15e1a84d04408ed0e9620e7214e53c9060600160405180910390a1505050565b6000610c4a826040518060400160405280602081526020017f5361666545524332303a206c6f772d6c6576656c2063616c6c206661696c6564815250856001600160a01b0316610cca9092919063ffffffff16565b9050805160001480610c6b575080806020019051810190610c6b919061101d565b6108315760405162461bcd60e51b815260206004820152602a60248201527f5361666545524332303a204552433230206f7065726174696f6e20646964206e6044820152691bdd081cdd58d8d9595960b21b606482015260840161089f565b6060610cd98484600085610ce1565b949350505050565b606082471015610d425760405162461bcd60e51b815260206004820152602660248201527f416464726573733a20696e73756666696369656e742062616c616e636520666f6044820152651c8818d85b1b60d21b606482015260840161089f565b600080866001600160a01b03168587604051610d5e919061105e565b60006040518083038185875af1925050503d8060008114610d9b576040519150601f19603f3d011682016040523d82523d6000602084013e610da0565b606091505b5091509150610db187838387610dbc565b979650505050505050565b60608315610e2b578251600003610e24576001600160a01b0385163b610e245760405162461bcd60e51b815260206004820152601d60248201527f416464726573733a2063616c6c20746f206e6f6e2d636f6e7472616374000000604482015260640161089f565b5081610cd9565b610cd98383815115610e405781518083602001fd5b8060405162461bcd60e51b815260040161089f919061107a565b80356001600160a01b0381168114610e7157600080fd5b919050565b60008060008060808587031215610e8c57600080fd5b610e9585610e5a565b935060208501359250610eaa60408601610e5a565b9150610eb860608601610e5a565b905092959194509250565b600060208284031215610ed557600080fd5b610ede82610e5a565b9392505050565b60008060408385031215610ef857600080fd5b610f0183610e5a565b9150610f0f60208401610e5a565b90509250929050565b600060208284031215610f2a57600080fd5b5035919050565b600080600060608486031215610f4657600080fd5b505081359360208301359350604090920135919050565b801515811461081b57600080fd5b60008060408385031215610f7e57600080fd5b610f8783610e5a565b91506020830135610f9781610f5d565b809150509250929050565b634e487b7160e01b600052601160045260246000fd5b8082028115828204841417610fcf57610fcf610fa2565b92915050565b600082610ff257634e487b7160e01b600052601260045260246000fd5b500490565b81810381811115610fcf57610fcf610fa2565b80820180821115610fcf57610fcf610fa2565b60006020828403121561102f57600080fd5b8151610ede81610f5d565b60005b8381101561105557818101518382015260200161103d565b50506000910152565b6000825161107081846020870161103a565b9190910192915050565b602081526000825180602084015261109981604085016020870161103a565b601f01601f1916919091016040019291505056fea2646970667358221220b48aa688eb56c1c0a1a10fd0dadab08cf6e659b58736b20bee8fbb6c4ff7992664736f6c63430008180033",
  "devdoc": {
    "kind": "dev",
    "methods": {
      "owner()": {
        "details": "Returns the address of the current owner."
      },
      "renounceOwnership()": {
        "details": "Leaves the contract without owner. It will not be possible to call `onlyOwner` functions. Can only be called by the current owner. NOTE: Renouncing ownership will leave the contract without an owner, thereby disabling any functionality that is only available to the owner."
      },
      "transferOwnership(address)": {
        "details": "Transfers ownership of the contract to a new account (`newOwner`). Can only be called by the current owner."
      }
    },
    "version": 1
  },
  "userdoc": {
    "kind": "user",
    "methods": {},
    "version": 1
  },
  "storageLayout": {
    "storage": [
      {
        "astId": 1262,
        "contract": "src/FeeHandler.sol:FeeHandler",
        "label": "_owner",
        "offset": 0,
        "slot": "0",
        "type": "t_address"
      },
      {
        "astId": 4773,
        "contract": "src/FeeHandler.sol:FeeHandler",
        "label": "vault",
        "offset": 0,
        "slot": "1",
        "type": "t_address"
      },
      {
        "astId": 4775,
        "contract": "src/FeeHandler.sol:FeeHandler",
        "label": "treasury",
        "offset": 0,
        "slot": "2",
        "type": "t_address"
      },
      {
        "astId": 4777,
        "contract": "src/FeeHandler.sol:FeeHandler",
        "label": "primaryToken",
        "offset": 0,
        "slot": "3",
        "type": "t_address"
      },
      {
        "astId": 4779,
        "contract": "src/FeeHandler.sol:FeeHandler",
        "label": "beneficiaryPercentage",
        "offset": 0,
        "slot": "4",
        "type": "t_uint256"
      },
      {
        "astId": 4781,
        "contract": "src/FeeHandler.sol:FeeHandler",
        "label": "creatorPercentage",
        "offset": 0,
        "slot": "5",
        "type": "t_uint256"
      },
      {
        "astId": 4783,
        "contract": "src/FeeHandler.sol:FeeHandler",
        "label": "vaultPercentage",
        "offset": 0,
        "slot": "6",
        "type": "t_uint256"
      },
      {
        "astId": 4786,
        "contract": "src/FeeHandler.sol:FeeHandler",
        "label": "primaryTokenDiscount",
        "offset": 0,
        "slot": "7",
        "type": "t_uint256"
      },
      {
        "astId": 4790,
        "contract": "src/FeeHandler.sol:FeeHandler",
        "label": "allowedTokens",
        "offset": 0,
        "slot": "8",
        "type": "t_mapping(t_address,t_bool)"
      }
    ],
    "types": {
      "t_address": {
        "encoding": "inplace",
        "label": "address",
        "numberOfBytes": "20"
      },
      "t_bool": {
        "encoding": "inplace",
        "label": "bool",
        "numberOfBytes": "1"
      },
      "t_mapping(t_address,t_bool)": {
        "encoding": "mapping",
        "key": "t_address",
        "label": "mapping(address => bool)",
        "numberOfBytes": "32",
        "value": "t_bool"
      },
      "t_uint256": {
        "encoding": "inplace",
        "label": "uint256",
        "numberOfBytes": "32"
      }
    }
  }
}