{
  "address": "0xe51696bd5A6677C42556A26005bF13DED45CD1D6",
  "abi": [
    {
      "inputs": [
        {
          "internalType": "address",
          "name": "_vault",
          "type": "address"
        },
        {
          "internalType": "uint256",
          "name": "_beneficaryPercentage",
          "type": "uint256"
        },
        {
          "internalType": "uint256",
          "name": "_creatorPercentage",
          "type": "uint256"
        },
        {
          "internalType": "uint256",
          "name": "_vaultPercentage",
          "type": "uint256"
        },
        {
          "internalType": "address",
          "name": "_owner",
          "type": "address"
        }
      ],
      "stateMutability": "nonpayable",
      "type": "constructor"
    },
    {
      "inputs": [],
      "name": "InvalidAmount",
      "type": "error"
    },
    {
      "inputs": [],
      "name": "InvalidBeneficiary",
      "type": "error"
    },
    {
      "inputs": [],
      "name": "InvalidPercentageDistribution",
      "type": "error"
    },
    {
      "inputs": [],
      "name": "InvalidPrimaryTokenDiscount",
      "type": "error"
    },
    {
      "inputs": [],
      "name": "PrimaryTokenAlreadyActivated",
      "type": "error"
    },
    {
      "inputs": [],
      "name": "TokenNotAllowed",
      "type": "error"
    },
    {
      "inputs": [],
      "name": "ZeroAddressNotValid",
      "type": "error"
    },
    {
      "anonymous": false,
      "inputs": [
        {
          "indexed": true,
          "internalType": "address",
          "name": "token",
          "type": "address"
        },
        {
          "indexed": false,
          "internalType": "uint256",
          "name": "amount",
          "type": "uint256"
        }
      ],
      "name": "FeeHandled",
      "type": "event"
    },
    {
      "anonymous": false,
      "inputs": [
        {
          "indexed": false,
          "internalType": "uint256",
          "name": "amount",
          "type": "uint256"
        }
      ],
      "name": "FeeHandledETH",
      "type": "event"
    },
    {
      "anonymous": false,
      "inputs": [
        {
          "indexed": true,
          "internalType": "address",
          "name": "previousOwner",
          "type": "address"
        },
        {
          "indexed": true,
          "internalType": "address",
          "name": "newOwner",
          "type": "address"
        }
      ],
      "name": "OwnershipTransferred",
      "type": "event"
    },
    {
      "anonymous": false,
      "inputs": [
        {
          "indexed": false,
          "internalType": "address",
          "name": "token",
          "type": "address"
        },
        {
          "indexed": false,
          "internalType": "address",
          "name": "treasury",
          "type": "address"
        }
      ],
      "name": "PrimaryTokenActivated",
      "type": "event"
    },
    {
      "anonymous": false,
      "inputs": [
        {
          "indexed": false,
          "internalType": "uint256",
          "name": "beneficiary",
          "type": "uint256"
        },
        {
          "indexed": false,
          "internalType": "uint256",
          "name": "creator",
          "type": "uint256"
        },
        {
          "indexed": false,
          "internalType": "uint256",
          "name": "vault",
          "type": "uint256"
        }
      ],
      "name": "UpdatedPercentages",
      "type": "event"
    },
    {
      "anonymous": false,
      "inputs": [
        {
          "indexed": false,
          "internalType": "uint256",
          "name": "discount",
          "type": "uint256"
        }
      ],
      "name": "UpdatedPrimaryTokenDiscount",
      "type": "event"
    },
    {
      "anonymous": false,
      "inputs": [
        {
          "indexed": false,
          "internalType": "address",
          "name": "reduction",
          "type": "address"
        }
      ],
      "name": "UpdatedReduction",
      "type": "event"
    },
    {
      "anonymous": false,
      "inputs": [
        {
          "indexed": false,
          "internalType": "address",
          "name": "token",
          "type": "address"
        },
        {
          "indexed": false,
          "internalType": "bool",
          "name": "allowed",
          "type": "bool"
        }
      ],
      "name": "UpdatedTokenAllowance",
      "type": "event"
    },
    {
      "anonymous": false,
      "inputs": [
        {
          "indexed": false,
          "internalType": "address",
          "name": "vault",
          "type": "address"
        }
      ],
      "name": "UpdatedVault",
      "type": "event"
    },
    {
      "inputs": [],
      "name": "MAX_PRIMARY_TOKEN_DISCOUNT",
      "outputs": [
        {
          "internalType": "uint256",
          "name": "",
          "type": "uint256"
        }
      ],
      "stateMutability": "view",
      "type": "function"
    },
    {
      "inputs": [],
      "name": "PERCENTAGE_DIVISOR",
      "outputs": [
        {
          "internalType": "uint256",
          "name": "",
          "type": "uint256"
        }
      ],
      "stateMutability": "view",
      "type": "function"
    },
    {
      "inputs": [
        {
          "internalType": "address",
          "name": "_token",
          "type": "address"
        },
        {
          "internalType": "address",
          "name": "_treasury",
          "type": "address"
        }
      ],
      "name": "activatePrimaryToken",
      "outputs": [],
      "stateMutability": "nonpayable",
      "type": "function"
    },
    {
      "inputs": [],
      "name": "beneficiaryPercentage",
      "outputs": [
        {
          "internalType": "uint256",
          "name": "",
          "type": "uint256"
        }
      ],
      "stateMutability": "view",
      "type": "function"
    },
    {
      "inputs": [],
      "name": "creatorPercentage",
      "outputs": [
        {
          "internalType": "uint256",
          "name": "",
          "type": "uint256"
        }
      ],
      "stateMutability": "view",
      "type": "function"
    },
    {
      "inputs": [
        {
          "internalType": "address",
          "name": "token",
          "type": "address"
        },
        {
          "internalType": "uint256",
          "name": "amount",
          "type": "uint256"
        },
        {
          "internalType": "address",
          "name": "beneficiary",
          "type": "address"
        },
        {
          "internalType": "address",
          "name": "creator",
          "type": "address"
        }
      ],
      "name": "handleFee",
      "outputs": [],
      "stateMutability": "nonpayable",
      "type": "function"
    },
    {
      "inputs": [
        {
          "internalType": "address",
          "name": "beneficiary",
          "type": "address"
        },
        {
          "internalType": "address",
          "name": "creator",
          "type": "address"
        }
      ],
      "name": "handleFeeETH",
      "outputs": [],
      "stateMutability": "payable",
      "type": "function"
    },
    {
      "inputs": [],
      "name": "owner",
      "outputs": [
        {
          "internalType": "address",
          "name": "",
          "type": "address"
        }
      ],
      "stateMutability": "view",
      "type": "function"
    },
    {
      "inputs": [],
      "name": "primaryToken",
      "outputs": [
        {
          "internalType": "address",
          "name": "",
          "type": "address"
        }
      ],
      "stateMutability": "view",
      "type": "function"
    },
    {
      "inputs": [],
      "name": "primaryTokenActive",
      "outputs": [
        {
          "internalType": "bool",
          "name": "",
          "type": "bool"
        }
      ],
      "stateMutability": "view",
      "type": "function"
    },
    {
      "inputs": [],
      "name": "primaryTokenDiscount",
      "outputs": [
        {
          "internalType": "uint256",
          "name": "",
          "type": "uint256"
        }
      ],
      "stateMutability": "view",
      "type": "function"
    },
    {
      "inputs": [],
      "name": "reduction",
      "outputs": [
        {
          "internalType": "address",
          "name": "",
          "type": "address"
        }
      ],
      "stateMutability": "view",
      "type": "function"
    },
    {
      "inputs": [],
      "name": "renounceOwnership",
      "outputs": [],
      "stateMutability": "nonpayable",
      "type": "function"
    },
    {
      "inputs": [
        {
          "internalType": "address",
          "name": "token",
          "type": "address"
        }
      ],
      "name": "tokenAllowed",
      "outputs": [
        {
          "internalType": "bool",
          "name": "",
          "type": "bool"
        }
      ],
      "stateMutability": "view",
      "type": "function"
    },
    {
      "inputs": [
        {
          "internalType": "address",
          "name": "newOwner",
          "type": "address"
        }
      ],
      "name": "transferOwnership",
      "outputs": [],
      "stateMutability": "nonpayable",
      "type": "function"
    },
    {
      "inputs": [],
      "name": "treasury",
      "outputs": [
        {
          "internalType": "address",
          "name": "",
          "type": "address"
        }
      ],
      "stateMutability": "view",
      "type": "function"
    },
    {
      "inputs": [
        {
          "internalType": "uint256",
          "name": "_beneficiary",
          "type": "uint256"
        },
        {
          "internalType": "uint256",
          "name": "_creator",
          "type": "uint256"
        },
        {
          "internalType": "uint256",
          "name": "_vault",
          "type": "uint256"
        }
      ],
      "name": "updatePercentages",
      "outputs": [],
      "stateMutability": "nonpayable",
      "type": "function"
    },
    {
      "inputs": [
        {
          "internalType": "uint256",
          "name": "_discount",
          "type": "uint256"
        }
      ],
      "name": "updatePrimaryTokenDiscount",
      "outputs": [],
      "stateMutability": "nonpayable",
      "type": "function"
    },
    {
      "inputs": [
        {
          "internalType": "address",
          "name": "_reduction",
          "type": "address"
        }
      ],
      "name": "updateReduction",
      "outputs": [],
      "stateMutability": "nonpayable",
      "type": "function"
    },
    {
      "inputs": [
        {
          "internalType": "address",
          "name": "token",
          "type": "address"
        },
        {
          "internalType": "bool",
          "name": "allowed",
          "type": "bool"
        }
      ],
      "name": "updateTokenAllowance",
      "outputs": [],
      "stateMutability": "nonpayable",
      "type": "function"
    },
    {
      "inputs": [
        {
          "internalType": "address",
          "name": "_vault",
          "type": "address"
        }
      ],
      "name": "updateVault",
      "outputs": [],
      "stateMutability": "nonpayable",
      "type": "function"
    },
    {
      "inputs": [],
      "name": "vault",
      "outputs": [
        {
          "internalType": "address",
          "name": "",
          "type": "address"
        }
      ],
      "stateMutability": "view",
      "type": "function"
    },
    {
      "inputs": [],
      "name": "vaultPercentage",
      "outputs": [
        {
          "internalType": "uint256",
          "name": "",
          "type": "uint256"
        }
      ],
      "stateMutability": "view",
      "type": "function"
    }
  ],
  "transactionHash": "0x5310eb144b114323da2e3857545df170179404b25dde6c78a91ddad3afd3a7ac",
  "args": [
    "0x36375828fd821935cFf3E8AB6322cAb54BBfaDeC",
    1000,
    500,
    8500,
    "0xd4Fa4ee93D7D27c1c4Be36bfBa67183dD4320123"
  ],
  "numDeployments": 3,
  "solcInputHash": "eab043be004c7e3c3b8b53ec61e239b5",
  "bytecode": "0x60806040526107d06008553480156200001757600080fd5b50604051620015d4380380620015d48339810160408190526200003a91620001fa565b620000453362000073565b6200005085620000c3565b6200005d84848462000122565b620000688162000073565b505050505062000277565b600080546001600160a01b038381166001600160a01b0319831681178455604051919092169283917f8be0079c531659141344cd1fd0a4f28419497f9722a3daafe3b4186f6b6457e09190a35050565b620000ce81620001b2565b600180546001600160a01b0319166001600160a01b0383169081179091556040519081527f6f558b65df41ac351cf689106e82861fcd8565c6e5826e57870ddfa645c6f3659060200160405180910390a150565b612710816200013284866200024f565b6200013e91906200024f565b146200015d57604051631ca624c360e11b815260040160405180910390fd5b60058390556006829055600781905560408051848152602081018490529081018290527f1a9c7b51149f1736f1cdaf2c64576ac08a15e1a84d04408ed0e9620e7214e53c9060600160405180910390a1505050565b6001600160a01b038116620001da57604051633bf95ba760e01b815260040160405180910390fd5b50565b80516001600160a01b0381168114620001f557600080fd5b919050565b600080600080600060a086880312156200021357600080fd5b6200021e86620001dd565b94506020860151935060408601519250606086015191506200024360808701620001dd565b90509295509295909350565b808201808211156200027157634e487b7160e01b600052601160045260246000fd5b92915050565b61134d80620002876000396000f3fe6080604052600436106101405760003560e01c80638da5cb5b116100b6578063e75a44071161006f578063e75a44071461036b578063eb56faf01461038b578063f071bf4f146103ab578063f2fde38b146103c1578063f94ebb60146103e1578063fbfa77cf1461040157600080fd5b80638da5cb5b146102c457806391ac094c146102e25780639c06d4dd14610302578063caf2976514610322578063d66672c914610338578063e7563f3f1461034b57600080fd5b80634e72d15f116101085780634e72d15f146101e857806355219d5a146102205780635b7e52fc1461025957806361d027b31461026f578063715018a61461028f5780637ed944a2146102a457600080fd5b80630230ee01146101455780630bceddc71461016e578063263d5ad0146101905780634346e4c6146101a65780634a0db270146101d2575b600080fd5b34801561015157600080fd5b5061015b60055481565b6040519081526020015b60405180910390f35b34801561017a57600080fd5b5061018e6101893660046110c7565b610421565b005b34801561019c57600080fd5b5061015b60075481565b3480156101b257600080fd5b506003546001600160a01b031615155b6040519015158152602001610165565b3480156101de57600080fd5b5061015b61138881565b3480156101f457600080fd5b50600454610208906001600160a01b031681565b6040516001600160a01b039091168152602001610165565b34801561022c57600080fd5b506101c261023b366004611114565b6001600160a01b031660009081526009602052604090205460ff1690565b34801561026557600080fd5b5061015b60085481565b34801561027b57600080fd5b50600254610208906001600160a01b031681565b34801561029b57600080fd5b5061018e61058a565b3480156102b057600080fd5b5061018e6102bf366004611136565b61059e565b3480156102d057600080fd5b506000546001600160a01b0316610208565b3480156102ee57600080fd5b50600354610208906001600160a01b031681565b34801561030e57600080fd5b5061018e61031d366004611169565b610651565b34801561032e57600080fd5b5061015b61271081565b61018e610346366004611136565b6106b8565b34801561035757600080fd5b5061018e610366366004611114565b6108be565b34801561037757600080fd5b5061018e610386366004611114565b6108d2565b34801561039757600080fd5b5061018e6103a6366004611182565b610931565b3480156103b757600080fd5b5061015b60065481565b3480156103cd57600080fd5b5061018e6103dc366004611114565b610949565b3480156103ed57600080fd5b5061018e6103fc3660046111bc565b6109c4565b34801561040d57600080fd5b50600154610208906001600160a01b031681565b61042a83610a28565b61043382610a49565b6001600160a01b03841660009081526009602052604090205460ff1661046c5760405163514e24c360e11b815260040160405180910390fd5b6000806104798587610a70565b91509150600080600061048b85610bc6565b919450925090506104a76001600160a01b038a16338986610c33565b6001600160a01b038616156104ec576104cb6001600160a01b038a16338885610c33565b6001546104e7906001600160a01b038b81169133911684610c33565b61051a565b60015461051a9033906001600160a01b03166105088585611209565b6001600160a01b038d16929190610c33565b831561053c5760025461053c906001600160a01b038b81169133911687610c33565b886001600160a01b03167f688d783b50fa758d478f9ddad692eb5ede5fdce41b0ade95f71b2876797899a18960405161057791815260200190565b60405180910390a2505050505050505050565b610592610c93565b61059c6000610ced565b565b6105a6610c93565b6003546001600160a01b0316156105d057604051634d9de1df60e01b815260040160405180910390fd5b6105d982610d3d565b6105e281610d3d565b600380546001600160a01b038481166001600160a01b03199283168117909355600280549185169190921681179091556040805192835260208301919091527f4f4c174026603892e13a637b7d3b6d7629dd1955b94cd65672b02b2d8f2240e691015b60405180910390a15050565b610659610c93565b61138881111561067c57604051633a6327bb60e01b815260040160405180910390fd5b60088190556040518181527ff913ea771342f9f955b95942e99c2069a73c4a82e7c6c222f696b105a79d5f4f906020015b60405180910390a150565b6000805260096020527fec8156718a8372b1db44bb411437d0870f3e3790d4a08526d024ce1b0b668f6b5460ff166107035760405163514e24c360e11b815260040160405180910390fd5b61070c82610a49565b3461071681610a28565b600080610724836000610a70565b91509150600080600061073685610bc6565b925092509250876001600160a01b03166108fc849081150290604051600060405180830381858888f19350505050158015610775573d6000803e3d6000fd5b506001600160a01b038716156107fc576040516001600160a01b0388169083156108fc029084906000818181858888f193505050501580156107bb573d6000803e3d6000fd5b506001546040516001600160a01b039091169082156108fc029083906000818181858888f193505050501580156107f6573d6000803e3d6000fd5b5061083f565b6001546001600160a01b03166108fc6108158484611209565b6040518115909202916000818181858888f1935050505015801561083d573d6000803e3d6000fd5b505b8315610881576002546040516001600160a01b039091169085156108fc029086906000818181858888f1935050505015801561087f573d6000803e3d6000fd5b505b6040513481527f65dccc23bea9f05a8c853012ff41f89b6d1820d1ed5109afe029761397c01a2e9060200160405180910390a15050505050505050565b6108c6610c93565b6108cf81610d64565b50565b6108da610c93565b6108e381610d3d565b600480546001600160a01b0319166001600160a01b0383169081179091556040519081527f649fed15b1ca56d22be5a668138c3016c9bd83a7113c51b4ad658c17385690a1906020016106ad565b610939610c93565b610944838383610dbb565b505050565b610951610c93565b6001600160a01b0381166109bb5760405162461bcd60e51b815260206004820152602660248201527f4f776e61626c653a206e6577206f776e657220697320746865207a65726f206160448201526564647265737360d01b60648201526084015b60405180910390fd5b6108cf81610ced565b6109cc610c93565b6001600160a01b038216600081815260096020908152604091829020805460ff19168515159081179091558251938452908301527f21fb5ab330e6efd4fe3f3ddbc29f5e8b6a8860cc338fd853a89ca420f77dd4369101610645565b806000036108cf5760405163162908e360e11b815260040160405180910390fd5b6001600160a01b0381166108cf57604051631559b7d760e21b815260040160405180910390fd5b6004546000908190849082906001600160a01b031615610b235760048054604051633f7f70a760e21b815233928101929092526000916001600160a01b039091169063fdfdc29c90602401602060405180830381865afa158015610ad8573d6000803e3d6000fd5b505050506040513d601f19601f82011682018060405250810190610afc9190611222565b9050612710610b0b828561123b565b610b159190611252565b610b1f9084611274565b9250505b6003546001600160a01b031615158015610b4a57506003546001600160a01b038681169116145b15610b8057600061271060085488610b62919061123b565b610b6c9190611252565b9050610b788184611274565b925050610bbb565b6003546001600160a01b031615610bbb5761271060085487610ba2919061123b565b610bac9190611252565b9050610bb88183611274565b91505b909590945092505050565b60008060008061271060055486610bdd919061123b565b610be79190611252565b9050600061271060065487610bfc919061123b565b610c069190611252565b9050600061271060075488610c1b919061123b565b610c259190611252565b929791965091945092505050565b604080516001600160a01b0385811660248301528416604482015260648082018490528251808303909101815260849091019091526020810180516001600160e01b03166323b872dd60e01b179052610c8d908590610e46565b50505050565b6000546001600160a01b0316331461059c5760405162461bcd60e51b815260206004820181905260248201527f4f776e61626c653a2063616c6c6572206973206e6f7420746865206f776e657260448201526064016109b2565b600080546001600160a01b038381166001600160a01b0319831681178455604051919092169283917f8be0079c531659141344cd1fd0a4f28419497f9722a3daafe3b4186f6b6457e09190a35050565b6001600160a01b0381166108cf57604051633bf95ba760e01b815260040160405180910390fd5b610d6d81610d3d565b600180546001600160a01b0319166001600160a01b0383169081179091556040519081527f6f558b65df41ac351cf689106e82861fcd8565c6e5826e57870ddfa645c6f365906020016106ad565b61271081610dc98486611209565b610dd39190611209565b14610df157604051631ca624c360e11b815260040160405180910390fd5b60058390556006829055600781905560408051848152602081018490529081018290527f1a9c7b51149f1736f1cdaf2c64576ac08a15e1a84d04408ed0e9620e7214e53c9060600160405180910390a1505050565b6000610e9b826040518060400160405280602081526020017f5361666545524332303a206c6f772d6c6576656c2063616c6c206661696c6564815250856001600160a01b0316610f1b9092919063ffffffff16565b9050805160001480610ebc575080806020019051810190610ebc9190611287565b6109445760405162461bcd60e51b815260206004820152602a60248201527f5361666545524332303a204552433230206f7065726174696f6e20646964206e6044820152691bdd081cdd58d8d9595960b21b60648201526084016109b2565b6060610f2a8484600085610f32565b949350505050565b606082471015610f935760405162461bcd60e51b815260206004820152602660248201527f416464726573733a20696e73756666696369656e742062616c616e636520666f6044820152651c8818d85b1b60d21b60648201526084016109b2565b600080866001600160a01b03168587604051610faf91906112c8565b60006040518083038185875af1925050503d8060008114610fec576040519150601f19603f3d011682016040523d82523d6000602084013e610ff1565b606091505b50915091506110028783838761100d565b979650505050505050565b6060831561107c578251600003611075576001600160a01b0385163b6110755760405162461bcd60e51b815260206004820152601d60248201527f416464726573733a2063616c6c20746f206e6f6e2d636f6e747261637400000060448201526064016109b2565b5081610f2a565b610f2a83838151156110915781518083602001fd5b8060405162461bcd60e51b81526004016109b291906112e4565b80356001600160a01b03811681146110c257600080fd5b919050565b600080600080608085870312156110dd57600080fd5b6110e6856110ab565b9350602085013592506110fb604086016110ab565b9150611109606086016110ab565b905092959194509250565b60006020828403121561112657600080fd5b61112f826110ab565b9392505050565b6000806040838503121561114957600080fd5b611152836110ab565b9150611160602084016110ab565b90509250929050565b60006020828403121561117b57600080fd5b5035919050565b60008060006060848603121561119757600080fd5b505081359360208301359350604090920135919050565b80151581146108cf57600080fd5b600080604083850312156111cf57600080fd5b6111d8836110ab565b915060208301356111e8816111ae565b809150509250929050565b634e487b7160e01b600052601160045260246000fd5b8082018082111561121c5761121c6111f3565b92915050565b60006020828403121561123457600080fd5b5051919050565b808202811582820484141761121c5761121c6111f3565b60008261126f57634e487b7160e01b600052601260045260246000fd5b500490565b8181038181111561121c5761121c6111f3565b60006020828403121561129957600080fd5b815161112f816111ae565b60005b838110156112bf5781810151838201526020016112a7565b50506000910152565b600082516112da8184602087016112a4565b9190910192915050565b60208152600082518060208401526113038160408501602087016112a4565b601f01601f1916919091016040019291505056fea26469706673582212202508618b867dee79e7dcf7a6a6b12934fc96b8cf8747f79d493df2e841415a9c64736f6c63430008180033",
  "devdoc": {
    "kind": "dev",
    "methods": {
      "owner()": {
        "details": "Returns the address of the current owner."
      },
      "renounceOwnership()": {
        "details": "Leaves the contract without owner. It will not be possible to call `onlyOwner` functions. Can only be called by the current owner. NOTE: Renouncing ownership will leave the contract without an owner, thereby disabling any functionality that is only available to the owner."
      },
      "transferOwnership(address)": {
        "details": "Transfers ownership of the contract to a new account (`newOwner`). Can only be called by the current owner."
      }
    },
    "version": 1
  },
  "userdoc": {
    "kind": "user",
    "methods": {},
    "version": 1
  },
  "storageLayout": {
    "storage": [
      {
        "astId": 7,
        "contract": "src/FeeHandler.sol:FeeHandler",
        "label": "_owner",
        "offset": 0,
        "slot": "0",
        "type": "t_address"
      },
      {
        "astId": 2228,
        "contract": "src/FeeHandler.sol:FeeHandler",
        "label": "vault",
        "offset": 0,
        "slot": "1",
        "type": "t_address"
      },
      {
        "astId": 2230,
        "contract": "src/FeeHandler.sol:FeeHandler",
        "label": "treasury",
        "offset": 0,
        "slot": "2",
        "type": "t_address"
      },
      {
        "astId": 2232,
        "contract": "src/FeeHandler.sol:FeeHandler",
        "label": "primaryToken",
        "offset": 0,
        "slot": "3",
        "type": "t_address"
      },
      {
        "astId": 2234,
        "contract": "src/FeeHandler.sol:FeeHandler",
        "label": "reduction",
        "offset": 0,
        "slot": "4",
        "type": "t_address"
      },
      {
        "astId": 2236,
        "contract": "src/FeeHandler.sol:FeeHandler",
        "label": "beneficiaryPercentage",
        "offset": 0,
        "slot": "5",
        "type": "t_uint256"
      },
      {
        "astId": 2238,
        "contract": "src/FeeHandler.sol:FeeHandler",
        "label": "creatorPercentage",
        "offset": 0,
        "slot": "6",
        "type": "t_uint256"
      },
      {
        "astId": 2240,
        "contract": "src/FeeHandler.sol:FeeHandler",
        "label": "vaultPercentage",
        "offset": 0,
        "slot": "7",
        "type": "t_uint256"
      },
      {
        "astId": 2243,
        "contract": "src/FeeHandler.sol:FeeHandler",
        "label": "primaryTokenDiscount",
        "offset": 0,
        "slot": "8",
        "type": "t_uint256"
      },
      {
        "astId": 2247,
        "contract": "src/FeeHandler.sol:FeeHandler",
        "label": "allowedTokens",
        "offset": 0,
        "slot": "9",
        "type": "t_mapping(t_address,t_bool)"
      }
    ],
    "types": {
      "t_address": {
        "encoding": "inplace",
        "label": "address",
        "numberOfBytes": "20"
      },
      "t_bool": {
        "encoding": "inplace",
        "label": "bool",
        "numberOfBytes": "1"
      },
      "t_mapping(t_address,t_bool)": {
        "encoding": "mapping",
        "key": "t_address",
        "label": "mapping(address => bool)",
        "numberOfBytes": "32",
        "value": "t_bool"
      },
      "t_uint256": {
        "encoding": "inplace",
        "label": "uint256",
        "numberOfBytes": "32"
      }
    }
  }
}