{
  "address": "0xa4F35769F25fde686124894920544515aab8de3A",
  "abi": [
    {
      "inputs": [
        {
          "internalType": "address",
          "name": "_pythOracle",
          "type": "address"
        }
      ],
      "stateMutability": "nonpayable",
      "type": "constructor"
    },
    {
      "inputs": [],
      "name": "NegativePriceNotAllowed",
      "type": "error"
    },
    {
      "inputs": [
        {
          "internalType": "address",
          "name": "token",
          "type": "address"
        }
      ],
      "name": "OracleNotExist",
      "type": "error"
    },
    {
      "anonymous": false,
      "inputs": [
        {
          "indexed": true,
          "internalType": "address",
          "name": "token",
          "type": "address"
        },
        {
          "indexed": false,
          "internalType": "bytes32",
          "name": "oracleID",
          "type": "bytes32"
        }
      ],
      "name": "OracleSet",
      "type": "event"
    },
    {
      "anonymous": false,
      "inputs": [
        {
          "indexed": true,
          "internalType": "address",
          "name": "previousOwner",
          "type": "address"
        },
        {
          "indexed": true,
          "internalType": "address",
          "name": "newOwner",
          "type": "address"
        }
      ],
      "name": "OwnershipTransferred",
      "type": "event"
    },
    {
      "inputs": [
        {
          "internalType": "address",
          "name": "_token",
          "type": "address"
        }
      ],
      "name": "getTokenPrice",
      "outputs": [
        {
          "internalType": "uint256",
          "name": "",
          "type": "uint256"
        }
      ],
      "stateMutability": "view",
      "type": "function"
    },
    {
      "inputs": [
        {
          "internalType": "address",
          "name": "_token",
          "type": "address"
        }
      ],
      "name": "oracleID",
      "outputs": [
        {
          "internalType": "bytes32",
          "name": "",
          "type": "bytes32"
        }
      ],
      "stateMutability": "view",
      "type": "function"
    },
    {
      "inputs": [],
      "name": "owner",
      "outputs": [
        {
          "internalType": "address",
          "name": "",
          "type": "address"
        }
      ],
      "stateMutability": "view",
      "type": "function"
    },
    {
      "inputs": [],
      "name": "renounceOwnership",
      "outputs": [],
      "stateMutability": "nonpayable",
      "type": "function"
    },
    {
      "inputs": [
        {
          "internalType": "address",
          "name": "_token",
          "type": "address"
        },
        {
          "internalType": "bytes32",
          "name": "_oracleID",
          "type": "bytes32"
        }
      ],
      "name": "setOracleID",
      "outputs": [],
      "stateMutability": "nonpayable",
      "type": "function"
    },
    {
      "inputs": [
        {
          "internalType": "address",
          "name": "newOwner",
          "type": "address"
        }
      ],
      "name": "transferOwnership",
      "outputs": [],
      "stateMutability": "nonpayable",
      "type": "function"
    }
  ],
  "transactionHash": "0x078d1d9bc7d9d749fc62f634608918fb2a4aa4158a954210492bbf15b0922c54",
  "args": [
    "0x4374e5a8b9C22271E9EB878A2AA31DE97DF15DAF"
  ],
  "numDeployments": 1,
  "solcInputHash": "4b77b1615366c5fedbc67911183a0195",
  "bytecode": "0x608060405234801561001057600080fd5b5060405161079838038061079883398101604081905261002f916100ad565b6100383361005d565b600180546001600160a01b0319166001600160a01b03929092169190911790556100dd565b600080546001600160a01b038381166001600160a01b0319831681178455604051919092169283917f8be0079c531659141344cd1fd0a4f28419497f9722a3daafe3b4186f6b6457e09190a35050565b6000602082840312156100bf57600080fd5b81516001600160a01b03811681146100d657600080fd5b9392505050565b6106ac806100ec6000396000f3fe608060405234801561001057600080fd5b50600436106100625760003560e01c80635b9dfcfa14610067578063715018a61461007c578063831cf43d146100845780638da5cb5b146100c0578063d02641a0146100db578063f2fde38b146100ee575b600080fd5b61007a61007536600461041d565b610101565b005b61007a610162565b6100ad610092366004610447565b6001600160a01b031660009081526002602052604090205490565b6040519081526020015b60405180910390f35b6000546040516001600160a01b0390911681526020016100b7565b6100ad6100e9366004610447565b610176565b61007a6100fc366004610447565b61024a565b6101096102c3565b6001600160a01b03821660008181526002602052604090819020839055517f0371a930f54882f3e9296d66c96d41e22a3892c17f1ae0482b0761630010813f906101569084815260200190565b60405180910390a25050565b61016a6102c3565b610174600061031d565b565b6001600160a01b038116600090815260026020526040812054806101bd57604051630baf9bfb60e01b81526001600160a01b03841660048201526024015b60405180910390fd5b6001546040516396834ad360e01b8152600481018390526000916001600160a01b0316906396834ad390602401608060405180830381865afa158015610207573d6000803e3d6000fd5b505050506040513d601f19601f8201168201806040525081019061022b9190610493565b9050610242816000015160070b826040015161036d565b949350505050565b6102526102c3565b6001600160a01b0381166102b75760405162461bcd60e51b815260206004820152602660248201527f4f776e61626c653a206e6577206f776e657220697320746865207a65726f206160448201526564647265737360d01b60648201526084016101b4565b6102c08161031d565b50565b6000546001600160a01b031633146101745760405162461bcd60e51b815260206004820181905260248201527f4f776e61626c653a2063616c6c6572206973206e6f7420746865206f776e657260448201526064016101b4565b600080546001600160a01b038381166001600160a01b0319831681178455604051919092169283917f8be0079c531659141344cd1fd0a4f28419497f9722a3daafe3b4186f6b6457e09190a35050565b60008083121561039057604051632919491b60e01b815260040160405180910390fd5b600061039b83610539565b63ffffffff1690506011198360030b136103d7576103ba60128261055c565b6103c590600a610653565b6103cf908561065f565b9150506103fb565b6103e281601261055c565b6103ed90600a610653565b6103f7908561065f565b9150505b92915050565b80356001600160a01b038116811461041857600080fd5b919050565b6000806040838503121561043057600080fd5b61043983610401565b946020939093013593505050565b60006020828403121561045957600080fd5b61046282610401565b9392505050565b805167ffffffffffffffff8116811461041857600080fd5b8051600381900b811461041857600080fd5b6000608082840312156104a557600080fd5b6040516080810181811067ffffffffffffffff821117156104d657634e487b7160e01b600052604160045260246000fd5b6040528251600781900b81146104eb57600080fd5b81526104f960208401610469565b602082015261050a60408401610481565b6040820152606083015160608201528091505092915050565b634e487b7160e01b600052601160045260246000fd5b60008160030b637fffffff19810361055357610553610523565b60000392915050565b818103818111156103fb576103fb610523565b600181815b808511156105aa57816000190482111561059057610590610523565b8085161561059d57918102915b93841c9390800290610574565b509250929050565b6000826105c1575060016103fb565b816105ce575060006103fb565b81600181146105e457600281146105ee5761060a565b60019150506103fb565b60ff8411156105ff576105ff610523565b50506001821b6103fb565b5060208310610133831016604e8410600b841016171561062d575081810a6103fb565b610637838361056f565b806000190482111561064b5761064b610523565b029392505050565b600061046283836105b2565b80820281158282048414176103fb576103fb61052356fea26469706673582212204c63fbb91b9f3ffae52a60bd27e3ca3eb1a2173575c75426fefe6f98775f8ffd64736f6c63430008180033",
  "devdoc": {
    "kind": "dev",
    "methods": {
      "owner()": {
        "details": "Returns the address of the current owner."
      },
      "renounceOwnership()": {
        "details": "Leaves the contract without owner. It will not be possible to call `onlyOwner` functions. Can only be called by the current owner. NOTE: Renouncing ownership will leave the contract without an owner, thereby disabling any functionality that is only available to the owner."
      },
      "transferOwnership(address)": {
        "details": "Transfers ownership of the contract to a new account (`newOwner`). Can only be called by the current owner."
      }
    },
    "version": 1
  },
  "userdoc": {
    "kind": "user",
    "methods": {},
    "version": 1
  },
  "storageLayout": {
    "storage": [
      {
        "astId": 1262,
        "contract": "src/PriceOracle.sol:PriceOracle",
        "label": "_owner",
        "offset": 0,
        "slot": "0",
        "type": "t_address"
      },
      {
        "astId": 5336,
        "contract": "src/PriceOracle.sol:PriceOracle",
        "label": "pythOracle",
        "offset": 0,
        "slot": "1",
        "type": "t_contract(IPyth)2934"
      },
      {
        "astId": 5340,
        "contract": "src/PriceOracle.sol:PriceOracle",
        "label": "oracleIDs",
        "offset": 0,
        "slot": "2",
        "type": "t_mapping(t_address,t_bytes32)"
      }
    ],
    "types": {
      "t_address": {
        "encoding": "inplace",
        "label": "address",
        "numberOfBytes": "20"
      },
      "t_bytes32": {
        "encoding": "inplace",
        "label": "bytes32",
        "numberOfBytes": "32"
      },
      "t_contract(IPyth)2934": {
        "encoding": "inplace",
        "label": "contract IPyth",
        "numberOfBytes": "20"
      },
      "t_mapping(t_address,t_bytes32)": {
        "encoding": "mapping",
        "key": "t_address",
        "label": "mapping(address => bytes32)",
        "numberOfBytes": "32",
        "value": "t_bytes32"
      }
    }
  }
}