{
  "address": "0x611cff612D70088428E37D87a1F5BD8Fbb61233A",
  "abi": [
    {
      "inputs": [],
      "name": "BaseCondition__ConditionAlreadyExist",
      "type": "error"
    },
    {
      "inputs": [],
      "name": "BaseCondition__ConditionDoesNotExist",
      "type": "error"
    },
    {
      "inputs": [],
      "name": "BaseCondition__ConditionIsInUse",
      "type": "error"
    },
    {
      "inputs": [],
      "name": "TimeCondition__ConditionsIsNotUpdateable",
      "type": "error"
    },
    {
      "inputs": [],
      "name": "TimeCondition__DeltaNotValid",
      "type": "error"
    },
    {
      "inputs": [],
      "name": "TimeCondition__ExecutionTimeNotValid",
      "type": "error"
    },
    {
      "anonymous": false,
      "inputs": [
        {
          "indexed": false,
          "internalType": "uint32",
          "name": "id",
          "type": "uint32"
        },
        {
          "indexed": false,
          "internalType": "address",
          "name": "wallet",
          "type": "address"
        },
        {
          "components": [
            {
              "internalType": "uint256",
              "name": "execution",
              "type": "uint256"
            },
            {
              "internalType": "uint256",
              "name": "delta",
              "type": "uint256"
            },
            {
              "internalType": "bool",
              "name": "updateable",
              "type": "bool"
            }
          ],
          "indexed": false,
          "internalType": "struct TimeCondition.Condition",
          "name": "condition",
          "type": "tuple"
        }
      ],
      "name": "ConditionAdded",
      "type": "event"
    },
    {
      "anonymous": false,
      "inputs": [
        {
          "indexed": false,
          "internalType": "uint32",
          "name": "id",
          "type": "uint32"
        },
        {
          "indexed": false,
          "internalType": "address",
          "name": "wallet",
          "type": "address"
        }
      ],
      "name": "ConditionDeleted",
      "type": "event"
    },
    {
      "anonymous": false,
      "inputs": [
        {
          "indexed": false,
          "internalType": "uint32",
          "name": "id",
          "type": "uint32"
        },
        {
          "indexed": false,
          "internalType": "address",
          "name": "wallet",
          "type": "address"
        },
        {
          "indexed": false,
          "internalType": "uint256",
          "name": "newExecution",
          "type": "uint256"
        }
      ],
      "name": "ConditionUpdated",
      "type": "event"
    },
    {
      "inputs": [
        {
          "internalType": "address",
          "name": "wallet",
          "type": "address"
        },
        {
          "internalType": "uint32",
          "name": "id",
          "type": "uint32"
        },
        {
          "internalType": "uint32",
          "name": "action",
          "type": "uint32"
        }
      ],
      "name": "actionValid",
      "outputs": [
        {
          "internalType": "bool",
          "name": "",
          "type": "bool"
        }
      ],
      "stateMutability": "view",
      "type": "function"
    },
    {
      "inputs": [
        {
          "internalType": "uint32",
          "name": "id",
          "type": "uint32"
        },
        {
          "internalType": "uint32",
          "name": "action",
          "type": "uint32"
        }
      ],
      "name": "addAutomationToCondition",
      "outputs": [
        {
          "internalType": "bool",
          "name": "",
          "type": "bool"
        }
      ],
      "stateMutability": "nonpayable",
      "type": "function"
    },
    {
      "inputs": [
        {
          "internalType": "uint32",
          "name": "_id",
          "type": "uint32"
        },
        {
          "components": [
            {
              "internalType": "uint256",
              "name": "execution",
              "type": "uint256"
            },
            {
              "internalType": "uint256",
              "name": "delta",
              "type": "uint256"
            },
            {
              "internalType": "bool",
              "name": "updateable",
              "type": "bool"
            }
          ],
          "internalType": "struct TimeCondition.Condition",
          "name": "_condition",
          "type": "tuple"
        }
      ],
      "name": "addCondition",
      "outputs": [],
      "stateMutability": "nonpayable",
      "type": "function"
    },
    {
      "inputs": [
        {
          "internalType": "uint32",
          "name": "id",
          "type": "uint32"
        },
        {
          "internalType": "uint32",
          "name": "strategy",
          "type": "uint32"
        }
      ],
      "name": "addStrategyToCondition",
      "outputs": [
        {
          "internalType": "bool",
          "name": "",
          "type": "bool"
        }
      ],
      "stateMutability": "nonpayable",
      "type": "function"
    },
    {
      "inputs": [
        {
          "internalType": "address",
          "name": "wallet",
          "type": "address"
        },
        {
          "internalType": "uint32",
          "name": "id",
          "type": "uint32"
        }
      ],
      "name": "automations",
      "outputs": [
        {
          "internalType": "uint32[]",
          "name": "",
          "type": "uint32[]"
        }
      ],
      "stateMutability": "view",
      "type": "function"
    },
    {
      "inputs": [
        {
          "internalType": "address",
          "name": "_wallet",
          "type": "address"
        },
        {
          "internalType": "uint32",
          "name": "_id",
          "type": "uint32"
        }
      ],
      "name": "checkCondition",
      "outputs": [
        {
          "internalType": "uint8",
          "name": "",
          "type": "uint8"
        }
      ],
      "stateMutability": "view",
      "type": "function"
    },
    {
      "inputs": [
        {
          "internalType": "address",
          "name": "_wallet",
          "type": "address"
        },
        {
          "internalType": "uint32",
          "name": "_id",
          "type": "uint32"
        }
      ],
      "name": "conditionActive",
      "outputs": [
        {
          "internalType": "bool",
          "name": "",
          "type": "bool"
        }
      ],
      "stateMutability": "view",
      "type": "function"
    },
    {
      "inputs": [
        {
          "internalType": "uint32",
          "name": "_id",
          "type": "uint32"
        }
      ],
      "name": "deleteCondition",
      "outputs": [],
      "stateMutability": "nonpayable",
      "type": "function"
    },
    {
      "inputs": [
        {
          "internalType": "address",
          "name": "_wallet",
          "type": "address"
        },
        {
          "internalType": "uint32",
          "name": "_id",
          "type": "uint32"
        }
      ],
      "name": "isUpdateable",
      "outputs": [
        {
          "internalType": "bool",
          "name": "",
          "type": "bool"
        }
      ],
      "stateMutability": "view",
      "type": "function"
    },
    {
      "inputs": [
        {
          "internalType": "uint32",
          "name": "id",
          "type": "uint32"
        },
        {
          "internalType": "uint32",
          "name": "automation",
          "type": "uint32"
        }
      ],
      "name": "removeAutomationFromCondition",
      "outputs": [
        {
          "internalType": "bool",
          "name": "",
          "type": "bool"
        }
      ],
      "stateMutability": "nonpayable",
      "type": "function"
    },
    {
      "inputs": [
        {
          "internalType": "uint32",
          "name": "id",
          "type": "uint32"
        },
        {
          "internalType": "uint32",
          "name": "strategy",
          "type": "uint32"
        }
      ],
      "name": "removeStrategyFromCondition",
      "outputs": [
        {
          "internalType": "bool",
          "name": "",
          "type": "bool"
        }
      ],
      "stateMutability": "nonpayable",
      "type": "function"
    },
    {
      "inputs": [
        {
          "internalType": "address",
          "name": "wallet",
          "type": "address"
        },
        {
          "internalType": "uint32",
          "name": "id",
          "type": "uint32"
        }
      ],
      "name": "strategies",
      "outputs": [
        {
          "internalType": "uint32[]",
          "name": "",
          "type": "uint32[]"
        }
      ],
      "stateMutability": "view",
      "type": "function"
    },
    {
      "inputs": [
        {
          "internalType": "address",
          "name": "wallet",
          "type": "address"
        },
        {
          "internalType": "uint32",
          "name": "id",
          "type": "uint32"
        },
        {
          "internalType": "uint32",
          "name": "strategy",
          "type": "uint32"
        }
      ],
      "name": "strategyValid",
      "outputs": [
        {
          "internalType": "bool",
          "name": "",
          "type": "bool"
        }
      ],
      "stateMutability": "view",
      "type": "function"
    },
    {
      "inputs": [
        {
          "internalType": "uint32",
          "name": "_id",
          "type": "uint32"
        }
      ],
      "name": "updateCondition",
      "outputs": [
        {
          "internalType": "bool",
          "name": "",
          "type": "bool"
        }
      ],
      "stateMutability": "nonpayable",
      "type": "function"
    },
    {
      "inputs": [
        {
          "internalType": "address",
          "name": "_wallet",
          "type": "address"
        },
        {
          "internalType": "uint32",
          "name": "_id",
          "type": "uint32"
        }
      ],
      "name": "walletCondition",
      "outputs": [
        {
          "components": [
            {
              "internalType": "uint256",
              "name": "execution",
              "type": "uint256"
            },
            {
              "internalType": "uint256",
              "name": "delta",
              "type": "uint256"
            },
            {
              "internalType": "bool",
              "name": "updateable",
              "type": "bool"
            }
          ],
          "internalType": "struct TimeCondition.Condition",
          "name": "",
          "type": "tuple"
        }
      ],
      "stateMutability": "view",
      "type": "function"
    }
  ],
  "transactionHash": "0xc06a6f4fa1a776099bc2cffa1e584c867ac605a0e4606e3ac384a7f83de76748",
  "args": [],
  "numDeployments": 2,
  "solcInputHash": "4551690f4f7604e58350f88719902af8",
  "bytecode": "0x608060405234801561001057600080fd5b50610f36806100206000396000f3fe608060405234801561001057600080fd5b50600436106100f55760003560e01c806357182cae11610097578063cff8364011610066578063cff8364014610286578063e5012fb414610299578063eec93dd0146102ac578063fff5cf19146102bf57600080fd5b806357182cae146101d35780636f2b9aff1461021757806389a78a031461024e5780638a4914c21461027357600080fd5b80631245f298116100d35780631245f2981461014a57806314b0af701461015d578063384c879d146101705780633dc9bd441461019057600080fd5b8063023ef5a9146100fa57806303d049bb1461012257806310bdddc814610135575b600080fd5b61010d610108366004610cb8565b610302565b60405190151581526020015b60405180910390f35b61010d610130366004610ceb565b6103a6565b610148610143366004610d06565b6104e4565b005b610148610158366004610ceb565b6105c7565b61010d61016b366004610cb8565b61066d565b61018361017e366004610d5c565b61080b565b6040516101199190610d78565b61010d61019e366004610dc2565b6001600160a01b0392909216600090815260036020908152604080832063ffffffff9586168452909152902054821691161490565b61010d6101e1366004610d5c565b6001600160a01b038216600090815260046020908152604080832063ffffffff8516845290915290206002015460ff1692915050565b61022a610225366004610d5c565b6108b2565b60408051825181526020808401519082015291810151151590820152606001610119565b61026161025c366004610d5c565b610931565b60405160ff9091168152602001610119565b61010d610281366004610cb8565b6109b2565b61010d610294366004610d5c565b610ad2565b61010d6102a7366004610cb8565b610ae5565b6101836102ba366004610d5c565b610b84565b61010d6102cd366004610dc2565b6001600160a01b0392909216600090815260026020908152604080832063ffffffff9586168452909152902054821691161490565b33600090815260016020818152604080842063ffffffff878116808752918452918520805480860182558187529386206008850401805460079095166004026101000a808502199095169388169490940292909217909255908352546103689190610e1b565b33600090815260036020908152604080832063ffffffff87811685529252909120805463ffffffff1916929091169190911790555060015b92915050565b6000816103b33382610c01565b6103d057604051630453eefd60e11b815260040160405180910390fd5b33600090815260046020908152604080832063ffffffff871684528252918290208251606081018452815480825260018301549382019390935260029091015460ff1615159281019290925242101561043c57604051635b2c6ddd60e01b815260040160405180910390fd5b602081015181518290610450908390610e2e565b90525033600081815260046020908152604080832063ffffffff8916808552908352928190208551808255868401516001830155868301516002909201805460ff1916921515929092179091558151938452918301939093528183015290517f4512841be653bcd6562897298746e2d671f964036bf8fc1342f86ecabe30d331916060908290030190a15060019392505050565b816104ef3382610c01565b1561050d5760405163217deb7360e21b815260040160405180910390fd5b81428135101561053057604051633cb342e560e21b815260040160405180910390fd5b610e10816020013510156105575760405163039872d160e21b815260040160405180910390fd5b33600090815260046020908152604080832063ffffffff88168452909152902083906105838282610e4f565b9050507fb426363a4b10243595274732519e5a718e5fd0cfbfc6d4adac581cff27b3c2d78433856040516105b993929190610e85565b60405180910390a150505050565b806105d23382610c01565b6105ef57604051630453eefd60e11b815260040160405180910390fd5b6105f882610c33565b33600081815260046020908152604080832063ffffffff871680855290835281842084815560018101949094556002909301805460ff191690558051928352908201929092527f9c33cb453d76063bb338c509094bd32900fe4a7e3ccbb52ef947618994a4a6c3910160405180910390a15050565b3360008181526020818152604080832063ffffffff8088168552908352818420948452600283528184208682168086529352908320548454939493911691908390839081106106be576106be610ed4565b6000918252602090912060088204015460079091166004026101000a900463ffffffff16146106f2576000925050506103a0565b815460009061070390600190610e1b565b90508163ffffffff1681146107c057600083828154811061072657610726610ed4565b6000918252602080832060088304015433845260028252604080852060079094166004026101000a90910463ffffffff90811680865293909252909220805463ffffffff19169286169283179055855490925082918691811061078b5761078b610ed4565b90600052602060002090600891828204019190066004026101000a81548163ffffffff021916908363ffffffff160217905550505b828054806107d0576107d0610eea565b600082815260209020600860001990920191820401805463ffffffff600460078516026101000a021916905590555060019250505092915050565b6001600160a01b038216600090815260016020908152604080832063ffffffff851684528252918290208054835181840281018401909452808452606093928301828280156108a557602002820191906000526020600020906000905b82829054906101000a900463ffffffff1663ffffffff16815260200190600401906020826003010492830192600103820291508084116108685790505b5050505050905092915050565b6108d8604051806060016040528060008152602001600081526020016000151581525090565b506001600160a01b038216600090815260046020908152604080832063ffffffff851684528252918290208251606081018452815481526001820154928101929092526002015460ff1615159181019190915292915050565b6001600160a01b038216600090815260046020908152604080832063ffffffff8516845282528083208151606081018352815480825260018301549482019490945260029091015460ff161515918101919091529082036109965760009150506103a0565b805142106109a85760019150506103a0565b60009150506103a0565b33600081815260016020908152604080832063ffffffff808816855290835281842094845260038352818420868216808652935290832054845493949391169190839083908110610a0557610a05610ed4565b6000918252602090912060088204015460079091166004026101000a900463ffffffff1614610a39576000925050506103a0565b8154600090610a4a90600190610e1b565b90508163ffffffff1681146107c0576000838281548110610a6d57610a6d610ed4565b6000918252602080832060088304015433845260038252604080852060079094166004026101000a90910463ffffffff90811680865293909252909220805463ffffffff19169286169283179055855490925082918691811061078b5761078b610ed4565b6000610ade8383610c01565b9392505050565b3360009081526020818152604080832063ffffffff8681168086529184529184208054600180820183558287529486206008820401805460079092166004026101000a808602199092169488169190910293909317909255835254610b4a9190610e1b565b33600090815260026020908152604080832063ffffffff96871684529091529020805463ffffffff19169190931617909155506001919050565b6001600160a01b03821660009081526020818152604080832063ffffffff851684528252918290208054835181840281018401909452808452606093928301828280156108a5576000918252602091829020805463ffffffff16845290820283019290916004910180841161086857509498975050505050505050565b6001600160a01b038216600090815260046020908152604080832063ffffffff85168452909152902054151592915050565b33600090815260016020908152604080832063ffffffff85168452909152902054151580610c7e57503360009081526020818152604080832063ffffffff8516845290915290205415155b15610c9c5760405163846e233f60e01b815260040160405180910390fd5b50565b803563ffffffff81168114610cb357600080fd5b919050565b60008060408385031215610ccb57600080fd5b610cd483610c9f565b9150610ce260208401610c9f565b90509250929050565b600060208284031215610cfd57600080fd5b610ade82610c9f565b6000808284036080811215610d1a57600080fd5b610d2384610c9f565b92506060601f1982011215610d3757600080fd5b506020830190509250929050565b80356001600160a01b0381168114610cb357600080fd5b60008060408385031215610d6f57600080fd5b610cd483610d45565b6020808252825182820181905260009190848201906040850190845b81811015610db657835163ffffffff1683529284019291840191600101610d94565b50909695505050505050565b600080600060608486031215610dd757600080fd5b610de084610d45565b9250610dee60208501610c9f565b9150610dfc60408501610c9f565b90509250925092565b634e487b7160e01b600052601160045260246000fd5b818103818111156103a0576103a0610e05565b808201808211156103a0576103a0610e05565b8015158114610c9c57600080fd5b8135815560208201356001820155600281016040830135610e6f81610e41565b815490151560ff1660ff19919091161790555050565b600060a08201905063ffffffff8516825260018060a01b038416602083015282356040830152602083013560608301526040830135610ec381610e41565b801515608084015250949350505050565b634e487b7160e01b600052603260045260246000fd5b634e487b7160e01b600052603160045260246000fdfea264697066735822122071d419d08efbb55b98645b34a635d17df456c3a69f890bfa743a9cfa73971a5d64736f6c63430008180033",
  "devdoc": {
    "kind": "dev",
    "methods": {},
    "version": 1
  },
  "userdoc": {
    "kind": "user",
    "methods": {},
    "version": 1
  },
  "storageLayout": {
    "storage": [
      {
        "astId": 11486,
        "contract": "src/condition/TimeCondition.sol:TimeCondition",
        "label": "conditionStrategies",
        "offset": 0,
        "slot": "0",
        "type": "t_mapping(t_address,t_mapping(t_uint32,t_array(t_uint32)dyn_storage))"
      },
      {
        "astId": 11493,
        "contract": "src/condition/TimeCondition.sol:TimeCondition",
        "label": "conditionAutomations",
        "offset": 0,
        "slot": "1",
        "type": "t_mapping(t_address,t_mapping(t_uint32,t_array(t_uint32)dyn_storage))"
      },
      {
        "astId": 11499,
        "contract": "src/condition/TimeCondition.sol:TimeCondition",
        "label": "strategyConditionIndex",
        "offset": 0,
        "slot": "2",
        "type": "t_mapping(t_address,t_mapping(t_uint32,t_uint32))"
      },
      {
        "astId": 11505,
        "contract": "src/condition/TimeCondition.sol:TimeCondition",
        "label": "automationConditionIndex",
        "offset": 0,
        "slot": "3",
        "type": "t_mapping(t_address,t_mapping(t_uint32,t_uint32))"
      },
      {
        "astId": 11977,
        "contract": "src/condition/TimeCondition.sol:TimeCondition",
        "label": "conditions",
        "offset": 0,
        "slot": "4",
        "type": "t_mapping(t_address,t_mapping(t_uint32,t_struct(Condition)11970_storage))"
      }
    ],
    "types": {
      "t_address": {
        "encoding": "inplace",
        "label": "address",
        "numberOfBytes": "20"
      },
      "t_array(t_uint32)dyn_storage": {
        "base": "t_uint32",
        "encoding": "dynamic_array",
        "label": "uint32[]",
        "numberOfBytes": "32"
      },
      "t_bool": {
        "encoding": "inplace",
        "label": "bool",
        "numberOfBytes": "1"
      },
      "t_mapping(t_address,t_mapping(t_uint32,t_array(t_uint32)dyn_storage))": {
        "encoding": "mapping",
        "key": "t_address",
        "label": "mapping(address => mapping(uint32 => uint32[]))",
        "numberOfBytes": "32",
        "value": "t_mapping(t_uint32,t_array(t_uint32)dyn_storage)"
      },
      "t_mapping(t_address,t_mapping(t_uint32,t_struct(Condition)11970_storage))": {
        "encoding": "mapping",
        "key": "t_address",
        "label": "mapping(address => mapping(uint32 => struct TimeCondition.Condition))",
        "numberOfBytes": "32",
        "value": "t_mapping(t_uint32,t_struct(Condition)11970_storage)"
      },
      "t_mapping(t_address,t_mapping(t_uint32,t_uint32))": {
        "encoding": "mapping",
        "key": "t_address",
        "label": "mapping(address => mapping(uint32 => uint32))",
        "numberOfBytes": "32",
        "value": "t_mapping(t_uint32,t_uint32)"
      },
      "t_mapping(t_uint32,t_array(t_uint32)dyn_storage)": {
        "encoding": "mapping",
        "key": "t_uint32",
        "label": "mapping(uint32 => uint32[])",
        "numberOfBytes": "32",
        "value": "t_array(t_uint32)dyn_storage"
      },
      "t_mapping(t_uint32,t_struct(Condition)11970_storage)": {
        "encoding": "mapping",
        "key": "t_uint32",
        "label": "mapping(uint32 => struct TimeCondition.Condition)",
        "numberOfBytes": "32",
        "value": "t_struct(Condition)11970_storage"
      },
      "t_mapping(t_uint32,t_uint32)": {
        "encoding": "mapping",
        "key": "t_uint32",
        "label": "mapping(uint32 => uint32)",
        "numberOfBytes": "32",
        "value": "t_uint32"
      },
      "t_struct(Condition)11970_storage": {
        "encoding": "inplace",
        "label": "struct TimeCondition.Condition",
        "members": [
          {
            "astId": 11965,
            "contract": "src/condition/TimeCondition.sol:TimeCondition",
            "label": "execution",
            "offset": 0,
            "slot": "0",
            "type": "t_uint256"
          },
          {
            "astId": 11967,
            "contract": "src/condition/TimeCondition.sol:TimeCondition",
            "label": "delta",
            "offset": 0,
            "slot": "1",
            "type": "t_uint256"
          },
          {
            "astId": 11969,
            "contract": "src/condition/TimeCondition.sol:TimeCondition",
            "label": "updateable",
            "offset": 0,
            "slot": "2",
            "type": "t_bool"
          }
        ],
        "numberOfBytes": "96"
      },
      "t_uint256": {
        "encoding": "inplace",
        "label": "uint256",
        "numberOfBytes": "32"
      },
      "t_uint32": {
        "encoding": "inplace",
        "label": "uint32",
        "numberOfBytes": "4"
      }
    }
  }
}