{
  "address": "0x55174023F0BC7099A6899f6946191C01075685b3",
  "abi": [
    {
      "inputs": [
        {
          "internalType": "address",
          "name": "_router",
          "type": "address"
        }
      ],
      "stateMutability": "nonpayable",
      "type": "constructor"
    },
    {
      "inputs": [],
      "name": "FailedToApproveTokens",
      "type": "error"
    },
    {
      "inputs": [],
      "name": "InvalidTokenGetterID",
      "type": "error"
    },
    {
      "inputs": [],
      "name": "NoValidPercentageAmount",
      "type": "error"
    },
    {
      "inputs": [],
      "name": "NoZeroAmountValid",
      "type": "error"
    },
    {
      "inputs": [],
      "name": "NotZeroAmountForBothTokensAllowed",
      "type": "error"
    },
    {
      "inputs": [],
      "name": "PoolPairDoesNotExist",
      "type": "error"
    },
    {
      "inputs": [],
      "name": "DELTA_DEADLINE",
      "outputs": [
        {
          "internalType": "uint256",
          "name": "",
          "type": "uint256"
        }
      ],
      "stateMutability": "view",
      "type": "function"
    },
    {
      "inputs": [],
      "name": "PERCENTAGE_FACTOR",
      "outputs": [
        {
          "internalType": "uint256",
          "name": "",
          "type": "uint256"
        }
      ],
      "stateMutability": "view",
      "type": "function"
    },
    {
      "inputs": [],
      "name": "WETH",
      "outputs": [
        {
          "internalType": "address",
          "name": "",
          "type": "address"
        }
      ],
      "stateMutability": "view",
      "type": "function"
    },
    {
      "inputs": [
        {
          "internalType": "uint256",
          "name": "r",
          "type": "uint256"
        },
        {
          "internalType": "uint256",
          "name": "a",
          "type": "uint256"
        }
      ],
      "name": "_getSwapAmount",
      "outputs": [
        {
          "internalType": "uint256",
          "name": "",
          "type": "uint256"
        }
      ],
      "stateMutability": "pure",
      "type": "function"
    },
    {
      "inputs": [],
      "name": "factory",
      "outputs": [
        {
          "internalType": "address",
          "name": "",
          "type": "address"
        }
      ],
      "stateMutability": "view",
      "type": "function"
    },
    {
      "inputs": [
        {
          "internalType": "bytes4",
          "name": "selector",
          "type": "bytes4"
        },
        {
          "internalType": "bytes",
          "name": "params",
          "type": "bytes"
        }
      ],
      "name": "getTokenForSelector",
      "outputs": [
        {
          "internalType": "address",
          "name": "",
          "type": "address"
        }
      ],
      "stateMutability": "view",
      "type": "function"
    },
    {
      "inputs": [],
      "name": "router",
      "outputs": [
        {
          "internalType": "address",
          "name": "",
          "type": "address"
        }
      ],
      "stateMutability": "view",
      "type": "function"
    },
    {
      "inputs": [
        {
          "internalType": "uint256",
          "name": "amountOut",
          "type": "uint256"
        },
        {
          "internalType": "uint256",
          "name": "amountInMax",
          "type": "uint256"
        },
        {
          "internalType": "address[]",
          "name": "path",
          "type": "address[]"
        },
        {
          "internalType": "address",
          "name": "to",
          "type": "address"
        }
      ],
      "name": "swapETHForExactTokens",
      "outputs": [
        {
          "components": [
            {
              "internalType": "address",
              "name": "target",
              "type": "address"
            },
            {
              "internalType": "uint256",
              "name": "value",
              "type": "uint256"
            },
            {
              "internalType": "bytes",
              "name": "data",
              "type": "bytes"
            }
          ],
          "internalType": "struct IAction.PluginExecution[]",
          "name": "",
          "type": "tuple[]"
        }
      ],
      "stateMutability": "view",
      "type": "function"
    },
    {
      "inputs": [
        {
          "internalType": "uint256",
          "name": "amountIn",
          "type": "uint256"
        },
        {
          "internalType": "uint256",
          "name": "amountOutMin",
          "type": "uint256"
        },
        {
          "internalType": "address[]",
          "name": "path",
          "type": "address[]"
        },
        {
          "internalType": "address",
          "name": "to",
          "type": "address"
        }
      ],
      "name": "swapExactETHForTokens",
      "outputs": [
        {
          "components": [
            {
              "internalType": "address",
              "name": "target",
              "type": "address"
            },
            {
              "internalType": "uint256",
              "name": "value",
              "type": "uint256"
            },
            {
              "internalType": "bytes",
              "name": "data",
              "type": "bytes"
            }
          ],
          "internalType": "struct IAction.PluginExecution[]",
          "name": "",
          "type": "tuple[]"
        }
      ],
      "stateMutability": "view",
      "type": "function"
    },
    {
      "inputs": [
        {
          "internalType": "uint256",
          "name": "amountIn",
          "type": "uint256"
        },
        {
          "internalType": "uint256",
          "name": "amountOutMin",
          "type": "uint256"
        },
        {
          "internalType": "address[]",
          "name": "path",
          "type": "address[]"
        },
        {
          "internalType": "address",
          "name": "to",
          "type": "address"
        }
      ],
      "name": "swapExactTokensForETH",
      "outputs": [
        {
          "components": [
            {
              "internalType": "address",
              "name": "target",
              "type": "address"
            },
            {
              "internalType": "uint256",
              "name": "value",
              "type": "uint256"
            },
            {
              "internalType": "bytes",
              "name": "data",
              "type": "bytes"
            }
          ],
          "internalType": "struct IAction.PluginExecution[]",
          "name": "",
          "type": "tuple[]"
        }
      ],
      "stateMutability": "view",
      "type": "function"
    },
    {
      "inputs": [
        {
          "internalType": "uint256",
          "name": "amountIn",
          "type": "uint256"
        },
        {
          "internalType": "uint256",
          "name": "amountOutMin",
          "type": "uint256"
        },
        {
          "internalType": "address[]",
          "name": "path",
          "type": "address[]"
        },
        {
          "internalType": "address",
          "name": "to",
          "type": "address"
        }
      ],
      "name": "swapExactTokensForTokens",
      "outputs": [
        {
          "components": [
            {
              "internalType": "address",
              "name": "target",
              "type": "address"
            },
            {
              "internalType": "uint256",
              "name": "value",
              "type": "uint256"
            },
            {
              "internalType": "bytes",
              "name": "data",
              "type": "bytes"
            }
          ],
          "internalType": "struct IAction.PluginExecution[]",
          "name": "",
          "type": "tuple[]"
        }
      ],
      "stateMutability": "view",
      "type": "function"
    },
    {
      "inputs": [
        {
          "internalType": "uint256",
          "name": "percentage",
          "type": "uint256"
        },
        {
          "internalType": "address[]",
          "name": "path",
          "type": "address[]"
        },
        {
          "internalType": "address",
          "name": "to",
          "type": "address"
        }
      ],
      "name": "swapPercentageETHForTokens",
      "outputs": [
        {
          "components": [
            {
              "internalType": "address",
              "name": "target",
              "type": "address"
            },
            {
              "internalType": "uint256",
              "name": "value",
              "type": "uint256"
            },
            {
              "internalType": "bytes",
              "name": "data",
              "type": "bytes"
            }
          ],
          "internalType": "struct IAction.PluginExecution[]",
          "name": "",
          "type": "tuple[]"
        }
      ],
      "stateMutability": "view",
      "type": "function"
    },
    {
      "inputs": [
        {
          "internalType": "uint256",
          "name": "percentage",
          "type": "uint256"
        },
        {
          "internalType": "address[]",
          "name": "path",
          "type": "address[]"
        },
        {
          "internalType": "address",
          "name": "to",
          "type": "address"
        }
      ],
      "name": "swapPercentageTokensForETH",
      "outputs": [
        {
          "components": [
            {
              "internalType": "address",
              "name": "target",
              "type": "address"
            },
            {
              "internalType": "uint256",
              "name": "value",
              "type": "uint256"
            },
            {
              "internalType": "bytes",
              "name": "data",
              "type": "bytes"
            }
          ],
          "internalType": "struct IAction.PluginExecution[]",
          "name": "",
          "type": "tuple[]"
        }
      ],
      "stateMutability": "view",
      "type": "function"
    },
    {
      "inputs": [
        {
          "internalType": "uint256",
          "name": "percentage",
          "type": "uint256"
        },
        {
          "internalType": "address[]",
          "name": "path",
          "type": "address[]"
        },
        {
          "internalType": "address",
          "name": "to",
          "type": "address"
        }
      ],
      "name": "swapPercentageTokensForTokens",
      "outputs": [
        {
          "components": [
            {
              "internalType": "address",
              "name": "target",
              "type": "address"
            },
            {
              "internalType": "uint256",
              "name": "value",
              "type": "uint256"
            },
            {
              "internalType": "bytes",
              "name": "data",
              "type": "bytes"
            }
          ],
          "internalType": "struct IAction.PluginExecution[]",
          "name": "",
          "type": "tuple[]"
        }
      ],
      "stateMutability": "view",
      "type": "function"
    },
    {
      "inputs": [
        {
          "internalType": "uint256",
          "name": "amountOut",
          "type": "uint256"
        },
        {
          "internalType": "uint256",
          "name": "amountInMax",
          "type": "uint256"
        },
        {
          "internalType": "address[]",
          "name": "path",
          "type": "address[]"
        },
        {
          "internalType": "address",
          "name": "to",
          "type": "address"
        }
      ],
      "name": "swapTokensForExactETH",
      "outputs": [
        {
          "components": [
            {
              "internalType": "address",
              "name": "target",
              "type": "address"
            },
            {
              "internalType": "uint256",
              "name": "value",
              "type": "uint256"
            },
            {
              "internalType": "bytes",
              "name": "data",
              "type": "bytes"
            }
          ],
          "internalType": "struct IAction.PluginExecution[]",
          "name": "",
          "type": "tuple[]"
        }
      ],
      "stateMutability": "view",
      "type": "function"
    },
    {
      "inputs": [
        {
          "internalType": "uint256",
          "name": "amountOut",
          "type": "uint256"
        },
        {
          "internalType": "uint256",
          "name": "amountInMax",
          "type": "uint256"
        },
        {
          "internalType": "address[]",
          "name": "path",
          "type": "address[]"
        },
        {
          "internalType": "address",
          "name": "to",
          "type": "address"
        }
      ],
      "name": "swapTokensForExactTokens",
      "outputs": [
        {
          "components": [
            {
              "internalType": "address",
              "name": "target",
              "type": "address"
            },
            {
              "internalType": "uint256",
              "name": "value",
              "type": "uint256"
            },
            {
              "internalType": "bytes",
              "name": "data",
              "type": "bytes"
            }
          ],
          "internalType": "struct IAction.PluginExecution[]",
          "name": "",
          "type": "tuple[]"
        }
      ],
      "stateMutability": "view",
      "type": "function"
    },
    {
      "inputs": [
        {
          "internalType": "bytes4",
          "name": "",
          "type": "bytes4"
        }
      ],
      "name": "tokenGetterIDs",
      "outputs": [
        {
          "internalType": "uint8",
          "name": "",
          "type": "uint8"
        }
      ],
      "stateMutability": "view",
      "type": "function"
    },
    {
      "inputs": [],
      "name": "uniswapV2RouterAddress",
      "outputs": [
        {
          "internalType": "address",
          "name": "",
          "type": "address"
        }
      ],
      "stateMutability": "view",
      "type": "function"
    }
  ],
  "transactionHash": "0xa1f02a848a8b76234f7f0f8fa7c3850d6156582f462139d7961c034b5832f784",
  "args": [
    "0x2bC5d014a1C1f9Fd76618304Cf3121199e438bDd"
  ],
  "numDeployments": 2,
  "solcInputHash": "4551690f4f7604e58350f88719902af8",
  "bytecode": "0x60e06040523480156200001157600080fd5b5060405162001c5138038062001c518339810160408190526200003491620002d2565b6001600160a01b0381166080819052604080516315ab88c960e31b8152905183929163ad5c46489160048083019260209291908290030181865afa15801562000081573d6000803e3d6000fd5b505050506040513d601f19601f82011682018060405250810190620000a79190620002d2565b6001600160a01b031660c0816001600160a01b0316815250506080516001600160a01b031663c45a01556040518163ffffffff1660e01b8152600401602060405180830381865afa15801562000101573d6000803e3d6000fd5b505050506040513d601f19601f82011682018060405250810190620001279190620002d2565b6001600160a01b031660a0525050600060208190527f821c023d6bca7f179daf6729db08f77804998bb71bb0fa076446983b06677d858054600160ff1991821681179092557f276b2819432fda60b4a961fb50dc9a21dd0af199dbfd04630f140e0df116776880548216831790557f6683cf598a5119a33eb3e8879f2165d1525e3f8ce4029f51b05491fc565786e4805482169092179091557f482e9b89d9287acd02db968857e4ee4edebb8775bea63e8f1b5d30d928cb42af8054600290831681179091557fbffc92d290fc984d42ed290433221c9e30752c507c656288bc6e5dd39ef67cd180548316821790557fbe4c10fffa2fb3eca09e336e20c91a226da0397925aaf15928961cf62ae397c880548316821790557f9e83fa5e2bae51a2e71d4831c6b3f31b73316d611d81035a71bcac64188b58398054831690911790557f308053d75852b355b78bdaaaa255277f3f15a2506d26ab9cab0e7e37468962b9805460039083168117909155633e100f8760e01b9092527fd089f15df1817e48d8f7b533164a957a0249fd966855a586bf31504c1eb82c518054909116909117905562000304565b600060208284031215620002e557600080fd5b81516001600160a01b0381168114620002fd57600080fd5b9392505050565b60805160a05160c0516118de6200037360003960006102310152600061028d0152600081816101b8015281816102e301528181610cab01528181610cf701528181610ddb01528181610e3301528181610f3101528181610fcf0152818161106d015261113501526118de6000f3fe608060405234801561001057600080fd5b50600436106101165760003560e01c8063617b595a116100a2578063c45a015511610071578063c45a015514610288578063e244e1ff146102af578063ecc861d0146102c2578063ee01e5e7146102d5578063f887ea40146102de57600080fd5b8063617b595a146102035780636b213fe914610219578063ad5c46481461022c578063b1d613681461025357600080fd5b80633e8877ed116100e95780633e8877ed1461017d57806342712a6714610190578063472b43f3146101a35780634a377e1d146101b65780635581161b146101f057600080fd5b80630b0a6ca31461011b5780632d4eaa7b14610144578063363db5c6146101575780633e100f871461016a575b600080fd5b61012e61012936600461126a565b610305565b60405161013b91906112c9565b60405180910390f35b61012e61015236600461138b565b61037d565b61012e61016536600461138b565b610447565b61012e61017836600461126a565b61054b565b61012e61018b36600461138b565b61059d565b61012e61019e36600461138b565b61070a565b61012e6101b136600461138b565b610832565b7f00000000000000000000000000000000000000000000000000000000000000005b6040516001600160a01b03909116815260200161013b565b6101d86101fe366004611455565b610908565b61020b601e81565b60405190815260200161013b565b61012e61022736600461126a565b6109e5565b6101d87f000000000000000000000000000000000000000000000000000000000000000081565b6102766102613660046114fb565b60006020819052908152604090205460ff1681565b60405160ff909116815260200161013b565b6101d87f000000000000000000000000000000000000000000000000000000000000000081565b61012e6102bd36600461138b565b610a2b565b61020b6102d0366004611516565b610b48565b61020b6103e881565b6101d87f000000000000000000000000000000000000000000000000000000000000000081565b60608480158061031657506103e881115b1561033457604051633ef47dfb60e11b815260040160405180910390fd5b6103736103698686600081811061034d5761034d611538565b9050602002016020810190610362919061154e565b8886610baa565b6000878787610447565b9695505050505050565b606085806000036103a1576040516337b5cc0b60e21b815260040160405180910390fd5b604080516001808252818301909252600091816020015b6103c06111dc565b8152602001906001900390816103b857905050905061041e88888888808060200260200160405190810160405280939291908181526020018383602002808284376000920191909152508a92506104199150610c3b9050565b610c4d565b8160008151811061043157610431611538565b6020908102919091010152979650505050505050565b6060858060000361046b576040516337b5cc0b60e21b815260040160405180910390fd5b60408051600280825260608201909252600091816020015b61048b6111dc565b8152602001906001900390816104835790505090506104d1868660008181106104b6576104b6611538565b90506020020160208101906104cb919061154e565b89610ce2565b816000815181106104e4576104e4611538565b602002602001018190525061053888888888808060200260200160405190810160405280939291908181526020018383602002808284376000920191909152508a92506105339150610c3b9050565b610d7b565b8160018151811061043157610431611538565b60608480158061055c57506103e881115b1561057a57604051633ef47dfb60e11b815260040160405180910390fd5b6103736105938686600081811061034d5761034d611538565b6000878787610832565b606085806000036105c1576040516337b5cc0b60e21b815260040160405180910390fd5b600086600003610610576106098686808060200260200160405190810160405280939291908181526020018383602002808284376000920191909152508c9250610e19915050565b9050610613565b50855b60408051600280825260608201909252600091816020015b6106336111dc565b81526020019060019003908161062b5790505090506106798787600081811061065e5761065e611538565b9050602002016020810190610673919061154e565b83610ce2565b8160008151811061068c5761068c611538565b60200260200101819052506106e089838989808060200260200160405190810160405280939291908181526020018383602002808284376000920191909152508b92506106db9150610c3b9050565b610ed1565b816001815181106106f3576106f3611538565b602090810291909101015298975050505050505050565b6060858060000361072e576040516337b5cc0b60e21b815260040160405180910390fd5b60008660000361077d576107768686808060200260200160405190810160405280939291908181526020018383602002808284376000920191909152508c9250610e19915050565b9050610780565b50855b60408051600280825260608201909252600091816020015b6107a06111dc565b8152602001906001900390816107985790505090506107cb8787600081811061065e5761065e611538565b816000815181106107de576107de611538565b60200260200101819052506106e089838989808060200260200160405190810160405280939291908181526020018383602002808284376000920191909152508b925061082d9150610c3b9050565b610f6f565b60608580600003610856576040516337b5cc0b60e21b815260040160405180910390fd5b60408051600280825260608201909252600091816020015b6108766111dc565b81526020019060019003908161086e5790505090506108a1868660008181106104b6576104b6611538565b816000815181106108b4576108b4611538565b602002602001018190525061053888888888808060200260200160405190810160405280939291908181526020018383602002808284376000920191909152508a92506109039150610c3b9050565b61100d565b6001600160e01b0319821660009081526020819052604081205460ff16801580610935575060038160ff16115b156109535760405163ae563a1f60e01b815260040160405180910390fd5b8060ff166001036109685760009150506109df565b8060ff166002036109b2576000838060200190518101906109899190611607565b5092505050806000815181106109a1576109a1611538565b6020026020010151925050506109df565b6000838060200190518101906109c8919061165f565b50915050806000815181106109a1576109a1611538565b92915050565b6060848015806109f657506103e881115b15610a1457604051633ef47dfb60e11b815260040160405180910390fd5b610373610a2187856110ab565b600087878761037d565b60608580600003610a4f576040516337b5cc0b60e21b815260040160405180910390fd5b604080516001808252818301909252600091816020015b610a6e6111dc565b815260200190600190039081610a66579050509050600087600003610ad257610acb8787808060200260200160405190810160405280939291908181526020018383602002808284376000920191909152508d9250610e19915050565b9050610ad5565b50865b610b1e818a8989808060200260200160405190810160405280939291908181526020018383602002808284376000920191909152508b9250610b199150610c3b9050565b6110d7565b82600081518110610b3157610b31611538565b602090810291909101015250979650505050505050565b60006107ca610b59846107cd6116d0565b610b8f610b6985623cda206116d0565b610b7687623cda296116d0565b610b8091906116e7565b610b8a90876116d0565b61116c565b610b9991906116fa565b610ba3919061170d565b9392505050565b6040516370a0823160e01b81526001600160a01b03828116600483015260009182918616906370a0823190602401602060405180830381865afa158015610bf5573d6000803e3d6000fd5b505050506040513d601f19601f82011682018060405250810190610c19919061172f565b90506103e8610c2882866116d0565b610c32919061170d565b95945050505050565b6000610c48601e426116e7565b905090565b610c556111dc565b600085858585604051602401610c6e949392919061178d565b60408051601f19818403018152918152602080830180516001600160e01b0316637ff36ab560e01b17905281516060810183526001600160a01b037f000000000000000000000000000000000000000000000000000000000000000016815290810199909952880152509495945050505050565b610cea6111dc565b6040516001600160a01b037f00000000000000000000000000000000000000000000000000000000000000001660248201526044810183905260009060640160408051601f19818403018152918152602080830180516001600160e01b031663095ea7b360e01b17905281516060810183526001600160a01b03979097168752600090870152850152509192915050565b610d836111dc565b60008686868686604051602401610d9e9594939291906117c2565b60408051601f19818403018152918152602080830180516001600160e01b03166318cbafe560e01b17905281516060810183526001600160a01b037f00000000000000000000000000000000000000000000000000000000000000001681526000918101919091529081019190915291505095945050505050565b6040516307c0329d60e21b81526000906001600160a01b037f00000000000000000000000000000000000000000000000000000000000000001690631f00ca7490610e6a90859087906004016117fe565b600060405180830381865afa158015610e87573d6000803e3d6000fd5b505050506040513d6000823e601f3d908101601f19168201604052610eaf9190810190611817565b600081518110610ec157610ec1611538565b6020026020010151905092915050565b610ed96111dc565b60008686868686604051602401610ef49594939291906117c2565b60408051601f19818403018152918152602080830180516001600160e01b0316632512eca560e11b17905281516060810183526001600160a01b037f00000000000000000000000000000000000000000000000000000000000000001681526000918101919091529081019190915291505095945050505050565b610f776111dc565b60008686868686604051602401610f929594939291906117c2565b60408051601f19818403018152918152602080830180516001600160e01b0316634401edf760e11b17905281516060810183526001600160a01b037f00000000000000000000000000000000000000000000000000000000000000001681526000918101919091529081019190915291505095945050505050565b6110156111dc565b600086868686866040516024016110309594939291906117c2565b60408051601f19818403018152918152602080830180516001600160e01b03166338ed173960e01b17905281516060810183526001600160a01b037f00000000000000000000000000000000000000000000000000000000000000001681526000918101919091529081019190915291505095945050505050565b60006001600160a01b038216316103e86110c585836116d0565b6110cf919061170d565b949350505050565b6110df6111dc565b6000858585856040516024016110f8949392919061178d565b60408051601f19818403018152918152602080830180516001600160e01b031663fb3bdb4160e01b17905281516060810183526001600160a01b037f000000000000000000000000000000000000000000000000000000000000000016815290810199909952880152509495945050505050565b600060038211156111cd575080600061118660028361170d565b6111919060016116e7565b90505b818110156111c7579050806002816111ac818661170d565b6111b691906116e7565b6111c0919061170d565b9050611194565b50919050565b81156111d7575060015b919050565b604051806060016040528060006001600160a01b0316815260200160008152602001606081525090565b60008083601f84011261121857600080fd5b50813567ffffffffffffffff81111561123057600080fd5b6020830191508360208260051b850101111561124b57600080fd5b9250929050565b6001600160a01b038116811461126757600080fd5b50565b6000806000806060858703121561128057600080fd5b84359350602085013567ffffffffffffffff81111561129e57600080fd5b6112aa87828801611206565b90945092505060408501356112be81611252565b939692955090935050565b600060208083018184528085518083526040925060408601915060408160051b8701018488016000805b8481101561137c57898403603f19018652825180516001600160a01b0316855288810151898601528701516060888601819052815190860181905283905b8082101561134f578282018b015187830160800152908a0190611331565b8681016080908101869052988b0198601f909101601f1916909601909501945050918701916001016112f3565b50919998505050505050505050565b6000806000806000608086880312156113a357600080fd5b8535945060208601359350604086013567ffffffffffffffff8111156113c857600080fd5b6113d488828901611206565b90945092505060608601356113e881611252565b809150509295509295909350565b80356001600160e01b0319811681146111d757600080fd5b634e487b7160e01b600052604160045260246000fd5b604051601f8201601f1916810167ffffffffffffffff8111828210171561144d5761144d61140e565b604052919050565b6000806040838503121561146857600080fd5b611471836113f6565b915060208084013567ffffffffffffffff8082111561148f57600080fd5b818601915086601f8301126114a357600080fd5b8135818111156114b5576114b561140e565b6114c7601f8201601f19168501611424565b915080825287848285010111156114dd57600080fd5b80848401858401376000848284010152508093505050509250929050565b60006020828403121561150d57600080fd5b610ba3826113f6565b6000806040838503121561152957600080fd5b50508035926020909101359150565b634e487b7160e01b600052603260045260246000fd5b60006020828403121561156057600080fd5b8135610ba381611252565b600067ffffffffffffffff8211156115855761158561140e565b5060051b60200190565b600082601f8301126115a057600080fd5b815160206115b56115b08361156b565b611424565b8083825260208201915060208460051b8701019350868411156115d757600080fd5b602086015b848110156115fc5780516115ef81611252565b83529183019183016115dc565b509695505050505050565b6000806000806080858703121561161d57600080fd5b8451935060208501519250604085015167ffffffffffffffff81111561164257600080fd5b61164e8782880161158f565b92505060608501516112be81611252565b60008060006060848603121561167457600080fd5b83519250602084015167ffffffffffffffff81111561169257600080fd5b61169e8682870161158f565b92505060408401516116af81611252565b809150509250925092565b634e487b7160e01b600052601160045260246000fd5b80820281158282048414176109df576109df6116ba565b808201808211156109df576109df6116ba565b818103818111156109df576109df6116ba565b60008261172a57634e487b7160e01b600052601260045260246000fd5b500490565b60006020828403121561174157600080fd5b5051919050565b60008151808452602080850194506020840160005b838110156117825781516001600160a01b03168752958201959082019060010161175d565b509495945050505050565b8481526080602082015260006117a66080830186611748565b6001600160a01b03949094166040830152506060015292915050565b85815284602082015260a0604082015260006117e160a0830186611748565b6001600160a01b0394909416606083015250608001529392505050565b8281526040602082015260006110cf6040830184611748565b6000602080838503121561182a57600080fd5b825167ffffffffffffffff81111561184157600080fd5b8301601f8101851361185257600080fd5b80516118606115b08261156b565b81815260059190911b8201830190838101908783111561187f57600080fd5b928401925b8284101561189d57835182529284019290840190611884565b97965050505050505056fea26469706673582212203cecba0c80d67623ff22a88f1bd23d5221d6ffdd44ee5a5ca6851a418cb602dc64736f6c63430008180033",
  "devdoc": {
    "kind": "dev",
    "methods": {},
    "version": 1
  },
  "userdoc": {
    "kind": "user",
    "methods": {},
    "version": 1
  },
  "storageLayout": {
    "storage": [
      {
        "astId": 8229,
        "contract": "src/actions/uniswap-v2/UniswapV2SwapActions.sol:UniswapV2SwapActions",
        "label": "tokenGetterIDs",
        "offset": 0,
        "slot": "0",
        "type": "t_mapping(t_bytes4,t_uint8)"
      }
    ],
    "types": {
      "t_bytes4": {
        "encoding": "inplace",
        "label": "bytes4",
        "numberOfBytes": "4"
      },
      "t_mapping(t_bytes4,t_uint8)": {
        "encoding": "mapping",
        "key": "t_bytes4",
        "label": "mapping(bytes4 => uint8)",
        "numberOfBytes": "32",
        "value": "t_uint8"
      },
      "t_uint8": {
        "encoding": "inplace",
        "label": "uint8",
        "numberOfBytes": "1"
      }
    }
  }
}