{
  "contracts/PriceOracle.sol": {
    "PriceOracle": {
      "abi": [
        {
          "inputs": [
            {
              "internalType": "address",
              "name": "initialOwner",
              "type": "address"
            },
            {
              "internalType": "address",
              "name": "_pythOracle",
              "type": "address"
            },
            {
              "internalType": "uint16",
              "name": "_maxOracleDelay",
              "type": "uint16"
            }
          ],
          "stateMutability": "nonpayable",
          "type": "constructor"
        },
        {
          "inputs": [],
          "name": "NegativePriceNotAllowed",
          "type": "error"
        },
        {
          "inputs": [
            {
              "internalType": "address",
              "name": "token",
              "type": "address"
            }
          ],
          "name": "OracleNotExist",
          "type": "error"
        },
        {
          "inputs": [
            {
              "internalType": "address",
              "name": "owner",
              "type": "address"
            }
          ],
          "name": "OwnableInvalidOwner",
          "type": "error"
        },
        {
          "inputs": [
            {
              "internalType": "address",
              "name": "account",
              "type": "address"
            }
          ],
          "name": "OwnableUnauthorizedAccount",
          "type": "error"
        },
        {
          "anonymous": false,
          "inputs": [
            {
              "indexed": true,
              "internalType": "address",
              "name": "token",
              "type": "address"
            },
            {
              "indexed": false,
              "internalType": "bytes32",
              "name": "oracleID",
              "type": "bytes32"
            }
          ],
          "name": "OracleSet",
          "type": "event"
        },
        {
          "anonymous": false,
          "inputs": [
            {
              "indexed": true,
              "internalType": "address",
              "name": "previousOwner",
              "type": "address"
            },
            {
              "indexed": true,
              "internalType": "address",
              "name": "newOwner",
              "type": "address"
            }
          ],
          "name": "OwnershipTransferred",
          "type": "event"
        },
        {
          "inputs": [],
          "name": "PRICE_DECIMALS",
          "outputs": [
            {
              "internalType": "uint8",
              "name": "",
              "type": "uint8"
            }
          ],
          "stateMutability": "view",
          "type": "function"
        },
        {
          "inputs": [
            {
              "internalType": "address",
              "name": "_token",
              "type": "address"
            }
          ],
          "name": "getTokenPrice",
          "outputs": [
            {
              "internalType": "uint256",
              "name": "",
              "type": "uint256"
            }
          ],
          "stateMutability": "view",
          "type": "function"
        },
        {
          "inputs": [],
          "name": "maxOracleDelay",
          "outputs": [
            {
              "internalType": "uint16",
              "name": "",
              "type": "uint16"
            }
          ],
          "stateMutability": "view",
          "type": "function"
        },
        {
          "inputs": [
            {
              "internalType": "address",
              "name": "_token",
              "type": "address"
            }
          ],
          "name": "oracleID",
          "outputs": [
            {
              "internalType": "bytes32",
              "name": "",
              "type": "bytes32"
            }
          ],
          "stateMutability": "view",
          "type": "function"
        },
        {
          "inputs": [],
          "name": "owner",
          "outputs": [
            {
              "internalType": "address",
              "name": "",
              "type": "address"
            }
          ],
          "stateMutability": "view",
          "type": "function"
        },
        {
          "inputs": [],
          "name": "renounceOwnership",
          "outputs": [],
          "stateMutability": "nonpayable",
          "type": "function"
        },
        {
          "inputs": [
            {
              "internalType": "address",
              "name": "_token",
              "type": "address"
            },
            {
              "internalType": "bytes32",
              "name": "_oracleID",
              "type": "bytes32"
            }
          ],
          "name": "setOracleID",
          "outputs": [],
          "stateMutability": "nonpayable",
          "type": "function"
        },
        {
          "inputs": [
            {
              "internalType": "address",
              "name": "newOwner",
              "type": "address"
            }
          ],
          "name": "transferOwnership",
          "outputs": [],
          "stateMutability": "nonpayable",
          "type": "function"
        }
      ],
      "evm": {
        "bytecode": {
          "linkReferences": {},
          "object": "60c060405234801561001057600080fd5b506040516108ca3803806108ca83398101604081905261002f916100ed565b826001600160a01b03811661005e57604051631e4fbdf760e01b81526000600482015260240160405180910390fd5b61006781610081565b5061ffff166080526001600160a01b031660a0525061013b565b600080546001600160a01b038381166001600160a01b0319831681178455604051919092169283917f8be0079c531659141344cd1fd0a4f28419497f9722a3daafe3b4186f6b6457e09190a35050565b80516001600160a01b03811681146100e857600080fd5b919050565b60008060006060848603121561010257600080fd5b61010b846100d1565b9250610119602085016100d1565b9150604084015161ffff8116811461013057600080fd5b809150509250925092565b60805160a05161076461016660003960006102770152600081816092015261025001526107646000f3fe608060405234801561001057600080fd5b50600436106100885760003560e01c80638da5cb5b1161005b5780638da5cb5b14610120578063d02641a01461013b578063f1a640f81461014e578063f2fde38b1461016857600080fd5b806352f1edcc1461008d5780635b9dfcfa146100cc578063715018a6146100e1578063831cf43d146100e9575b600080fd5b6100b47f000000000000000000000000000000000000000000000000000000000000000081565b60405161ffff90911681526020015b60405180910390f35b6100df6100da36600461049a565b61017b565b005b6100df6101dc565b6101126100f73660046104c4565b6001600160a01b031660009081526001602052604090205490565b6040519081526020016100c3565b6000546040516001600160a01b0390911681526020016100c3565b6101126101493660046104c4565b6101f0565b610156601281565b60405160ff90911681526020016100c3565b6100df6101763660046104c4565b61030c565b61018361034a565b6001600160a01b03821660008181526001602052604090819020839055517f0371a930f54882f3e9296d66c96d41e22a3892c17f1ae0482b0761630010813f906101d09084815260200190565b60405180910390a25050565b6101e461034a565b6101ee6000610377565b565b6001600160a01b0381166000908152600160205260408120548061023757604051630baf9bfb60e01b81526001600160a01b03841660048201526024015b60405180910390fd5b60405163052571af60e51b81526004810182905261ffff7f00000000000000000000000000000000000000000000000000000000000000001660248201527f00000000000000000000000000000000000000000000000000000000000000006001600160a01b03169063a4ae35e090604401608060405180830381865afa9250505080156102e2575060408051601f3d908101601f191682019092526102df91810190610510565b60015b6102ef5750600092915050565b610304816000015160070b82604001516103c7565b949350505050565b61031461034a565b6001600160a01b03811661033e57604051631e4fbdf760e01b81526000600482015260240161022e565b61034781610377565b50565b6000546001600160a01b031633146101ee5760405163118cdaa760e01b815233600482015260240161022e565b600080546001600160a01b038381166001600160a01b0319831681178455604051919092169283917f8be0079c531659141344cd1fd0a4f28419497f9722a3daafe3b4186f6b6457e09190a35050565b60008083136103e957604051632919491b60e01b815260040160405180910390fd5b60008260030b13156104245763ffffffff82166104078160126105b9565b61041290600a6106b3565b61041c90856106bf565b915050610478565b600061042f836106e1565b63ffffffff16905061044160126106e1565b60030b8360030b1361046d57610458601282610704565b61046390600a6106b3565b61041c9085610717565b610458816012610704565b92915050565b80356001600160a01b038116811461049557600080fd5b919050565b600080604083850312156104ad57600080fd5b6104b68361047e565b946020939093013593505050565b6000602082840312156104d657600080fd5b6104df8261047e565b9392505050565b805167ffffffffffffffff8116811461049557600080fd5b8051600381900b811461049557600080fd5b6000608082840312801561052357600080fd5b600090506040516080810181811067ffffffffffffffff8211171561055657634e487b7160e01b83526041600452602483fd5b6040528351600781900b811461056a578283fd5b8152610578602085016104e6565b6020820152610589604085016104fe565b604082015260609384015193810193909352509092915050565b634e487b7160e01b600052601160045260246000fd5b80820180821115610478576104786105a3565b6001815b6001841115610607578085048111156105eb576105eb6105a3565b60018416156105f957908102905b60019390931c9280026105d0565b935093915050565b60008261061e57506001610478565b8161062b57506000610478565b8160018114610641576002811461064b57610667565b6001915050610478565b60ff84111561065c5761065c6105a3565b50506001821b610478565b5060208310610133831016604e8410600b841016171561068a575081810a610478565b61069760001984846105cc565b80600019048211156106ab576106ab6105a3565b029392505050565b60006104df838361060f565b6000826106dc57634e487b7160e01b600052601260045260246000fd5b500490565b60008160030b637fffffff1981036106fb576106fb6105a3565b60000392915050565b81810381811115610478576104786105a3565b8082028115828204841417610478576104786105a356fea2646970667358221220e636d77712b896990d7dbb7c1a357f8947ae1ba179acfc5ad0f8d285fb0a645664736f6c634300081c0033",
          "opcodes": "PUSH1 0xC0 PUSH1 0x40 MSTORE CALLVALUE DUP1 ISZERO PUSH2 0x10 JUMPI PUSH1 0x0 DUP1 REVERT JUMPDEST POP PUSH1 0x40 MLOAD PUSH2 0x8CA CODESIZE SUB DUP1 PUSH2 0x8CA DUP4 CODECOPY DUP2 ADD PUSH1 0x40 DUP2 SWAP1 MSTORE PUSH2 0x2F SWAP2 PUSH2 0xED JUMP JUMPDEST DUP3 PUSH1 0x1 PUSH1 0x1 PUSH1 0xA0 SHL SUB DUP2 AND PUSH2 0x5E JUMPI PUSH1 0x40 MLOAD PUSH4 0x1E4FBDF7 PUSH1 0xE0 SHL DUP2 MSTORE PUSH1 0x0 PUSH1 0x4 DUP3 ADD MSTORE PUSH1 0x24 ADD PUSH1 0x40 MLOAD DUP1 SWAP2 SUB SWAP1 REVERT JUMPDEST PUSH2 0x67 DUP2 PUSH2 0x81 JUMP JUMPDEST POP PUSH2 0xFFFF AND PUSH1 0x80 MSTORE PUSH1 0x1 PUSH1 0x1 PUSH1 0xA0 SHL SUB AND PUSH1 0xA0 MSTORE POP PUSH2 0x13B JUMP JUMPDEST PUSH1 0x0 DUP1 SLOAD PUSH1 0x1 PUSH1 0x1 PUSH1 0xA0 SHL SUB DUP4 DUP2 AND PUSH1 0x1 PUSH1 0x1 PUSH1 0xA0 SHL SUB NOT DUP4 AND DUP2 OR DUP5 SSTORE PUSH1 0x40 MLOAD SWAP2 SWAP1 SWAP3 AND SWAP3 DUP4 SWAP2 PUSH32 0x8BE0079C531659141344CD1FD0A4F28419497F9722A3DAAFE3B4186F6B6457E0 SWAP2 SWAP1 LOG3 POP POP JUMP JUMPDEST DUP1 MLOAD PUSH1 0x1 PUSH1 0x1 PUSH1 0xA0 SHL SUB DUP2 AND DUP2 EQ PUSH2 0xE8 JUMPI PUSH1 0x0 DUP1 REVERT JUMPDEST SWAP2 SWAP1 POP JUMP JUMPDEST PUSH1 0x0 DUP1 PUSH1 0x0 PUSH1 0x60 DUP5 DUP7 SUB SLT ISZERO PUSH2 0x102 JUMPI PUSH1 0x0 DUP1 REVERT JUMPDEST PUSH2 0x10B DUP5 PUSH2 0xD1 JUMP JUMPDEST SWAP3 POP PUSH2 0x119 PUSH1 0x20 DUP6 ADD PUSH2 0xD1 JUMP JUMPDEST SWAP2 POP PUSH1 0x40 DUP5 ADD MLOAD PUSH2 0xFFFF DUP2 AND DUP2 EQ PUSH2 0x130 JUMPI PUSH1 0x0 DUP1 REVERT JUMPDEST DUP1 SWAP2 POP POP SWAP3 POP SWAP3 POP SWAP3 JUMP JUMPDEST PUSH1 0x80 MLOAD PUSH1 0xA0 MLOAD PUSH2 0x764 PUSH2 0x166 PUSH1 0x0 CODECOPY PUSH1 0x0 PUSH2 0x277 ADD MSTORE PUSH1 0x0 DUP2 DUP2 PUSH1 0x92 ADD MSTORE PUSH2 0x250 ADD MSTORE PUSH2 0x764 PUSH1 0x0 RETURN INVALID PUSH1 0x80 PUSH1 0x40 MSTORE CALLVALUE DUP1 ISZERO PUSH2 0x10 JUMPI PUSH1 0x0 DUP1 REVERT JUMPDEST POP PUSH1 0x4 CALLDATASIZE LT PUSH2 0x88 JUMPI PUSH1 0x0 CALLDATALOAD PUSH1 0xE0 SHR DUP1 PUSH4 0x8DA5CB5B GT PUSH2 0x5B JUMPI DUP1 PUSH4 0x8DA5CB5B EQ PUSH2 0x120 JUMPI DUP1 PUSH4 0xD02641A0 EQ PUSH2 0x13B JUMPI DUP1 PUSH4 0xF1A640F8 EQ PUSH2 0x14E JUMPI DUP1 PUSH4 0xF2FDE38B EQ PUSH2 0x168 JUMPI PUSH1 0x0 DUP1 REVERT JUMPDEST DUP1 PUSH4 0x52F1EDCC EQ PUSH2 0x8D JUMPI DUP1 PUSH4 0x5B9DFCFA EQ PUSH2 0xCC JUMPI DUP1 PUSH4 0x715018A6 EQ PUSH2 0xE1 JUMPI DUP1 PUSH4 0x831CF43D EQ PUSH2 0xE9 JUMPI JUMPDEST PUSH1 0x0 DUP1 REVERT JUMPDEST PUSH2 0xB4 PUSH32 0x0 DUP2 JUMP JUMPDEST PUSH1 0x40 MLOAD PUSH2 0xFFFF SWAP1 SWAP2 AND DUP2 MSTORE PUSH1 0x20 ADD JUMPDEST PUSH1 0x40 MLOAD DUP1 SWAP2 SUB SWAP1 RETURN JUMPDEST PUSH2 0xDF PUSH2 0xDA CALLDATASIZE PUSH1 0x4 PUSH2 0x49A JUMP JUMPDEST PUSH2 0x17B JUMP JUMPDEST STOP JUMPDEST PUSH2 0xDF PUSH2 0x1DC JUMP JUMPDEST PUSH2 0x112 PUSH2 0xF7 CALLDATASIZE PUSH1 0x4 PUSH2 0x4C4 JUMP JUMPDEST PUSH1 0x1 PUSH1 0x1 PUSH1 0xA0 SHL SUB AND PUSH1 0x0 SWAP1 DUP2 MSTORE PUSH1 0x1 PUSH1 0x20 MSTORE PUSH1 0x40 SWAP1 KECCAK256 SLOAD SWAP1 JUMP JUMPDEST PUSH1 0x40 MLOAD SWAP1 DUP2 MSTORE PUSH1 0x20 ADD PUSH2 0xC3 JUMP JUMPDEST PUSH1 0x0 SLOAD PUSH1 0x40 MLOAD PUSH1 0x1 PUSH1 0x1 PUSH1 0xA0 SHL SUB SWAP1 SWAP2 AND DUP2 MSTORE PUSH1 0x20 ADD PUSH2 0xC3 JUMP JUMPDEST PUSH2 0x112 PUSH2 0x149 CALLDATASIZE PUSH1 0x4 PUSH2 0x4C4 JUMP JUMPDEST PUSH2 0x1F0 JUMP JUMPDEST PUSH2 0x156 PUSH1 0x12 DUP2 JUMP JUMPDEST PUSH1 0x40 MLOAD PUSH1 0xFF SWAP1 SWAP2 AND DUP2 MSTORE PUSH1 0x20 ADD PUSH2 0xC3 JUMP JUMPDEST PUSH2 0xDF PUSH2 0x176 CALLDATASIZE PUSH1 0x4 PUSH2 0x4C4 JUMP JUMPDEST PUSH2 0x30C JUMP JUMPDEST PUSH2 0x183 PUSH2 0x34A JUMP JUMPDEST PUSH1 0x1 PUSH1 0x1 PUSH1 0xA0 SHL SUB DUP3 AND PUSH1 0x0 DUP2 DUP2 MSTORE PUSH1 0x1 PUSH1 0x20 MSTORE PUSH1 0x40 SWAP1 DUP2 SWAP1 KECCAK256 DUP4 SWAP1 SSTORE MLOAD PUSH32 0x371A930F54882F3E9296D66C96D41E22A3892C17F1AE0482B0761630010813F SWAP1 PUSH2 0x1D0 SWAP1 DUP5 DUP2 MSTORE PUSH1 0x20 ADD SWAP1 JUMP JUMPDEST PUSH1 0x40 MLOAD DUP1 SWAP2 SUB SWAP1 LOG2 POP POP JUMP JUMPDEST PUSH2 0x1E4 PUSH2 0x34A JUMP JUMPDEST PUSH2 0x1EE PUSH1 0x0 PUSH2 0x377 JUMP JUMPDEST JUMP JUMPDEST PUSH1 0x1 PUSH1 0x1 PUSH1 0xA0 SHL SUB DUP2 AND PUSH1 0x0 SWAP1 DUP2 MSTORE PUSH1 0x1 PUSH1 0x20 MSTORE PUSH1 0x40 DUP2 KECCAK256 SLOAD DUP1 PUSH2 0x237 JUMPI PUSH1 0x40 MLOAD PUSH4 0xBAF9BFB PUSH1 0xE0 SHL DUP2 MSTORE PUSH1 0x1 PUSH1 0x1 PUSH1 0xA0 SHL SUB DUP5 AND PUSH1 0x4 DUP3 ADD MSTORE PUSH1 0x24 ADD JUMPDEST PUSH1 0x40 MLOAD DUP1 SWAP2 SUB SWAP1 REVERT JUMPDEST PUSH1 0x40 MLOAD PUSH4 0x52571AF PUSH1 0xE5 SHL DUP2 MSTORE PUSH1 0x4 DUP2 ADD DUP3 SWAP1 MSTORE PUSH2 0xFFFF PUSH32 0x0 AND PUSH1 0x24 DUP3 ADD MSTORE PUSH32 0x0 PUSH1 0x1 PUSH1 0x1 PUSH1 0xA0 SHL SUB AND SWAP1 PUSH4 0xA4AE35E0 SWAP1 PUSH1 0x44 ADD PUSH1 0x80 PUSH1 0x40 MLOAD DUP1 DUP4 SUB DUP2 DUP7 GAS STATICCALL SWAP3 POP POP POP DUP1 ISZERO PUSH2 0x2E2 JUMPI POP PUSH1 0x40 DUP1 MLOAD PUSH1 0x1F RETURNDATASIZE SWAP1 DUP2 ADD PUSH1 0x1F NOT AND DUP3 ADD SWAP1 SWAP3 MSTORE PUSH2 0x2DF SWAP2 DUP2 ADD SWAP1 PUSH2 0x510 JUMP JUMPDEST PUSH1 0x1 JUMPDEST PUSH2 0x2EF JUMPI POP PUSH1 0x0 SWAP3 SWAP2 POP POP JUMP JUMPDEST PUSH2 0x304 DUP2 PUSH1 0x0 ADD MLOAD PUSH1 0x7 SIGNEXTEND DUP3 PUSH1 0x40 ADD MLOAD PUSH2 0x3C7 JUMP JUMPDEST SWAP5 SWAP4 POP POP POP POP JUMP JUMPDEST PUSH2 0x314 PUSH2 0x34A JUMP JUMPDEST PUSH1 0x1 PUSH1 0x1 PUSH1 0xA0 SHL SUB DUP2 AND PUSH2 0x33E JUMPI PUSH1 0x40 MLOAD PUSH4 0x1E4FBDF7 PUSH1 0xE0 SHL DUP2 MSTORE PUSH1 0x0 PUSH1 0x4 DUP3 ADD MSTORE PUSH1 0x24 ADD PUSH2 0x22E JUMP JUMPDEST PUSH2 0x347 DUP2 PUSH2 0x377 JUMP JUMPDEST POP JUMP JUMPDEST PUSH1 0x0 SLOAD PUSH1 0x1 PUSH1 0x1 PUSH1 0xA0 SHL SUB AND CALLER EQ PUSH2 0x1EE JUMPI PUSH1 0x40 MLOAD PUSH4 0x118CDAA7 PUSH1 0xE0 SHL DUP2 MSTORE CALLER PUSH1 0x4 DUP3 ADD MSTORE PUSH1 0x24 ADD PUSH2 0x22E JUMP JUMPDEST PUSH1 0x0 DUP1 SLOAD PUSH1 0x1 PUSH1 0x1 PUSH1 0xA0 SHL SUB DUP4 DUP2 AND PUSH1 0x1 PUSH1 0x1 PUSH1 0xA0 SHL SUB NOT DUP4 AND DUP2 OR DUP5 SSTORE PUSH1 0x40 MLOAD SWAP2 SWAP1 SWAP3 AND SWAP3 DUP4 SWAP2 PUSH32 0x8BE0079C531659141344CD1FD0A4F28419497F9722A3DAAFE3B4186F6B6457E0 SWAP2 SWAP1 LOG3 POP POP JUMP JUMPDEST PUSH1 0x0 DUP1 DUP4 SGT PUSH2 0x3E9 JUMPI PUSH1 0x40 MLOAD PUSH4 0x2919491B PUSH1 0xE0 SHL DUP2 MSTORE PUSH1 0x4 ADD PUSH1 0x40 MLOAD DUP1 SWAP2 SUB SWAP1 REVERT JUMPDEST PUSH1 0x0 DUP3 PUSH1 0x3 SIGNEXTEND SGT ISZERO PUSH2 0x424 JUMPI PUSH4 0xFFFFFFFF DUP3 AND PUSH2 0x407 DUP2 PUSH1 0x12 PUSH2 0x5B9 JUMP JUMPDEST PUSH2 0x412 SWAP1 PUSH1 0xA PUSH2 0x6B3 JUMP JUMPDEST PUSH2 0x41C SWAP1 DUP6 PUSH2 0x6BF JUMP JUMPDEST SWAP2 POP POP PUSH2 0x478 JUMP JUMPDEST PUSH1 0x0 PUSH2 0x42F DUP4 PUSH2 0x6E1 JUMP JUMPDEST PUSH4 0xFFFFFFFF AND SWAP1 POP PUSH2 0x441 PUSH1 0x12 PUSH2 0x6E1 JUMP JUMPDEST PUSH1 0x3 SIGNEXTEND DUP4 PUSH1 0x3 SIGNEXTEND SGT PUSH2 0x46D JUMPI PUSH2 0x458 PUSH1 0x12 DUP3 PUSH2 0x704 JUMP JUMPDEST PUSH2 0x463 SWAP1 PUSH1 0xA PUSH2 0x6B3 JUMP JUMPDEST PUSH2 0x41C SWAP1 DUP6 PUSH2 0x717 JUMP JUMPDEST PUSH2 0x458 DUP2 PUSH1 0x12 PUSH2 0x704 JUMP JUMPDEST SWAP3 SWAP2 POP POP JUMP JUMPDEST DUP1 CALLDATALOAD PUSH1 0x1 PUSH1 0x1 PUSH1 0xA0 SHL SUB DUP2 AND DUP2 EQ PUSH2 0x495 JUMPI PUSH1 0x0 DUP1 REVERT JUMPDEST SWAP2 SWAP1 POP JUMP JUMPDEST PUSH1 0x0 DUP1 PUSH1 0x40 DUP4 DUP6 SUB SLT ISZERO PUSH2 0x4AD JUMPI PUSH1 0x0 DUP1 REVERT JUMPDEST PUSH2 0x4B6 DUP4 PUSH2 0x47E JUMP JUMPDEST SWAP5 PUSH1 0x20 SWAP4 SWAP1 SWAP4 ADD CALLDATALOAD SWAP4 POP POP POP JUMP JUMPDEST PUSH1 0x0 PUSH1 0x20 DUP3 DUP5 SUB SLT ISZERO PUSH2 0x4D6 JUMPI PUSH1 0x0 DUP1 REVERT JUMPDEST PUSH2 0x4DF DUP3 PUSH2 0x47E JUMP JUMPDEST SWAP4 SWAP3 POP POP POP JUMP JUMPDEST DUP1 MLOAD PUSH8 0xFFFFFFFFFFFFFFFF DUP2 AND DUP2 EQ PUSH2 0x495 JUMPI PUSH1 0x0 DUP1 REVERT JUMPDEST DUP1 MLOAD PUSH1 0x3 DUP2 SWAP1 SIGNEXTEND DUP2 EQ PUSH2 0x495 JUMPI PUSH1 0x0 DUP1 REVERT JUMPDEST PUSH1 0x0 PUSH1 0x80 DUP3 DUP5 SUB SLT DUP1 ISZERO PUSH2 0x523 JUMPI PUSH1 0x0 DUP1 REVERT JUMPDEST PUSH1 0x0 SWAP1 POP PUSH1 0x40 MLOAD PUSH1 0x80 DUP2 ADD DUP2 DUP2 LT PUSH8 0xFFFFFFFFFFFFFFFF DUP3 GT OR ISZERO PUSH2 0x556 JUMPI PUSH4 0x4E487B71 PUSH1 0xE0 SHL DUP4 MSTORE PUSH1 0x41 PUSH1 0x4 MSTORE PUSH1 0x24 DUP4 REVERT JUMPDEST PUSH1 0x40 MSTORE DUP4 MLOAD PUSH1 0x7 DUP2 SWAP1 SIGNEXTEND DUP2 EQ PUSH2 0x56A JUMPI DUP3 DUP4 REVERT JUMPDEST DUP2 MSTORE PUSH2 0x578 PUSH1 0x20 DUP6 ADD PUSH2 0x4E6 JUMP JUMPDEST PUSH1 0x20 DUP3 ADD MSTORE PUSH2 0x589 PUSH1 0x40 DUP6 ADD PUSH2 0x4FE JUMP JUMPDEST PUSH1 0x40 DUP3 ADD MSTORE PUSH1 0x60 SWAP4 DUP5 ADD MLOAD SWAP4 DUP2 ADD SWAP4 SWAP1 SWAP4 MSTORE POP SWAP1 SWAP3 SWAP2 POP POP JUMP JUMPDEST PUSH4 0x4E487B71 PUSH1 0xE0 SHL PUSH1 0x0 MSTORE PUSH1 0x11 PUSH1 0x4 MSTORE PUSH1 0x24 PUSH1 0x0 REVERT JUMPDEST DUP1 DUP3 ADD DUP1 DUP3 GT ISZERO PUSH2 0x478 JUMPI PUSH2 0x478 PUSH2 0x5A3 JUMP JUMPDEST PUSH1 0x1 DUP2 JUMPDEST PUSH1 0x1 DUP5 GT ISZERO PUSH2 0x607 JUMPI DUP1 DUP6 DIV DUP2 GT ISZERO PUSH2 0x5EB JUMPI PUSH2 0x5EB PUSH2 0x5A3 JUMP JUMPDEST PUSH1 0x1 DUP5 AND ISZERO PUSH2 0x5F9 JUMPI SWAP1 DUP2 MUL SWAP1 JUMPDEST PUSH1 0x1 SWAP4 SWAP1 SWAP4 SHR SWAP3 DUP1 MUL PUSH2 0x5D0 JUMP JUMPDEST SWAP4 POP SWAP4 SWAP2 POP POP JUMP JUMPDEST PUSH1 0x0 DUP3 PUSH2 0x61E JUMPI POP PUSH1 0x1 PUSH2 0x478 JUMP JUMPDEST DUP2 PUSH2 0x62B JUMPI POP PUSH1 0x0 PUSH2 0x478 JUMP JUMPDEST DUP2 PUSH1 0x1 DUP2 EQ PUSH2 0x641 JUMPI PUSH1 0x2 DUP2 EQ PUSH2 0x64B JUMPI PUSH2 0x667 JUMP JUMPDEST PUSH1 0x1 SWAP2 POP POP PUSH2 0x478 JUMP JUMPDEST PUSH1 0xFF DUP5 GT ISZERO PUSH2 0x65C JUMPI PUSH2 0x65C PUSH2 0x5A3 JUMP JUMPDEST POP POP PUSH1 0x1 DUP3 SHL PUSH2 0x478 JUMP JUMPDEST POP PUSH1 0x20 DUP4 LT PUSH2 0x133 DUP4 LT AND PUSH1 0x4E DUP5 LT PUSH1 0xB DUP5 LT AND OR ISZERO PUSH2 0x68A JUMPI POP DUP2 DUP2 EXP PUSH2 0x478 JUMP JUMPDEST PUSH2 0x697 PUSH1 0x0 NOT DUP5 DUP5 PUSH2 0x5CC JUMP JUMPDEST DUP1 PUSH1 0x0 NOT DIV DUP3 GT ISZERO PUSH2 0x6AB JUMPI PUSH2 0x6AB PUSH2 0x5A3 JUMP JUMPDEST MUL SWAP4 SWAP3 POP POP POP JUMP JUMPDEST PUSH1 0x0 PUSH2 0x4DF DUP4 DUP4 PUSH2 0x60F JUMP JUMPDEST PUSH1 0x0 DUP3 PUSH2 0x6DC JUMPI PUSH4 0x4E487B71 PUSH1 0xE0 SHL PUSH1 0x0 MSTORE PUSH1 0x12 PUSH1 0x4 MSTORE PUSH1 0x24 PUSH1 0x0 REVERT JUMPDEST POP DIV SWAP1 JUMP JUMPDEST PUSH1 0x0 DUP2 PUSH1 0x3 SIGNEXTEND PUSH4 0x7FFFFFFF NOT DUP2 SUB PUSH2 0x6FB JUMPI PUSH2 0x6FB PUSH2 0x5A3 JUMP JUMPDEST PUSH1 0x0 SUB SWAP3 SWAP2 POP POP JUMP JUMPDEST DUP2 DUP2 SUB DUP2 DUP2 GT ISZERO PUSH2 0x478 JUMPI PUSH2 0x478 PUSH2 0x5A3 JUMP JUMPDEST DUP1 DUP3 MUL DUP2 ISZERO DUP3 DUP3 DIV DUP5 EQ OR PUSH2 0x478 JUMPI PUSH2 0x478 PUSH2 0x5A3 JUMP INVALID LOG2 PUSH5 0x6970667358 0x22 SLT KECCAK256 0xE6 CALLDATASIZE 0xD7 PUSH24 0x12B896990D7DBB7C1A357F8947AE1BA179ACFC5AD0F8D285 0xFB EXP PUSH5 0x5664736F6C PUSH4 0x4300081C STOP CALLER "
        },
        "methodIdentifiers": {
          "PRICE_DECIMALS()": "f1a640f8",
          "getTokenPrice(address)": "d02641a0",
          "maxOracleDelay()": "52f1edcc",
          "oracleID(address)": "831cf43d",
          "owner()": "8da5cb5b",
          "renounceOwnership()": "715018a6",
          "setOracleID(address,bytes32)": "5b9dfcfa",
          "transferOwnership(address)": "f2fde38b"
        }
      }
    }
  }
}