{
  "contracts/condition/examples/CoinOrERC20BalanceCondition.sol": {
    "CoinOrERC20BalanceCondition": {
      "abi": [
        {
          "inputs": [],
          "name": "ConditionAlreadyExist",
          "type": "error"
        },
        {
          "inputs": [],
          "name": "ConditionAlreadyInUseOfAutomation",
          "type": "error"
        },
        {
          "inputs": [],
          "name": "ConditionAlreadyInUseOfStrategy",
          "type": "error"
        },
        {
          "inputs": [],
          "name": "ConditionDoesNotExist",
          "type": "error"
        },
        {
          "inputs": [],
          "name": "ConditionIsInUse",
          "type": "error"
        },
        {
          "inputs": [],
          "name": "ConditionNotInUseOfAutomation",
          "type": "error"
        },
        {
          "inputs": [],
          "name": "ConditionNotInUseOfStrategy",
          "type": "error"
        },
        {
          "inputs": [],
          "name": "InvalidComparison",
          "type": "error"
        },
        {
          "inputs": [],
          "name": "InvalidID",
          "type": "error"
        },
        {
          "anonymous": false,
          "inputs": [
            {
              "indexed": true,
              "internalType": "address",
              "name": "wallet",
              "type": "address"
            },
            {
              "indexed": true,
              "internalType": "uint32",
              "name": "id",
              "type": "uint32"
            },
            {
              "indexed": false,
              "internalType": "uint32",
              "name": "automation",
              "type": "uint32"
            }
          ],
          "name": "AutomationAdded",
          "type": "event"
        },
        {
          "anonymous": false,
          "inputs": [
            {
              "indexed": true,
              "internalType": "address",
              "name": "wallet",
              "type": "address"
            },
            {
              "indexed": true,
              "internalType": "uint32",
              "name": "id",
              "type": "uint32"
            },
            {
              "indexed": false,
              "internalType": "uint32",
              "name": "automation",
              "type": "uint32"
            }
          ],
          "name": "AutomationRemoved",
          "type": "event"
        },
        {
          "anonymous": false,
          "inputs": [
            {
              "indexed": false,
              "internalType": "uint32",
              "name": "id",
              "type": "uint32"
            },
            {
              "indexed": false,
              "internalType": "address",
              "name": "wallet",
              "type": "address"
            },
            {
              "components": [
                {
                  "internalType": "address",
                  "name": "baseToken",
                  "type": "address"
                },
                {
                  "internalType": "uint256",
                  "name": "amount",
                  "type": "uint256"
                },
                {
                  "internalType": "enum ICoinOrERC20BalanceCondition.Comparison",
                  "name": "comparison",
                  "type": "uint8"
                },
                {
                  "internalType": "bool",
                  "name": "updateable",
                  "type": "bool"
                }
              ],
              "indexed": false,
              "internalType": "struct ICoinOrERC20BalanceCondition.Condition",
              "name": "condition",
              "type": "tuple"
            }
          ],
          "name": "ConditionAdded",
          "type": "event"
        },
        {
          "anonymous": false,
          "inputs": [
            {
              "indexed": true,
              "internalType": "address",
              "name": "wallet",
              "type": "address"
            },
            {
              "indexed": true,
              "internalType": "uint32",
              "name": "id",
              "type": "uint32"
            }
          ],
          "name": "ConditionDeleted",
          "type": "event"
        },
        {
          "anonymous": false,
          "inputs": [
            {
              "indexed": false,
              "internalType": "uint32",
              "name": "id",
              "type": "uint32"
            },
            {
              "indexed": false,
              "internalType": "address",
              "name": "wallet",
              "type": "address"
            }
          ],
          "name": "ConditionDeleted",
          "type": "event"
        },
        {
          "anonymous": false,
          "inputs": [
            {
              "indexed": true,
              "internalType": "address",
              "name": "wallet",
              "type": "address"
            },
            {
              "indexed": true,
              "internalType": "uint32",
              "name": "id",
              "type": "uint32"
            },
            {
              "indexed": false,
              "internalType": "uint32",
              "name": "strategy",
              "type": "uint32"
            }
          ],
          "name": "StrategyAdded",
          "type": "event"
        },
        {
          "anonymous": false,
          "inputs": [
            {
              "indexed": true,
              "internalType": "address",
              "name": "wallet",
              "type": "address"
            },
            {
              "indexed": true,
              "internalType": "uint32",
              "name": "id",
              "type": "uint32"
            },
            {
              "indexed": false,
              "internalType": "uint32",
              "name": "strategy",
              "type": "uint32"
            }
          ],
          "name": "StrategyRemoved",
          "type": "event"
        },
        {
          "inputs": [
            {
              "internalType": "uint32",
              "name": "id",
              "type": "uint32"
            },
            {
              "internalType": "uint32",
              "name": "automation",
              "type": "uint32"
            }
          ],
          "name": "addAutomationToCondition",
          "outputs": [
            {
              "internalType": "bool",
              "name": "",
              "type": "bool"
            }
          ],
          "stateMutability": "nonpayable",
          "type": "function"
        },
        {
          "inputs": [
            {
              "internalType": "uint32",
              "name": "_id",
              "type": "uint32"
            },
            {
              "components": [
                {
                  "internalType": "address",
                  "name": "baseToken",
                  "type": "address"
                },
                {
                  "internalType": "uint256",
                  "name": "amount",
                  "type": "uint256"
                },
                {
                  "internalType": "enum ICoinOrERC20BalanceCondition.Comparison",
                  "name": "comparison",
                  "type": "uint8"
                },
                {
                  "internalType": "bool",
                  "name": "updateable",
                  "type": "bool"
                }
              ],
              "internalType": "struct ICoinOrERC20BalanceCondition.Condition",
              "name": "condition",
              "type": "tuple"
            }
          ],
          "name": "addCondition",
          "outputs": [],
          "stateMutability": "nonpayable",
          "type": "function"
        },
        {
          "inputs": [
            {
              "internalType": "uint32",
              "name": "id",
              "type": "uint32"
            },
            {
              "internalType": "uint32",
              "name": "strategy",
              "type": "uint32"
            }
          ],
          "name": "addStrategyToCondition",
          "outputs": [
            {
              "internalType": "bool",
              "name": "",
              "type": "bool"
            }
          ],
          "stateMutability": "nonpayable",
          "type": "function"
        },
        {
          "inputs": [
            {
              "internalType": "address",
              "name": "wallet",
              "type": "address"
            },
            {
              "internalType": "uint32",
              "name": "id",
              "type": "uint32"
            }
          ],
          "name": "automations",
          "outputs": [
            {
              "internalType": "uint32[]",
              "name": "",
              "type": "uint32[]"
            }
          ],
          "stateMutability": "view",
          "type": "function"
        },
        {
          "inputs": [
            {
              "internalType": "address",
              "name": "wallet",
              "type": "address"
            },
            {
              "internalType": "uint32",
              "name": "id",
              "type": "uint32"
            }
          ],
          "name": "checkCondition",
          "outputs": [
            {
              "internalType": "uint8",
              "name": "",
              "type": "uint8"
            }
          ],
          "stateMutability": "view",
          "type": "function"
        },
        {
          "inputs": [
            {
              "internalType": "address",
              "name": "wallet",
              "type": "address"
            },
            {
              "internalType": "uint32",
              "name": "id",
              "type": "uint32"
            },
            {
              "internalType": "uint32",
              "name": "automationId",
              "type": "uint32"
            }
          ],
          "name": "conditionInAutomation",
          "outputs": [
            {
              "internalType": "bool",
              "name": "",
              "type": "bool"
            }
          ],
          "stateMutability": "view",
          "type": "function"
        },
        {
          "inputs": [
            {
              "internalType": "address",
              "name": "wallet",
              "type": "address"
            },
            {
              "internalType": "uint32",
              "name": "id",
              "type": "uint32"
            },
            {
              "internalType": "uint32",
              "name": "strategyId",
              "type": "uint32"
            }
          ],
          "name": "conditionInStrategy",
          "outputs": [
            {
              "internalType": "bool",
              "name": "",
              "type": "bool"
            }
          ],
          "stateMutability": "view",
          "type": "function"
        },
        {
          "inputs": [
            {
              "internalType": "uint32",
              "name": "_id",
              "type": "uint32"
            }
          ],
          "name": "deleteCondition",
          "outputs": [],
          "stateMutability": "nonpayable",
          "type": "function"
        },
        {
          "inputs": [
            {
              "internalType": "address",
              "name": "wallet",
              "type": "address"
            },
            {
              "internalType": "uint32",
              "name": "id",
              "type": "uint32"
            }
          ],
          "name": "isConditionActive",
          "outputs": [
            {
              "internalType": "bool",
              "name": "",
              "type": "bool"
            }
          ],
          "stateMutability": "view",
          "type": "function"
        },
        {
          "inputs": [
            {
              "internalType": "address",
              "name": "wallet",
              "type": "address"
            },
            {
              "internalType": "uint32",
              "name": "id",
              "type": "uint32"
            }
          ],
          "name": "isUpdateable",
          "outputs": [
            {
              "internalType": "bool",
              "name": "",
              "type": "bool"
            }
          ],
          "stateMutability": "view",
          "type": "function"
        },
        {
          "inputs": [
            {
              "internalType": "uint32",
              "name": "id",
              "type": "uint32"
            },
            {
              "internalType": "uint32",
              "name": "automation",
              "type": "uint32"
            }
          ],
          "name": "removeAutomationFromCondition",
          "outputs": [
            {
              "internalType": "bool",
              "name": "",
              "type": "bool"
            }
          ],
          "stateMutability": "nonpayable",
          "type": "function"
        },
        {
          "inputs": [
            {
              "internalType": "uint32",
              "name": "id",
              "type": "uint32"
            },
            {
              "internalType": "uint32",
              "name": "strategy",
              "type": "uint32"
            }
          ],
          "name": "removeStrategyFromCondition",
          "outputs": [
            {
              "internalType": "bool",
              "name": "",
              "type": "bool"
            }
          ],
          "stateMutability": "nonpayable",
          "type": "function"
        },
        {
          "inputs": [
            {
              "internalType": "address",
              "name": "wallet",
              "type": "address"
            },
            {
              "internalType": "uint32",
              "name": "id",
              "type": "uint32"
            }
          ],
          "name": "strategies",
          "outputs": [
            {
              "internalType": "uint32[]",
              "name": "",
              "type": "uint32[]"
            }
          ],
          "stateMutability": "view",
          "type": "function"
        },
        {
          "inputs": [
            {
              "internalType": "bytes4",
              "name": "interfaceId",
              "type": "bytes4"
            }
          ],
          "name": "supportsInterface",
          "outputs": [
            {
              "internalType": "bool",
              "name": "",
              "type": "bool"
            }
          ],
          "stateMutability": "pure",
          "type": "function"
        },
        {
          "inputs": [
            {
              "internalType": "uint32",
              "name": "_id",
              "type": "uint32"
            }
          ],
          "name": "updateCondition",
          "outputs": [
            {
              "internalType": "bool",
              "name": "",
              "type": "bool"
            }
          ],
          "stateMutability": "view",
          "type": "function"
        },
        {
          "inputs": [
            {
              "internalType": "address",
              "name": "_wallet",
              "type": "address"
            },
            {
              "internalType": "uint32",
              "name": "_id",
              "type": "uint32"
            }
          ],
          "name": "walletCondition",
          "outputs": [
            {
              "components": [
                {
                  "internalType": "address",
                  "name": "baseToken",
                  "type": "address"
                },
                {
                  "internalType": "uint256",
                  "name": "amount",
                  "type": "uint256"
                },
                {
                  "internalType": "enum ICoinOrERC20BalanceCondition.Comparison",
                  "name": "comparison",
                  "type": "uint8"
                },
                {
                  "internalType": "bool",
                  "name": "updateable",
                  "type": "bool"
                }
              ],
              "internalType": "struct ICoinOrERC20BalanceCondition.Condition",
              "name": "",
              "type": "tuple"
            }
          ],
          "stateMutability": "view",
          "type": "function"
        }
      ],
      "evm": {
        "bytecode": {
          "linkReferences": {},
          "object": "6080604052348015600f57600080fd5b506117648061001f6000396000f3fe608060405234801561001057600080fd5b50600436106101005760003560e01c80636c088bb0116100975780638a4914c2116100665780638a4914c2146102cc578063d8cd9c1b146102df578063e5012fb4146102f2578063eec93dd01461030557600080fd5b80636c088bb0146102615780636f2b9aff146102745780638455c3d01461029457806389a78a03146102a757600080fd5b806314b0af70116100d357806314b0af70146101a4578063384c879d146101b75780634fdcabb8146101d757806357182cae1461021857600080fd5b806301ffc9a714610105578063023ef5a91461013e57806303d049bb146101515780631245f2981461018f575b600080fd5b61012961011336600461136d565b6001600160e01b03191663732d321f60e01b1490565b60405190151581526020015b60405180910390f35b61012961014c3660046113b0565b610318565b61012961015f3660046113e3565b33600090815260056020908152604080832063ffffffff9094168352929052206002015460ff6101009091041690565b6101a261019d3660046113e3565b610491565b005b6101296101b23660046113b0565b61051a565b6101ca6101c5366004611416565b610754565b6040516101359190611434565b6101296101e5366004611416565b6001600160a01b038216600090815260046020908152604080832063ffffffff8516845290915290205460ff1692915050565b610129610226366004611416565b6001600160a01b0391909116600090815260056020908152604080832063ffffffff9490941683529290522060020154610100900460ff1690565b6101a261026f36600461147d565b6107fc565b610287610282366004611416565b6108b7565b60405161013591906114f4565b6101296102a2366004611533565b610971565b6102ba6102b5366004611416565b610a72565b60405160ff9091168152602001610135565b6101296102da3660046113b0565b610cf7565b6101296102ed366004611533565b610f1e565b6101296103003660046113b0565b610fea565b6101ca610313366004611416565b611155565b33600090815260046020908152604080832063ffffffff86168452909152812054839060ff1661035b57604051637c748e2960e01b815260040160405180910390fd5b828063ffffffff1660000361038357604051637ae9080f60e11b815260040160405180910390fd5b61038e338686610971565b156103ac5760405163433aca2960e01b815260040160405180910390fd5b33600090815260016020818152604080842063ffffffff8a8116808752918452918520805480860182558187529386206008850401805460079095166004026101000a80850219909516938b169490940292909217909255925290546104129190611578565b33600081815260036020908152604080832063ffffffff8b81168086529184528285208b821680875290855294839020805463ffffffff19169790911696909617909555519182527f64ed0b78fd4903b0c4a53da49298cec5f2ab5e723bbe6ba4602be84cc8c5fc6591015b60405180910390a3506001949350505050565b61049a816111d2565b33600081815260056020908152604080832063ffffffff861680855290835281842080546001600160a01b031916815560018101949094556002909301805461ffff191690558051928352908201929092527f9c33cb453d76063bb338c509094bd32900fe4a7e3ccbb52ef947618994a4a6c3910160405180910390a150565b33600090815260046020908152604080832063ffffffff86168452909152812054839060ff1661055d57604051637c748e2960e01b815260040160405180910390fd5b610568338585610f1e565b61058557604051630163c8ad60e71b815260040160405180910390fd5b3360008181526020818152604080832063ffffffff808a168086529184528285209585526002845282852091855290835281842088821685529092528220548354911691906105d690600190611578565b90508163ffffffff16811461069c5760008382815481106105f9576105f9611599565b6000918252602080832060088304015433845260028252604080852063ffffffff8e8116875290845281862060079095166004026101000a9092048216808652939092529220805463ffffffff19169286169283179055855490925082918691811061066757610667611599565b90600052602060002090600891828204019190066004026101000a81548163ffffffff021916908363ffffffff160217905550505b828054806106ac576106ac6115af565b6000828152602080822060086000199490940193840401805463ffffffff600460078716026101000a81021990911690915592909355338082526002845260408083208c8516808552908652818420948c1680855294865292819020805463ffffffff1916905551928352909290917fc29fe8f04eaa995e540803e6abbd839f149e3b6b8dc9d66f7b411e6ad92f1ebf91015b60405180910390a35060019695505050505050565b6001600160a01b038216600090815260016020908152604080832063ffffffff851684528252918290208054835181840281018401909452808452606093928301828280156107ee57602002820191906000526020600020906000905b82829054906101000a900463ffffffff1663ffffffff16815260200190600401906020826003010492830192600103820291508084116107b15790505b505050505090505b92915050565b80600561080f60608301604084016115d2565b6005811115610820576108206114bc565b111561083f5760405163d9e2f2ed60e01b815260040160405180910390fd5b33600090815260056020908152604080832063ffffffff871684529091529020829061086b82826115fd565b905050610877836112d2565b7f614e762cdffd5250dad0817ed49d3fbf0b9decd46649fc6f9dbc979bd1bf64108333846040516108aa93929190611699565b60405180910390a1505050565b6040805160808101825260008082526020820181905291810182905260608101919091526001600160a01b03808416600090815260056020818152604080842063ffffffff881685528252928390208351608081018552815490951685526001810154918501919091526002810154909284019160ff90911690811115610940576109406114bc565b6005811115610951576109516114bc565b815260029190910154610100900460ff1615156020909101529392505050565b6001600160a01b038316600081815260036020908152604080832063ffffffff80881680865291845282852087821686528452828520549585526001845282852091855292528220549192169015806109f357506001600160a01b038516600090815260016020908152604080832063ffffffff881684529091529020548110155b15610a02576000915050610a6b565b6001600160a01b038516600090815260016020908152604080832063ffffffff8881168552925290912080549185169183908110610a4257610a42611599565b6000918252602090912060088204015460079091166004026101000a900463ffffffff16149150505b9392505050565b6001600160a01b03808316600090815260056020818152604080842063ffffffff87168552825280842081516080810183528154909616865260018101549286019290925260028201549394859490939184019160ff90911690811115610adb57610adb6114bc565b6005811115610aec57610aec6114bc565b815260029190910154610100900460ff16151560209091015280519091506000906001600160a01b031615610b8d5781516040516370a0823160e01b81526001600160a01b038781166004830152909116906370a0823190602401602060405180830381865afa158015610b64573d6000803e3d6000fd5b505050506040513d601f19601f82011682018060405250810190610b889190611715565b610b99565b846001600160a01b0316315b9050600182604001516005811115610bb357610bb36114bc565b1480610bd45750600382604001516005811115610bd257610bd26114bc565b145b15610bf0578160200151811115610bf0576001925050506107f6565b600082604001516005811115610c0857610c086114bc565b1480610c295750600482604001516005811115610c2757610c276114bc565b145b15610c45578160200151811015610c45576001925050506107f6565b600282604001516005811115610c5d57610c5d6114bc565b1480610c7e5750600382604001516005811115610c7c57610c7c6114bc565b145b80610c9e5750600482604001516005811115610c9c57610c9c6114bc565b145b15610cb95781602001518103610cb9576001925050506107f6565b600582604001516005811115610cd157610cd16114bc565b03610cec5781602001518114610cec576001925050506107f6565b506000949350505050565b33600090815260046020908152604080832063ffffffff86168452909152812054839060ff16610d3a57604051637c748e2960e01b815260040160405180910390fd5b610d45338585610971565b610d615760405162ede60b60e71b815260040160405180910390fd5b33600081815260016020818152604080842063ffffffff808b16808752918452828620968652600384528286209186529083528185208982168652909252832054845491169291610db191611578565b90508163ffffffff168114610e77576000838281548110610dd457610dd4611599565b6000918252602080832060088304015433845260038252604080852063ffffffff8e8116875290845281862060079095166004026101000a9092048216808652939092529220805463ffffffff191692861692831790558554909250829186918110610e4257610e42611599565b90600052602060002090600891828204019190066004026101000a81548163ffffffff021916908363ffffffff160217905550505b82805480610e8757610e876115af565b6000828152602080822060086000199490940193840401805463ffffffff600460078716026101000a81021990911690915592909355338082526003845260408083208c8516808552908652818420948c1680855294865292819020805463ffffffff1916905551928352909290917f2be6cc3208d4434b357c0fdd8ae07d6e1f69605413b29b13d68bbd943a225dea910161073f565b6001600160a01b038316600081815260026020908152604080832063ffffffff80881680865291845282852087821686528452828520549585528484528285209185529252822054919216901580610f9d57506001600160a01b03851660009081526020818152604080832063ffffffff881684529091529020548110155b15610fac576000915050610a6b565b6001600160a01b03851660009081526020818152604080832063ffffffff8881168552925290912080549185169183908110610a4257610a42611599565b33600090815260046020908152604080832063ffffffff86168452909152812054839060ff1661102d57604051637c748e2960e01b815260040160405180910390fd5b828063ffffffff1660000361105557604051637ae9080f60e11b815260040160405180910390fd5b611060338686610f1e565b1561107e57604051630662978b60e51b815260040160405180910390fd5b3360009081526020818152604080832063ffffffff8981168086529184529184208054600180820183558287529486206008820401805460079092166004026101000a80860219909216948b16919091029390931790925590925290546110e59190611578565b33600081815260026020908152604080832063ffffffff8b81168086529184528285208b821680875290855294839020805463ffffffff19169790911696909617909555519182527fe4fed7933c124d57c605c2c0c04bf0518034d885e739653e3cc6667526d65d16910161047e565b6001600160a01b03821660009081526020818152604080832063ffffffff851684528252918290208054835181840281018401909452808452606093928301828280156107ee576000918252602091829020805463ffffffff1684529082028301929091600491018084116107b157509498975050505050505050565b33600090815260046020908152604080832063ffffffff85168452909152902054819060ff1661121557604051637c748e2960e01b815260040160405180910390fd5b33600090815260016020908152604080832063ffffffff8616845290915290205415158061126057503360009081526020818152604080832063ffffffff8616845290915290205415155b1561127e57604051637b28591360e01b815260040160405180910390fd5b33600081815260046020908152604080832063ffffffff87168085529252808320805460ff19169055519092917fb0f65a798e2cdda82f7d8ae7ab05d5c06b04d3f8470e4765ff56af507889d19c91a35050565b33600090815260046020908152604080832063ffffffff85168452909152902054819060ff1615611316576040516303d0619f60e61b815260040160405180910390fd5b818063ffffffff1660000361133e57604051637ae9080f60e11b815260040160405180910390fd5b505033600090815260046020908152604080832063ffffffff909416835292905220805460ff19166001179055565b60006020828403121561137f57600080fd5b81356001600160e01b031981168114610a6b57600080fd5b803563ffffffff811681146113ab57600080fd5b919050565b600080604083850312156113c357600080fd5b6113cc83611397565b91506113da60208401611397565b90509250929050565b6000602082840312156113f557600080fd5b610a6b82611397565b6001600160a01b038116811461141357600080fd5b50565b6000806040838503121561142957600080fd5b82356113cc816113fe565b602080825282518282018190526000918401906040840190835b8181101561147257835163ffffffff1683526020938401939092019160010161144e565b509095945050505050565b60008082840360a081121561149157600080fd5b61149a84611397565b92506080601f19820112156114ae57600080fd5b506020830190509250929050565b634e487b7160e01b600052602160045260246000fd5b600681106114f057634e487b7160e01b600052602160045260246000fd5b9052565b81516001600160a01b03168152602080830151908201526040808301516080830191611522908401826114d2565b506060928301511515919092015290565b60008060006060848603121561154857600080fd5b8335611553816113fe565b925061156160208501611397565b915061156f60408501611397565b90509250925092565b818103818111156107f657634e487b7160e01b600052601160045260246000fd5b634e487b7160e01b600052603260045260246000fd5b634e487b7160e01b600052603160045260246000fd5b6006811061141357600080fd5b6000602082840312156115e457600080fd5b8135610a6b816115c5565b801515811461141357600080fd5b8135611608816113fe565b81546001600160a01b0319166001600160a01b03919091161781556020820135600182015560028101604083013561163f816115c5565b6006811061165d57634e487b7160e01b600052602160045260246000fd5b60ff1982541660ff82168117835550506000606084013561167d816115ef565b825461ff00191681151560081b61ff0016178355905050505050565b63ffffffff841681526001600160a01b038316602082015260c0810182356116c0816113fe565b6001600160a01b0316604083810191909152602084013560608401528301356116e8816115c5565b6116f560808401826114d2565b506060830135611704816115ef565b80151560a084015250949350505050565b60006020828403121561172757600080fd5b505191905056fea2646970667358221220c7fe0bed465c9988a8dacd475080bfdfdea3055ef7c65032b7f0dc97895e1b0f64736f6c634300081c0033",
          "opcodes": "PUSH1 0x80 PUSH1 0x40 MSTORE CALLVALUE DUP1 ISZERO PUSH1 0xF JUMPI PUSH1 0x0 DUP1 REVERT JUMPDEST POP PUSH2 0x1764 DUP1 PUSH2 0x1F PUSH1 0x0 CODECOPY PUSH1 0x0 RETURN INVALID PUSH1 0x80 PUSH1 0x40 MSTORE CALLVALUE DUP1 ISZERO PUSH2 0x10 JUMPI PUSH1 0x0 DUP1 REVERT JUMPDEST POP PUSH1 0x4 CALLDATASIZE LT PUSH2 0x100 JUMPI PUSH1 0x0 CALLDATALOAD PUSH1 0xE0 SHR DUP1 PUSH4 0x6C088BB0 GT PUSH2 0x97 JUMPI DUP1 PUSH4 0x8A4914C2 GT PUSH2 0x66 JUMPI DUP1 PUSH4 0x8A4914C2 EQ PUSH2 0x2CC JUMPI DUP1 PUSH4 0xD8CD9C1B EQ PUSH2 0x2DF JUMPI DUP1 PUSH4 0xE5012FB4 EQ PUSH2 0x2F2 JUMPI DUP1 PUSH4 0xEEC93DD0 EQ PUSH2 0x305 JUMPI PUSH1 0x0 DUP1 REVERT JUMPDEST DUP1 PUSH4 0x6C088BB0 EQ PUSH2 0x261 JUMPI DUP1 PUSH4 0x6F2B9AFF EQ PUSH2 0x274 JUMPI DUP1 PUSH4 0x8455C3D0 EQ PUSH2 0x294 JUMPI DUP1 PUSH4 0x89A78A03 EQ PUSH2 0x2A7 JUMPI PUSH1 0x0 DUP1 REVERT JUMPDEST DUP1 PUSH4 0x14B0AF70 GT PUSH2 0xD3 JUMPI DUP1 PUSH4 0x14B0AF70 EQ PUSH2 0x1A4 JUMPI DUP1 PUSH4 0x384C879D EQ PUSH2 0x1B7 JUMPI DUP1 PUSH4 0x4FDCABB8 EQ PUSH2 0x1D7 JUMPI DUP1 PUSH4 0x57182CAE EQ PUSH2 0x218 JUMPI PUSH1 0x0 DUP1 REVERT JUMPDEST DUP1 PUSH4 0x1FFC9A7 EQ PUSH2 0x105 JUMPI DUP1 PUSH4 0x23EF5A9 EQ PUSH2 0x13E JUMPI DUP1 PUSH4 0x3D049BB EQ PUSH2 0x151 JUMPI DUP1 PUSH4 0x1245F298 EQ PUSH2 0x18F JUMPI JUMPDEST PUSH1 0x0 DUP1 REVERT JUMPDEST PUSH2 0x129 PUSH2 0x113 CALLDATASIZE PUSH1 0x4 PUSH2 0x136D JUMP JUMPDEST PUSH1 0x1 PUSH1 0x1 PUSH1 0xE0 SHL SUB NOT AND PUSH4 0x732D321F PUSH1 0xE0 SHL EQ SWAP1 JUMP JUMPDEST PUSH1 0x40 MLOAD SWAP1 ISZERO ISZERO DUP2 MSTORE PUSH1 0x20 ADD JUMPDEST PUSH1 0x40 MLOAD DUP1 SWAP2 SUB SWAP1 RETURN JUMPDEST PUSH2 0x129 PUSH2 0x14C CALLDATASIZE PUSH1 0x4 PUSH2 0x13B0 JUMP JUMPDEST PUSH2 0x318 JUMP JUMPDEST PUSH2 0x129 PUSH2 0x15F CALLDATASIZE PUSH1 0x4 PUSH2 0x13E3 JUMP JUMPDEST CALLER PUSH1 0x0 SWAP1 DUP2 MSTORE PUSH1 0x5 PUSH1 0x20 SWAP1 DUP2 MSTORE PUSH1 0x40 DUP1 DUP4 KECCAK256 PUSH4 0xFFFFFFFF SWAP1 SWAP5 AND DUP4 MSTORE SWAP3 SWAP1 MSTORE KECCAK256 PUSH1 0x2 ADD SLOAD PUSH1 0xFF PUSH2 0x100 SWAP1 SWAP2 DIV AND SWAP1 JUMP JUMPDEST PUSH2 0x1A2 PUSH2 0x19D CALLDATASIZE PUSH1 0x4 PUSH2 0x13E3 JUMP JUMPDEST PUSH2 0x491 JUMP JUMPDEST STOP JUMPDEST PUSH2 0x129 PUSH2 0x1B2 CALLDATASIZE PUSH1 0x4 PUSH2 0x13B0 JUMP JUMPDEST PUSH2 0x51A JUMP JUMPDEST PUSH2 0x1CA PUSH2 0x1C5 CALLDATASIZE PUSH1 0x4 PUSH2 0x1416 JUMP JUMPDEST PUSH2 0x754 JUMP JUMPDEST PUSH1 0x40 MLOAD PUSH2 0x135 SWAP2 SWAP1 PUSH2 0x1434 JUMP JUMPDEST PUSH2 0x129 PUSH2 0x1E5 CALLDATASIZE PUSH1 0x4 PUSH2 0x1416 JUMP JUMPDEST PUSH1 0x1 PUSH1 0x1 PUSH1 0xA0 SHL SUB DUP3 AND PUSH1 0x0 SWAP1 DUP2 MSTORE PUSH1 0x4 PUSH1 0x20 SWAP1 DUP2 MSTORE PUSH1 0x40 DUP1 DUP4 KECCAK256 PUSH4 0xFFFFFFFF DUP6 AND DUP5 MSTORE SWAP1 SWAP2 MSTORE SWAP1 KECCAK256 SLOAD PUSH1 0xFF AND SWAP3 SWAP2 POP POP JUMP JUMPDEST PUSH2 0x129 PUSH2 0x226 CALLDATASIZE PUSH1 0x4 PUSH2 0x1416 JUMP JUMPDEST PUSH1 0x1 PUSH1 0x1 PUSH1 0xA0 SHL SUB SWAP2 SWAP1 SWAP2 AND PUSH1 0x0 SWAP1 DUP2 MSTORE PUSH1 0x5 PUSH1 0x20 SWAP1 DUP2 MSTORE PUSH1 0x40 DUP1 DUP4 KECCAK256 PUSH4 0xFFFFFFFF SWAP5 SWAP1 SWAP5 AND DUP4 MSTORE SWAP3 SWAP1 MSTORE KECCAK256 PUSH1 0x2 ADD SLOAD PUSH2 0x100 SWAP1 DIV PUSH1 0xFF AND SWAP1 JUMP JUMPDEST PUSH2 0x1A2 PUSH2 0x26F CALLDATASIZE PUSH1 0x4 PUSH2 0x147D JUMP JUMPDEST PUSH2 0x7FC JUMP JUMPDEST PUSH2 0x287 PUSH2 0x282 CALLDATASIZE PUSH1 0x4 PUSH2 0x1416 JUMP JUMPDEST PUSH2 0x8B7 JUMP JUMPDEST PUSH1 0x40 MLOAD PUSH2 0x135 SWAP2 SWAP1 PUSH2 0x14F4 JUMP JUMPDEST PUSH2 0x129 PUSH2 0x2A2 CALLDATASIZE PUSH1 0x4 PUSH2 0x1533 JUMP JUMPDEST PUSH2 0x971 JUMP JUMPDEST PUSH2 0x2BA PUSH2 0x2B5 CALLDATASIZE PUSH1 0x4 PUSH2 0x1416 JUMP JUMPDEST PUSH2 0xA72 JUMP JUMPDEST PUSH1 0x40 MLOAD PUSH1 0xFF SWAP1 SWAP2 AND DUP2 MSTORE PUSH1 0x20 ADD PUSH2 0x135 JUMP JUMPDEST PUSH2 0x129 PUSH2 0x2DA CALLDATASIZE PUSH1 0x4 PUSH2 0x13B0 JUMP JUMPDEST PUSH2 0xCF7 JUMP JUMPDEST PUSH2 0x129 PUSH2 0x2ED CALLDATASIZE PUSH1 0x4 PUSH2 0x1533 JUMP JUMPDEST PUSH2 0xF1E JUMP JUMPDEST PUSH2 0x129 PUSH2 0x300 CALLDATASIZE PUSH1 0x4 PUSH2 0x13B0 JUMP JUMPDEST PUSH2 0xFEA JUMP JUMPDEST PUSH2 0x1CA PUSH2 0x313 CALLDATASIZE PUSH1 0x4 PUSH2 0x1416 JUMP JUMPDEST PUSH2 0x1155 JUMP JUMPDEST CALLER PUSH1 0x0 SWAP1 DUP2 MSTORE PUSH1 0x4 PUSH1 0x20 SWAP1 DUP2 MSTORE PUSH1 0x40 DUP1 DUP4 KECCAK256 PUSH4 0xFFFFFFFF DUP7 AND DUP5 MSTORE SWAP1 SWAP2 MSTORE DUP2 KECCAK256 SLOAD DUP4 SWAP1 PUSH1 0xFF AND PUSH2 0x35B JUMPI PUSH1 0x40 MLOAD PUSH4 0x7C748E29 PUSH1 0xE0 SHL DUP2 MSTORE PUSH1 0x4 ADD PUSH1 0x40 MLOAD DUP1 SWAP2 SUB SWAP1 REVERT JUMPDEST DUP3 DUP1 PUSH4 0xFFFFFFFF AND PUSH1 0x0 SUB PUSH2 0x383 JUMPI PUSH1 0x40 MLOAD PUSH4 0x7AE9080F PUSH1 0xE1 SHL DUP2 MSTORE PUSH1 0x4 ADD PUSH1 0x40 MLOAD DUP1 SWAP2 SUB SWAP1 REVERT JUMPDEST PUSH2 0x38E CALLER DUP7 DUP7 PUSH2 0x971 JUMP JUMPDEST ISZERO PUSH2 0x3AC JUMPI PUSH1 0x40 MLOAD PUSH4 0x433ACA29 PUSH1 0xE0 SHL DUP2 MSTORE PUSH1 0x4 ADD PUSH1 0x40 MLOAD DUP1 SWAP2 SUB SWAP1 REVERT JUMPDEST CALLER PUSH1 0x0 SWAP1 DUP2 MSTORE PUSH1 0x1 PUSH1 0x20 DUP2 DUP2 MSTORE PUSH1 0x40 DUP1 DUP5 KECCAK256 PUSH4 0xFFFFFFFF DUP11 DUP2 AND DUP1 DUP8 MSTORE SWAP2 DUP5 MSTORE SWAP2 DUP6 KECCAK256 DUP1 SLOAD DUP1 DUP7 ADD DUP3 SSTORE DUP2 DUP8 MSTORE SWAP4 DUP7 KECCAK256 PUSH1 0x8 DUP6 DIV ADD DUP1 SLOAD PUSH1 0x7 SWAP1 SWAP6 AND PUSH1 0x4 MUL PUSH2 0x100 EXP DUP1 DUP6 MUL NOT SWAP1 SWAP6 AND SWAP4 DUP12 AND SWAP5 SWAP1 SWAP5 MUL SWAP3 SWAP1 SWAP3 OR SWAP1 SWAP3 SSTORE SWAP3 MSTORE SWAP1 SLOAD PUSH2 0x412 SWAP2 SWAP1 PUSH2 0x1578 JUMP JUMPDEST CALLER PUSH1 0x0 DUP2 DUP2 MSTORE PUSH1 0x3 PUSH1 0x20 SWAP1 DUP2 MSTORE PUSH1 0x40 DUP1 DUP4 KECCAK256 PUSH4 0xFFFFFFFF DUP12 DUP2 AND DUP1 DUP7 MSTORE SWAP2 DUP5 MSTORE DUP3 DUP6 KECCAK256 DUP12 DUP3 AND DUP1 DUP8 MSTORE SWAP1 DUP6 MSTORE SWAP5 DUP4 SWAP1 KECCAK256 DUP1 SLOAD PUSH4 0xFFFFFFFF NOT AND SWAP8 SWAP1 SWAP2 AND SWAP7 SWAP1 SWAP7 OR SWAP1 SWAP6 SSTORE MLOAD SWAP2 DUP3 MSTORE PUSH32 0x64ED0B78FD4903B0C4A53DA49298CEC5F2AB5E723BBE6BA4602BE84CC8C5FC65 SWAP2 ADD JUMPDEST PUSH1 0x40 MLOAD DUP1 SWAP2 SUB SWAP1 LOG3 POP PUSH1 0x1 SWAP5 SWAP4 POP POP POP POP JUMP JUMPDEST PUSH2 0x49A DUP2 PUSH2 0x11D2 JUMP JUMPDEST CALLER PUSH1 0x0 DUP2 DUP2 MSTORE PUSH1 0x5 PUSH1 0x20 SWAP1 DUP2 MSTORE PUSH1 0x40 DUP1 DUP4 KECCAK256 PUSH4 0xFFFFFFFF DUP7 AND DUP1 DUP6 MSTORE SWAP1 DUP4 MSTORE DUP2 DUP5 KECCAK256 DUP1 SLOAD PUSH1 0x1 PUSH1 0x1 PUSH1 0xA0 SHL SUB NOT AND DUP2 SSTORE PUSH1 0x1 DUP2 ADD SWAP5 SWAP1 SWAP5 SSTORE PUSH1 0x2 SWAP1 SWAP4 ADD DUP1 SLOAD PUSH2 0xFFFF NOT AND SWAP1 SSTORE DUP1 MLOAD SWAP3 DUP4 MSTORE SWAP1 DUP3 ADD SWAP3 SWAP1 SWAP3 MSTORE PUSH32 0x9C33CB453D76063BB338C509094BD32900FE4A7E3CCBB52EF947618994A4A6C3 SWAP2 ADD PUSH1 0x40 MLOAD DUP1 SWAP2 SUB SWAP1 LOG1 POP JUMP JUMPDEST CALLER PUSH1 0x0 SWAP1 DUP2 MSTORE PUSH1 0x4 PUSH1 0x20 SWAP1 DUP2 MSTORE PUSH1 0x40 DUP1 DUP4 KECCAK256 PUSH4 0xFFFFFFFF DUP7 AND DUP5 MSTORE SWAP1 SWAP2 MSTORE DUP2 KECCAK256 SLOAD DUP4 SWAP1 PUSH1 0xFF AND PUSH2 0x55D JUMPI PUSH1 0x40 MLOAD PUSH4 0x7C748E29 PUSH1 0xE0 SHL DUP2 MSTORE PUSH1 0x4 ADD PUSH1 0x40 MLOAD DUP1 SWAP2 SUB SWAP1 REVERT JUMPDEST PUSH2 0x568 CALLER DUP6 DUP6 PUSH2 0xF1E JUMP JUMPDEST PUSH2 0x585 JUMPI PUSH1 0x40 MLOAD PUSH4 0x163C8AD PUSH1 0xE7 SHL DUP2 MSTORE PUSH1 0x4 ADD PUSH1 0x40 MLOAD DUP1 SWAP2 SUB SWAP1 REVERT JUMPDEST CALLER PUSH1 0x0 DUP2 DUP2 MSTORE PUSH1 0x20 DUP2 DUP2 MSTORE PUSH1 0x40 DUP1 DUP4 KECCAK256 PUSH4 0xFFFFFFFF DUP1 DUP11 AND DUP1 DUP7 MSTORE SWAP2 DUP5 MSTORE DUP3 DUP6 KECCAK256 SWAP6 DUP6 MSTORE PUSH1 0x2 DUP5 MSTORE DUP3 DUP6 KECCAK256 SWAP2 DUP6 MSTORE SWAP1 DUP4 MSTORE DUP2 DUP5 KECCAK256 DUP9 DUP3 AND DUP6 MSTORE SWAP1 SWAP3 MSTORE DUP3 KECCAK256 SLOAD DUP4 SLOAD SWAP2 AND SWAP2 SWAP1 PUSH2 0x5D6 SWAP1 PUSH1 0x1 SWAP1 PUSH2 0x1578 JUMP JUMPDEST SWAP1 POP DUP2 PUSH4 0xFFFFFFFF AND DUP2 EQ PUSH2 0x69C JUMPI PUSH1 0x0 DUP4 DUP3 DUP2 SLOAD DUP2 LT PUSH2 0x5F9 JUMPI PUSH2 0x5F9 PUSH2 0x1599 JUMP JUMPDEST PUSH1 0x0 SWAP2 DUP3 MSTORE PUSH1 0x20 DUP1 DUP4 KECCAK256 PUSH1 0x8 DUP4 DIV ADD SLOAD CALLER DUP5 MSTORE PUSH1 0x2 DUP3 MSTORE PUSH1 0x40 DUP1 DUP6 KECCAK256 PUSH4 0xFFFFFFFF DUP15 DUP2 AND DUP8 MSTORE SWAP1 DUP5 MSTORE DUP2 DUP7 KECCAK256 PUSH1 0x7 SWAP1 SWAP6 AND PUSH1 0x4 MUL PUSH2 0x100 EXP SWAP1 SWAP3 DIV DUP3 AND DUP1 DUP7 MSTORE SWAP4 SWAP1 SWAP3 MSTORE SWAP3 KECCAK256 DUP1 SLOAD PUSH4 0xFFFFFFFF NOT AND SWAP3 DUP7 AND SWAP3 DUP4 OR SWAP1 SSTORE DUP6 SLOAD SWAP1 SWAP3 POP DUP3 SWAP2 DUP7 SWAP2 DUP2 LT PUSH2 0x667 JUMPI PUSH2 0x667 PUSH2 0x1599 JUMP JUMPDEST SWAP1 PUSH1 0x0 MSTORE PUSH1 0x20 PUSH1 0x0 KECCAK256 SWAP1 PUSH1 0x8 SWAP2 DUP3 DUP3 DIV ADD SWAP2 SWAP1 MOD PUSH1 0x4 MUL PUSH2 0x100 EXP DUP2 SLOAD DUP2 PUSH4 0xFFFFFFFF MUL NOT AND SWAP1 DUP4 PUSH4 0xFFFFFFFF AND MUL OR SWAP1 SSTORE POP POP JUMPDEST DUP3 DUP1 SLOAD DUP1 PUSH2 0x6AC JUMPI PUSH2 0x6AC PUSH2 0x15AF JUMP JUMPDEST PUSH1 0x0 DUP3 DUP2 MSTORE PUSH1 0x20 DUP1 DUP3 KECCAK256 PUSH1 0x8 PUSH1 0x0 NOT SWAP5 SWAP1 SWAP5 ADD SWAP4 DUP5 DIV ADD DUP1 SLOAD PUSH4 0xFFFFFFFF PUSH1 0x4 PUSH1 0x7 DUP8 AND MUL PUSH2 0x100 EXP DUP2 MUL NOT SWAP1 SWAP2 AND SWAP1 SWAP2 SSTORE SWAP3 SWAP1 SWAP4 SSTORE CALLER DUP1 DUP3 MSTORE PUSH1 0x2 DUP5 MSTORE PUSH1 0x40 DUP1 DUP4 KECCAK256 DUP13 DUP6 AND DUP1 DUP6 MSTORE SWAP1 DUP7 MSTORE DUP2 DUP5 KECCAK256 SWAP5 DUP13 AND DUP1 DUP6 MSTORE SWAP5 DUP7 MSTORE SWAP3 DUP2 SWAP1 KECCAK256 DUP1 SLOAD PUSH4 0xFFFFFFFF NOT AND SWAP1 SSTORE MLOAD SWAP3 DUP4 MSTORE SWAP1 SWAP3 SWAP1 SWAP2 PUSH32 0xC29FE8F04EAA995E540803E6ABBD839F149E3B6B8DC9D66F7B411E6AD92F1EBF SWAP2 ADD JUMPDEST PUSH1 0x40 MLOAD DUP1 SWAP2 SUB SWAP1 LOG3 POP PUSH1 0x1 SWAP7 SWAP6 POP POP POP POP POP POP JUMP JUMPDEST PUSH1 0x1 PUSH1 0x1 PUSH1 0xA0 SHL SUB DUP3 AND PUSH1 0x0 SWAP1 DUP2 MSTORE PUSH1 0x1 PUSH1 0x20 SWAP1 DUP2 MSTORE PUSH1 0x40 DUP1 DUP4 KECCAK256 PUSH4 0xFFFFFFFF DUP6 AND DUP5 MSTORE DUP3 MSTORE SWAP2 DUP3 SWAP1 KECCAK256 DUP1 SLOAD DUP4 MLOAD DUP2 DUP5 MUL DUP2 ADD DUP5 ADD SWAP1 SWAP5 MSTORE DUP1 DUP5 MSTORE PUSH1 0x60 SWAP4 SWAP3 DUP4 ADD DUP3 DUP3 DUP1 ISZERO PUSH2 0x7EE JUMPI PUSH1 0x20 MUL DUP3 ADD SWAP2 SWAP1 PUSH1 0x0 MSTORE PUSH1 0x20 PUSH1 0x0 KECCAK256 SWAP1 PUSH1 0x0 SWAP1 JUMPDEST DUP3 DUP3 SWAP1 SLOAD SWAP1 PUSH2 0x100 EXP SWAP1 DIV PUSH4 0xFFFFFFFF AND PUSH4 0xFFFFFFFF AND DUP2 MSTORE PUSH1 0x20 ADD SWAP1 PUSH1 0x4 ADD SWAP1 PUSH1 0x20 DUP3 PUSH1 0x3 ADD DIV SWAP3 DUP4 ADD SWAP3 PUSH1 0x1 SUB DUP3 MUL SWAP2 POP DUP1 DUP5 GT PUSH2 0x7B1 JUMPI SWAP1 POP JUMPDEST POP POP POP POP POP SWAP1 POP JUMPDEST SWAP3 SWAP2 POP POP JUMP JUMPDEST DUP1 PUSH1 0x5 PUSH2 0x80F PUSH1 0x60 DUP4 ADD PUSH1 0x40 DUP5 ADD PUSH2 0x15D2 JUMP JUMPDEST PUSH1 0x5 DUP2 GT ISZERO PUSH2 0x820 JUMPI PUSH2 0x820 PUSH2 0x14BC JUMP JUMPDEST GT ISZERO PUSH2 0x83F JUMPI PUSH1 0x40 MLOAD PUSH4 0xD9E2F2ED PUSH1 0xE0 SHL DUP2 MSTORE PUSH1 0x4 ADD PUSH1 0x40 MLOAD DUP1 SWAP2 SUB SWAP1 REVERT JUMPDEST CALLER PUSH1 0x0 SWAP1 DUP2 MSTORE PUSH1 0x5 PUSH1 0x20 SWAP1 DUP2 MSTORE PUSH1 0x40 DUP1 DUP4 KECCAK256 PUSH4 0xFFFFFFFF DUP8 AND DUP5 MSTORE SWAP1 SWAP2 MSTORE SWAP1 KECCAK256 DUP3 SWAP1 PUSH2 0x86B DUP3 DUP3 PUSH2 0x15FD JUMP JUMPDEST SWAP1 POP POP PUSH2 0x877 DUP4 PUSH2 0x12D2 JUMP JUMPDEST PUSH32 0x614E762CDFFD5250DAD0817ED49D3FBF0B9DECD46649FC6F9DBC979BD1BF6410 DUP4 CALLER DUP5 PUSH1 0x40 MLOAD PUSH2 0x8AA SWAP4 SWAP3 SWAP2 SWAP1 PUSH2 0x1699 JUMP JUMPDEST PUSH1 0x40 MLOAD DUP1 SWAP2 SUB SWAP1 LOG1 POP POP POP JUMP JUMPDEST PUSH1 0x40 DUP1 MLOAD PUSH1 0x80 DUP2 ADD DUP3 MSTORE PUSH1 0x0 DUP1 DUP3 MSTORE PUSH1 0x20 DUP3 ADD DUP2 SWAP1 MSTORE SWAP2 DUP2 ADD DUP3 SWAP1 MSTORE PUSH1 0x60 DUP2 ADD SWAP2 SWAP1 SWAP2 MSTORE PUSH1 0x1 PUSH1 0x1 PUSH1 0xA0 SHL SUB DUP1 DUP5 AND PUSH1 0x0 SWAP1 DUP2 MSTORE PUSH1 0x5 PUSH1 0x20 DUP2 DUP2 MSTORE PUSH1 0x40 DUP1 DUP5 KECCAK256 PUSH4 0xFFFFFFFF DUP9 AND DUP6 MSTORE DUP3 MSTORE SWAP3 DUP4 SWAP1 KECCAK256 DUP4 MLOAD PUSH1 0x80 DUP2 ADD DUP6 MSTORE DUP2 SLOAD SWAP1 SWAP6 AND DUP6 MSTORE PUSH1 0x1 DUP2 ADD SLOAD SWAP2 DUP6 ADD SWAP2 SWAP1 SWAP2 MSTORE PUSH1 0x2 DUP2 ADD SLOAD SWAP1 SWAP3 DUP5 ADD SWAP2 PUSH1 0xFF SWAP1 SWAP2 AND SWAP1 DUP2 GT ISZERO PUSH2 0x940 JUMPI PUSH2 0x940 PUSH2 0x14BC JUMP JUMPDEST PUSH1 0x5 DUP2 GT ISZERO PUSH2 0x951 JUMPI PUSH2 0x951 PUSH2 0x14BC JUMP JUMPDEST DUP2 MSTORE PUSH1 0x2 SWAP2 SWAP1 SWAP2 ADD SLOAD PUSH2 0x100 SWAP1 DIV PUSH1 0xFF AND ISZERO ISZERO PUSH1 0x20 SWAP1 SWAP2 ADD MSTORE SWAP4 SWAP3 POP POP POP JUMP JUMPDEST PUSH1 0x1 PUSH1 0x1 PUSH1 0xA0 SHL SUB DUP4 AND PUSH1 0x0 DUP2 DUP2 MSTORE PUSH1 0x3 PUSH1 0x20 SWAP1 DUP2 MSTORE PUSH1 0x40 DUP1 DUP4 KECCAK256 PUSH4 0xFFFFFFFF DUP1 DUP9 AND DUP1 DUP7 MSTORE SWAP2 DUP5 MSTORE DUP3 DUP6 KECCAK256 DUP8 DUP3 AND DUP7 MSTORE DUP5 MSTORE DUP3 DUP6 KECCAK256 SLOAD SWAP6 DUP6 MSTORE PUSH1 0x1 DUP5 MSTORE DUP3 DUP6 KECCAK256 SWAP2 DUP6 MSTORE SWAP3 MSTORE DUP3 KECCAK256 SLOAD SWAP2 SWAP3 AND SWAP1 ISZERO DUP1 PUSH2 0x9F3 JUMPI POP PUSH1 0x1 PUSH1 0x1 PUSH1 0xA0 SHL SUB DUP6 AND PUSH1 0x0 SWAP1 DUP2 MSTORE PUSH1 0x1 PUSH1 0x20 SWAP1 DUP2 MSTORE PUSH1 0x40 DUP1 DUP4 KECCAK256 PUSH4 0xFFFFFFFF DUP9 AND DUP5 MSTORE SWAP1 SWAP2 MSTORE SWAP1 KECCAK256 SLOAD DUP2 LT ISZERO JUMPDEST ISZERO PUSH2 0xA02 JUMPI PUSH1 0x0 SWAP2 POP POP PUSH2 0xA6B JUMP JUMPDEST PUSH1 0x1 PUSH1 0x1 PUSH1 0xA0 SHL SUB DUP6 AND PUSH1 0x0 SWAP1 DUP2 MSTORE PUSH1 0x1 PUSH1 0x20 SWAP1 DUP2 MSTORE PUSH1 0x40 DUP1 DUP4 KECCAK256 PUSH4 0xFFFFFFFF DUP9 DUP2 AND DUP6 MSTORE SWAP3 MSTORE SWAP1 SWAP2 KECCAK256 DUP1 SLOAD SWAP2 DUP6 AND SWAP2 DUP4 SWAP1 DUP2 LT PUSH2 0xA42 JUMPI PUSH2 0xA42 PUSH2 0x1599 JUMP JUMPDEST PUSH1 0x0 SWAP2 DUP3 MSTORE PUSH1 0x20 SWAP1 SWAP2 KECCAK256 PUSH1 0x8 DUP3 DIV ADD SLOAD PUSH1 0x7 SWAP1 SWAP2 AND PUSH1 0x4 MUL PUSH2 0x100 EXP SWAP1 DIV PUSH4 0xFFFFFFFF AND EQ SWAP2 POP POP JUMPDEST SWAP4 SWAP3 POP POP POP JUMP JUMPDEST PUSH1 0x1 PUSH1 0x1 PUSH1 0xA0 SHL SUB DUP1 DUP4 AND PUSH1 0x0 SWAP1 DUP2 MSTORE PUSH1 0x5 PUSH1 0x20 DUP2 DUP2 MSTORE PUSH1 0x40 DUP1 DUP5 KECCAK256 PUSH4 0xFFFFFFFF DUP8 AND DUP6 MSTORE DUP3 MSTORE DUP1 DUP5 KECCAK256 DUP2 MLOAD PUSH1 0x80 DUP2 ADD DUP4 MSTORE DUP2 SLOAD SWAP1 SWAP7 AND DUP7 MSTORE PUSH1 0x1 DUP2 ADD SLOAD SWAP3 DUP7 ADD SWAP3 SWAP1 SWAP3 MSTORE PUSH1 0x2 DUP3 ADD SLOAD SWAP4 SWAP5 DUP6 SWAP5 SWAP1 SWAP4 SWAP2 DUP5 ADD SWAP2 PUSH1 0xFF SWAP1 SWAP2 AND SWAP1 DUP2 GT ISZERO PUSH2 0xADB JUMPI PUSH2 0xADB PUSH2 0x14BC JUMP JUMPDEST PUSH1 0x5 DUP2 GT ISZERO PUSH2 0xAEC JUMPI PUSH2 0xAEC PUSH2 0x14BC JUMP JUMPDEST DUP2 MSTORE PUSH1 0x2 SWAP2 SWAP1 SWAP2 ADD SLOAD PUSH2 0x100 SWAP1 DIV PUSH1 0xFF AND ISZERO ISZERO PUSH1 0x20 SWAP1 SWAP2 ADD MSTORE DUP1 MLOAD SWAP1 SWAP2 POP PUSH1 0x0 SWAP1 PUSH1 0x1 PUSH1 0x1 PUSH1 0xA0 SHL SUB AND ISZERO PUSH2 0xB8D JUMPI DUP2 MLOAD PUSH1 0x40 MLOAD PUSH4 0x70A08231 PUSH1 0xE0 SHL DUP2 MSTORE PUSH1 0x1 PUSH1 0x1 PUSH1 0xA0 SHL SUB DUP8 DUP2 AND PUSH1 0x4 DUP4 ADD MSTORE SWAP1 SWAP2 AND SWAP1 PUSH4 0x70A08231 SWAP1 PUSH1 0x24 ADD PUSH1 0x20 PUSH1 0x40 MLOAD DUP1 DUP4 SUB DUP2 DUP7 GAS STATICCALL ISZERO DUP1 ISZERO PUSH2 0xB64 JUMPI RETURNDATASIZE PUSH1 0x0 DUP1 RETURNDATACOPY RETURNDATASIZE PUSH1 0x0 REVERT JUMPDEST POP POP POP POP PUSH1 0x40 MLOAD RETURNDATASIZE PUSH1 0x1F NOT PUSH1 0x1F DUP3 ADD AND DUP3 ADD DUP1 PUSH1 0x40 MSTORE POP DUP2 ADD SWAP1 PUSH2 0xB88 SWAP2 SWAP1 PUSH2 0x1715 JUMP JUMPDEST PUSH2 0xB99 JUMP JUMPDEST DUP5 PUSH1 0x1 PUSH1 0x1 PUSH1 0xA0 SHL SUB AND BALANCE JUMPDEST SWAP1 POP PUSH1 0x1 DUP3 PUSH1 0x40 ADD MLOAD PUSH1 0x5 DUP2 GT ISZERO PUSH2 0xBB3 JUMPI PUSH2 0xBB3 PUSH2 0x14BC JUMP JUMPDEST EQ DUP1 PUSH2 0xBD4 JUMPI POP PUSH1 0x3 DUP3 PUSH1 0x40 ADD MLOAD PUSH1 0x5 DUP2 GT ISZERO PUSH2 0xBD2 JUMPI PUSH2 0xBD2 PUSH2 0x14BC JUMP JUMPDEST EQ JUMPDEST ISZERO PUSH2 0xBF0 JUMPI DUP2 PUSH1 0x20 ADD MLOAD DUP2 GT ISZERO PUSH2 0xBF0 JUMPI PUSH1 0x1 SWAP3 POP POP POP PUSH2 0x7F6 JUMP JUMPDEST PUSH1 0x0 DUP3 PUSH1 0x40 ADD MLOAD PUSH1 0x5 DUP2 GT ISZERO PUSH2 0xC08 JUMPI PUSH2 0xC08 PUSH2 0x14BC JUMP JUMPDEST EQ DUP1 PUSH2 0xC29 JUMPI POP PUSH1 0x4 DUP3 PUSH1 0x40 ADD MLOAD PUSH1 0x5 DUP2 GT ISZERO PUSH2 0xC27 JUMPI PUSH2 0xC27 PUSH2 0x14BC JUMP JUMPDEST EQ JUMPDEST ISZERO PUSH2 0xC45 JUMPI DUP2 PUSH1 0x20 ADD MLOAD DUP2 LT ISZERO PUSH2 0xC45 JUMPI PUSH1 0x1 SWAP3 POP POP POP PUSH2 0x7F6 JUMP JUMPDEST PUSH1 0x2 DUP3 PUSH1 0x40 ADD MLOAD PUSH1 0x5 DUP2 GT ISZERO PUSH2 0xC5D JUMPI PUSH2 0xC5D PUSH2 0x14BC JUMP JUMPDEST EQ DUP1 PUSH2 0xC7E JUMPI POP PUSH1 0x3 DUP3 PUSH1 0x40 ADD MLOAD PUSH1 0x5 DUP2 GT ISZERO PUSH2 0xC7C JUMPI PUSH2 0xC7C PUSH2 0x14BC JUMP JUMPDEST EQ JUMPDEST DUP1 PUSH2 0xC9E JUMPI POP PUSH1 0x4 DUP3 PUSH1 0x40 ADD MLOAD PUSH1 0x5 DUP2 GT ISZERO PUSH2 0xC9C JUMPI PUSH2 0xC9C PUSH2 0x14BC JUMP JUMPDEST EQ JUMPDEST ISZERO PUSH2 0xCB9 JUMPI DUP2 PUSH1 0x20 ADD MLOAD DUP2 SUB PUSH2 0xCB9 JUMPI PUSH1 0x1 SWAP3 POP POP POP PUSH2 0x7F6 JUMP JUMPDEST PUSH1 0x5 DUP3 PUSH1 0x40 ADD MLOAD PUSH1 0x5 DUP2 GT ISZERO PUSH2 0xCD1 JUMPI PUSH2 0xCD1 PUSH2 0x14BC JUMP JUMPDEST SUB PUSH2 0xCEC JUMPI DUP2 PUSH1 0x20 ADD MLOAD DUP2 EQ PUSH2 0xCEC JUMPI PUSH1 0x1 SWAP3 POP POP POP PUSH2 0x7F6 JUMP JUMPDEST POP PUSH1 0x0 SWAP5 SWAP4 POP POP POP POP JUMP JUMPDEST CALLER PUSH1 0x0 SWAP1 DUP2 MSTORE PUSH1 0x4 PUSH1 0x20 SWAP1 DUP2 MSTORE PUSH1 0x40 DUP1 DUP4 KECCAK256 PUSH4 0xFFFFFFFF DUP7 AND DUP5 MSTORE SWAP1 SWAP2 MSTORE DUP2 KECCAK256 SLOAD DUP4 SWAP1 PUSH1 0xFF AND PUSH2 0xD3A JUMPI PUSH1 0x40 MLOAD PUSH4 0x7C748E29 PUSH1 0xE0 SHL DUP2 MSTORE PUSH1 0x4 ADD PUSH1 0x40 MLOAD DUP1 SWAP2 SUB SWAP1 REVERT JUMPDEST PUSH2 0xD45 CALLER DUP6 DUP6 PUSH2 0x971 JUMP JUMPDEST PUSH2 0xD61 JUMPI PUSH1 0x40 MLOAD PUSH3 0xEDE60B PUSH1 0xE7 SHL DUP2 MSTORE PUSH1 0x4 ADD PUSH1 0x40 MLOAD DUP1 SWAP2 SUB SWAP1 REVERT JUMPDEST CALLER PUSH1 0x0 DUP2 DUP2 MSTORE PUSH1 0x1 PUSH1 0x20 DUP2 DUP2 MSTORE PUSH1 0x40 DUP1 DUP5 KECCAK256 PUSH4 0xFFFFFFFF DUP1 DUP12 AND DUP1 DUP8 MSTORE SWAP2 DUP5 MSTORE DUP3 DUP7 KECCAK256 SWAP7 DUP7 MSTORE PUSH1 0x3 DUP5 MSTORE DUP3 DUP7 KECCAK256 SWAP2 DUP7 MSTORE SWAP1 DUP4 MSTORE DUP2 DUP6 KECCAK256 DUP10 DUP3 AND DUP7 MSTORE SWAP1 SWAP3 MSTORE DUP4 KECCAK256 SLOAD DUP5 SLOAD SWAP2 AND SWAP3 SWAP2 PUSH2 0xDB1 SWAP2 PUSH2 0x1578 JUMP JUMPDEST SWAP1 POP DUP2 PUSH4 0xFFFFFFFF AND DUP2 EQ PUSH2 0xE77 JUMPI PUSH1 0x0 DUP4 DUP3 DUP2 SLOAD DUP2 LT PUSH2 0xDD4 JUMPI PUSH2 0xDD4 PUSH2 0x1599 JUMP JUMPDEST PUSH1 0x0 SWAP2 DUP3 MSTORE PUSH1 0x20 DUP1 DUP4 KECCAK256 PUSH1 0x8 DUP4 DIV ADD SLOAD CALLER DUP5 MSTORE PUSH1 0x3 DUP3 MSTORE PUSH1 0x40 DUP1 DUP6 KECCAK256 PUSH4 0xFFFFFFFF DUP15 DUP2 AND DUP8 MSTORE SWAP1 DUP5 MSTORE DUP2 DUP7 KECCAK256 PUSH1 0x7 SWAP1 SWAP6 AND PUSH1 0x4 MUL PUSH2 0x100 EXP SWAP1 SWAP3 DIV DUP3 AND DUP1 DUP7 MSTORE SWAP4 SWAP1 SWAP3 MSTORE SWAP3 KECCAK256 DUP1 SLOAD PUSH4 0xFFFFFFFF NOT AND SWAP3 DUP7 AND SWAP3 DUP4 OR SWAP1 SSTORE DUP6 SLOAD SWAP1 SWAP3 POP DUP3 SWAP2 DUP7 SWAP2 DUP2 LT PUSH2 0xE42 JUMPI PUSH2 0xE42 PUSH2 0x1599 JUMP JUMPDEST SWAP1 PUSH1 0x0 MSTORE PUSH1 0x20 PUSH1 0x0 KECCAK256 SWAP1 PUSH1 0x8 SWAP2 DUP3 DUP3 DIV ADD SWAP2 SWAP1 MOD PUSH1 0x4 MUL PUSH2 0x100 EXP DUP2 SLOAD DUP2 PUSH4 0xFFFFFFFF MUL NOT AND SWAP1 DUP4 PUSH4 0xFFFFFFFF AND MUL OR SWAP1 SSTORE POP POP JUMPDEST DUP3 DUP1 SLOAD DUP1 PUSH2 0xE87 JUMPI PUSH2 0xE87 PUSH2 0x15AF JUMP JUMPDEST PUSH1 0x0 DUP3 DUP2 MSTORE PUSH1 0x20 DUP1 DUP3 KECCAK256 PUSH1 0x8 PUSH1 0x0 NOT SWAP5 SWAP1 SWAP5 ADD SWAP4 DUP5 DIV ADD DUP1 SLOAD PUSH4 0xFFFFFFFF PUSH1 0x4 PUSH1 0x7 DUP8 AND MUL PUSH2 0x100 EXP DUP2 MUL NOT SWAP1 SWAP2 AND SWAP1 SWAP2 SSTORE SWAP3 SWAP1 SWAP4 SSTORE CALLER DUP1 DUP3 MSTORE PUSH1 0x3 DUP5 MSTORE PUSH1 0x40 DUP1 DUP4 KECCAK256 DUP13 DUP6 AND DUP1 DUP6 MSTORE SWAP1 DUP7 MSTORE DUP2 DUP5 KECCAK256 SWAP5 DUP13 AND DUP1 DUP6 MSTORE SWAP5 DUP7 MSTORE SWAP3 DUP2 SWAP1 KECCAK256 DUP1 SLOAD PUSH4 0xFFFFFFFF NOT AND SWAP1 SSTORE MLOAD SWAP3 DUP4 MSTORE SWAP1 SWAP3 SWAP1 SWAP2 PUSH32 0x2BE6CC3208D4434B357C0FDD8AE07D6E1F69605413B29B13D68BBD943A225DEA SWAP2 ADD PUSH2 0x73F JUMP JUMPDEST PUSH1 0x1 PUSH1 0x1 PUSH1 0xA0 SHL SUB DUP4 AND PUSH1 0x0 DUP2 DUP2 MSTORE PUSH1 0x2 PUSH1 0x20 SWAP1 DUP2 MSTORE PUSH1 0x40 DUP1 DUP4 KECCAK256 PUSH4 0xFFFFFFFF DUP1 DUP9 AND DUP1 DUP7 MSTORE SWAP2 DUP5 MSTORE DUP3 DUP6 KECCAK256 DUP8 DUP3 AND DUP7 MSTORE DUP5 MSTORE DUP3 DUP6 KECCAK256 SLOAD SWAP6 DUP6 MSTORE DUP5 DUP5 MSTORE DUP3 DUP6 KECCAK256 SWAP2 DUP6 MSTORE SWAP3 MSTORE DUP3 KECCAK256 SLOAD SWAP2 SWAP3 AND SWAP1 ISZERO DUP1 PUSH2 0xF9D JUMPI POP PUSH1 0x1 PUSH1 0x1 PUSH1 0xA0 SHL SUB DUP6 AND PUSH1 0x0 SWAP1 DUP2 MSTORE PUSH1 0x20 DUP2 DUP2 MSTORE PUSH1 0x40 DUP1 DUP4 KECCAK256 PUSH4 0xFFFFFFFF DUP9 AND DUP5 MSTORE SWAP1 SWAP2 MSTORE SWAP1 KECCAK256 SLOAD DUP2 LT ISZERO JUMPDEST ISZERO PUSH2 0xFAC JUMPI PUSH1 0x0 SWAP2 POP POP PUSH2 0xA6B JUMP JUMPDEST PUSH1 0x1 PUSH1 0x1 PUSH1 0xA0 SHL SUB DUP6 AND PUSH1 0x0 SWAP1 DUP2 MSTORE PUSH1 0x20 DUP2 DUP2 MSTORE PUSH1 0x40 DUP1 DUP4 KECCAK256 PUSH4 0xFFFFFFFF DUP9 DUP2 AND DUP6 MSTORE SWAP3 MSTORE SWAP1 SWAP2 KECCAK256 DUP1 SLOAD SWAP2 DUP6 AND SWAP2 DUP4 SWAP1 DUP2 LT PUSH2 0xA42 JUMPI PUSH2 0xA42 PUSH2 0x1599 JUMP JUMPDEST CALLER PUSH1 0x0 SWAP1 DUP2 MSTORE PUSH1 0x4 PUSH1 0x20 SWAP1 DUP2 MSTORE PUSH1 0x40 DUP1 DUP4 KECCAK256 PUSH4 0xFFFFFFFF DUP7 AND DUP5 MSTORE SWAP1 SWAP2 MSTORE DUP2 KECCAK256 SLOAD DUP4 SWAP1 PUSH1 0xFF AND PUSH2 0x102D JUMPI PUSH1 0x40 MLOAD PUSH4 0x7C748E29 PUSH1 0xE0 SHL DUP2 MSTORE PUSH1 0x4 ADD PUSH1 0x40 MLOAD DUP1 SWAP2 SUB SWAP1 REVERT JUMPDEST DUP3 DUP1 PUSH4 0xFFFFFFFF AND PUSH1 0x0 SUB PUSH2 0x1055 JUMPI PUSH1 0x40 MLOAD PUSH4 0x7AE9080F PUSH1 0xE1 SHL DUP2 MSTORE PUSH1 0x4 ADD PUSH1 0x40 MLOAD DUP1 SWAP2 SUB SWAP1 REVERT JUMPDEST PUSH2 0x1060 CALLER DUP7 DUP7 PUSH2 0xF1E JUMP JUMPDEST ISZERO PUSH2 0x107E JUMPI PUSH1 0x40 MLOAD PUSH4 0x662978B PUSH1 0xE5 SHL DUP2 MSTORE PUSH1 0x4 ADD PUSH1 0x40 MLOAD DUP1 SWAP2 SUB SWAP1 REVERT JUMPDEST CALLER PUSH1 0x0 SWAP1 DUP2 MSTORE PUSH1 0x20 DUP2 DUP2 MSTORE PUSH1 0x40 DUP1 DUP4 KECCAK256 PUSH4 0xFFFFFFFF DUP10 DUP2 AND DUP1 DUP7 MSTORE SWAP2 DUP5 MSTORE SWAP2 DUP5 KECCAK256 DUP1 SLOAD PUSH1 0x1 DUP1 DUP3 ADD DUP4 SSTORE DUP3 DUP8 MSTORE SWAP5 DUP7 KECCAK256 PUSH1 0x8 DUP3 DIV ADD DUP1 SLOAD PUSH1 0x7 SWAP1 SWAP3 AND PUSH1 0x4 MUL PUSH2 0x100 EXP DUP1 DUP7 MUL NOT SWAP1 SWAP3 AND SWAP5 DUP12 AND SWAP2 SWAP1 SWAP2 MUL SWAP4 SWAP1 SWAP4 OR SWAP1 SWAP3 SSTORE SWAP1 SWAP3 MSTORE SWAP1 SLOAD PUSH2 0x10E5 SWAP2 SWAP1 PUSH2 0x1578 JUMP JUMPDEST CALLER PUSH1 0x0 DUP2 DUP2 MSTORE PUSH1 0x2 PUSH1 0x20 SWAP1 DUP2 MSTORE PUSH1 0x40 DUP1 DUP4 KECCAK256 PUSH4 0xFFFFFFFF DUP12 DUP2 AND DUP1 DUP7 MSTORE SWAP2 DUP5 MSTORE DUP3 DUP6 KECCAK256 DUP12 DUP3 AND DUP1 DUP8 MSTORE SWAP1 DUP6 MSTORE SWAP5 DUP4 SWAP1 KECCAK256 DUP1 SLOAD PUSH4 0xFFFFFFFF NOT AND SWAP8 SWAP1 SWAP2 AND SWAP7 SWAP1 SWAP7 OR SWAP1 SWAP6 SSTORE MLOAD SWAP2 DUP3 MSTORE PUSH32 0xE4FED7933C124D57C605C2C0C04BF0518034D885E739653E3CC6667526D65D16 SWAP2 ADD PUSH2 0x47E JUMP JUMPDEST PUSH1 0x1 PUSH1 0x1 PUSH1 0xA0 SHL SUB DUP3 AND PUSH1 0x0 SWAP1 DUP2 MSTORE PUSH1 0x20 DUP2 DUP2 MSTORE PUSH1 0x40 DUP1 DUP4 KECCAK256 PUSH4 0xFFFFFFFF DUP6 AND DUP5 MSTORE DUP3 MSTORE SWAP2 DUP3 SWAP1 KECCAK256 DUP1 SLOAD DUP4 MLOAD DUP2 DUP5 MUL DUP2 ADD DUP5 ADD SWAP1 SWAP5 MSTORE DUP1 DUP5 MSTORE PUSH1 0x60 SWAP4 SWAP3 DUP4 ADD DUP3 DUP3 DUP1 ISZERO PUSH2 0x7EE JUMPI PUSH1 0x0 SWAP2 DUP3 MSTORE PUSH1 0x20 SWAP2 DUP3 SWAP1 KECCAK256 DUP1 SLOAD PUSH4 0xFFFFFFFF AND DUP5 MSTORE SWAP1 DUP3 MUL DUP4 ADD SWAP3 SWAP1 SWAP2 PUSH1 0x4 SWAP2 ADD DUP1 DUP5 GT PUSH2 0x7B1 JUMPI POP SWAP5 SWAP9 SWAP8 POP POP POP POP POP POP POP POP JUMP JUMPDEST CALLER PUSH1 0x0 SWAP1 DUP2 MSTORE PUSH1 0x4 PUSH1 0x20 SWAP1 DUP2 MSTORE PUSH1 0x40 DUP1 DUP4 KECCAK256 PUSH4 0xFFFFFFFF DUP6 AND DUP5 MSTORE SWAP1 SWAP2 MSTORE SWAP1 KECCAK256 SLOAD DUP2 SWAP1 PUSH1 0xFF AND PUSH2 0x1215 JUMPI PUSH1 0x40 MLOAD PUSH4 0x7C748E29 PUSH1 0xE0 SHL DUP2 MSTORE PUSH1 0x4 ADD PUSH1 0x40 MLOAD DUP1 SWAP2 SUB SWAP1 REVERT JUMPDEST CALLER PUSH1 0x0 SWAP1 DUP2 MSTORE PUSH1 0x1 PUSH1 0x20 SWAP1 DUP2 MSTORE PUSH1 0x40 DUP1 DUP4 KECCAK256 PUSH4 0xFFFFFFFF DUP7 AND DUP5 MSTORE SWAP1 SWAP2 MSTORE SWAP1 KECCAK256 SLOAD ISZERO ISZERO DUP1 PUSH2 0x1260 JUMPI POP CALLER PUSH1 0x0 SWAP1 DUP2 MSTORE PUSH1 0x20 DUP2 DUP2 MSTORE PUSH1 0x40 DUP1 DUP4 KECCAK256 PUSH4 0xFFFFFFFF DUP7 AND DUP5 MSTORE SWAP1 SWAP2 MSTORE SWAP1 KECCAK256 SLOAD ISZERO ISZERO JUMPDEST ISZERO PUSH2 0x127E JUMPI PUSH1 0x40 MLOAD PUSH4 0x7B285913 PUSH1 0xE0 SHL DUP2 MSTORE PUSH1 0x4 ADD PUSH1 0x40 MLOAD DUP1 SWAP2 SUB SWAP1 REVERT JUMPDEST CALLER PUSH1 0x0 DUP2 DUP2 MSTORE PUSH1 0x4 PUSH1 0x20 SWAP1 DUP2 MSTORE PUSH1 0x40 DUP1 DUP4 KECCAK256 PUSH4 0xFFFFFFFF DUP8 AND DUP1 DUP6 MSTORE SWAP3 MSTORE DUP1 DUP4 KECCAK256 DUP1 SLOAD PUSH1 0xFF NOT AND SWAP1 SSTORE MLOAD SWAP1 SWAP3 SWAP2 PUSH32 0xB0F65A798E2CDDA82F7D8AE7AB05D5C06B04D3F8470E4765FF56AF507889D19C SWAP2 LOG3 POP POP JUMP JUMPDEST CALLER PUSH1 0x0 SWAP1 DUP2 MSTORE PUSH1 0x4 PUSH1 0x20 SWAP1 DUP2 MSTORE PUSH1 0x40 DUP1 DUP4 KECCAK256 PUSH4 0xFFFFFFFF DUP6 AND DUP5 MSTORE SWAP1 SWAP2 MSTORE SWAP1 KECCAK256 SLOAD DUP2 SWAP1 PUSH1 0xFF AND ISZERO PUSH2 0x1316 JUMPI PUSH1 0x40 MLOAD PUSH4 0x3D0619F PUSH1 0xE6 SHL DUP2 MSTORE PUSH1 0x4 ADD PUSH1 0x40 MLOAD DUP1 SWAP2 SUB SWAP1 REVERT JUMPDEST DUP2 DUP1 PUSH4 0xFFFFFFFF AND PUSH1 0x0 SUB PUSH2 0x133E JUMPI PUSH1 0x40 MLOAD PUSH4 0x7AE9080F PUSH1 0xE1 SHL DUP2 MSTORE PUSH1 0x4 ADD PUSH1 0x40 MLOAD DUP1 SWAP2 SUB SWAP1 REVERT JUMPDEST POP POP CALLER PUSH1 0x0 SWAP1 DUP2 MSTORE PUSH1 0x4 PUSH1 0x20 SWAP1 DUP2 MSTORE PUSH1 0x40 DUP1 DUP4 KECCAK256 PUSH4 0xFFFFFFFF SWAP1 SWAP5 AND DUP4 MSTORE SWAP3 SWAP1 MSTORE KECCAK256 DUP1 SLOAD PUSH1 0xFF NOT AND PUSH1 0x1 OR SWAP1 SSTORE JUMP JUMPDEST PUSH1 0x0 PUSH1 0x20 DUP3 DUP5 SUB SLT ISZERO PUSH2 0x137F JUMPI PUSH1 0x0 DUP1 REVERT JUMPDEST DUP2 CALLDATALOAD PUSH1 0x1 PUSH1 0x1 PUSH1 0xE0 SHL SUB NOT DUP2 AND DUP2 EQ PUSH2 0xA6B JUMPI PUSH1 0x0 DUP1 REVERT JUMPDEST DUP1 CALLDATALOAD PUSH4 0xFFFFFFFF DUP2 AND DUP2 EQ PUSH2 0x13AB JUMPI PUSH1 0x0 DUP1 REVERT JUMPDEST SWAP2 SWAP1 POP JUMP JUMPDEST PUSH1 0x0 DUP1 PUSH1 0x40 DUP4 DUP6 SUB SLT ISZERO PUSH2 0x13C3 JUMPI PUSH1 0x0 DUP1 REVERT JUMPDEST PUSH2 0x13CC DUP4 PUSH2 0x1397 JUMP JUMPDEST SWAP2 POP PUSH2 0x13DA PUSH1 0x20 DUP5 ADD PUSH2 0x1397 JUMP JUMPDEST SWAP1 POP SWAP3 POP SWAP3 SWAP1 POP JUMP JUMPDEST PUSH1 0x0 PUSH1 0x20 DUP3 DUP5 SUB SLT ISZERO PUSH2 0x13F5 JUMPI PUSH1 0x0 DUP1 REVERT JUMPDEST PUSH2 0xA6B DUP3 PUSH2 0x1397 JUMP JUMPDEST PUSH1 0x1 PUSH1 0x1 PUSH1 0xA0 SHL SUB DUP2 AND DUP2 EQ PUSH2 0x1413 JUMPI PUSH1 0x0 DUP1 REVERT JUMPDEST POP JUMP JUMPDEST PUSH1 0x0 DUP1 PUSH1 0x40 DUP4 DUP6 SUB SLT ISZERO PUSH2 0x1429 JUMPI PUSH1 0x0 DUP1 REVERT JUMPDEST DUP3 CALLDATALOAD PUSH2 0x13CC DUP2 PUSH2 0x13FE JUMP JUMPDEST PUSH1 0x20 DUP1 DUP3 MSTORE DUP3 MLOAD DUP3 DUP3 ADD DUP2 SWAP1 MSTORE PUSH1 0x0 SWAP2 DUP5 ADD SWAP1 PUSH1 0x40 DUP5 ADD SWAP1 DUP4 JUMPDEST DUP2 DUP2 LT ISZERO PUSH2 0x1472 JUMPI DUP4 MLOAD PUSH4 0xFFFFFFFF AND DUP4 MSTORE PUSH1 0x20 SWAP4 DUP5 ADD SWAP4 SWAP1 SWAP3 ADD SWAP2 PUSH1 0x1 ADD PUSH2 0x144E JUMP JUMPDEST POP SWAP1 SWAP6 SWAP5 POP POP POP POP POP JUMP JUMPDEST PUSH1 0x0 DUP1 DUP3 DUP5 SUB PUSH1 0xA0 DUP2 SLT ISZERO PUSH2 0x1491 JUMPI PUSH1 0x0 DUP1 REVERT JUMPDEST PUSH2 0x149A DUP5 PUSH2 0x1397 JUMP JUMPDEST SWAP3 POP PUSH1 0x80 PUSH1 0x1F NOT DUP3 ADD SLT ISZERO PUSH2 0x14AE JUMPI PUSH1 0x0 DUP1 REVERT JUMPDEST POP PUSH1 0x20 DUP4 ADD SWAP1 POP SWAP3 POP SWAP3 SWAP1 POP JUMP JUMPDEST PUSH4 0x4E487B71 PUSH1 0xE0 SHL PUSH1 0x0 MSTORE PUSH1 0x21 PUSH1 0x4 MSTORE PUSH1 0x24 PUSH1 0x0 REVERT JUMPDEST PUSH1 0x6 DUP2 LT PUSH2 0x14F0 JUMPI PUSH4 0x4E487B71 PUSH1 0xE0 SHL PUSH1 0x0 MSTORE PUSH1 0x21 PUSH1 0x4 MSTORE PUSH1 0x24 PUSH1 0x0 REVERT JUMPDEST SWAP1 MSTORE JUMP JUMPDEST DUP2 MLOAD PUSH1 0x1 PUSH1 0x1 PUSH1 0xA0 SHL SUB AND DUP2 MSTORE PUSH1 0x20 DUP1 DUP4 ADD MLOAD SWAP1 DUP3 ADD MSTORE PUSH1 0x40 DUP1 DUP4 ADD MLOAD PUSH1 0x80 DUP4 ADD SWAP2 PUSH2 0x1522 SWAP1 DUP5 ADD DUP3 PUSH2 0x14D2 JUMP JUMPDEST POP PUSH1 0x60 SWAP3 DUP4 ADD MLOAD ISZERO ISZERO SWAP2 SWAP1 SWAP3 ADD MSTORE SWAP1 JUMP JUMPDEST PUSH1 0x0 DUP1 PUSH1 0x0 PUSH1 0x60 DUP5 DUP7 SUB SLT ISZERO PUSH2 0x1548 JUMPI PUSH1 0x0 DUP1 REVERT JUMPDEST DUP4 CALLDATALOAD PUSH2 0x1553 DUP2 PUSH2 0x13FE JUMP JUMPDEST SWAP3 POP PUSH2 0x1561 PUSH1 0x20 DUP6 ADD PUSH2 0x1397 JUMP JUMPDEST SWAP2 POP PUSH2 0x156F PUSH1 0x40 DUP6 ADD PUSH2 0x1397 JUMP JUMPDEST SWAP1 POP SWAP3 POP SWAP3 POP SWAP3 JUMP JUMPDEST DUP2 DUP2 SUB DUP2 DUP2 GT ISZERO PUSH2 0x7F6 JUMPI PUSH4 0x4E487B71 PUSH1 0xE0 SHL PUSH1 0x0 MSTORE PUSH1 0x11 PUSH1 0x4 MSTORE PUSH1 0x24 PUSH1 0x0 REVERT JUMPDEST PUSH4 0x4E487B71 PUSH1 0xE0 SHL PUSH1 0x0 MSTORE PUSH1 0x32 PUSH1 0x4 MSTORE PUSH1 0x24 PUSH1 0x0 REVERT JUMPDEST PUSH4 0x4E487B71 PUSH1 0xE0 SHL PUSH1 0x0 MSTORE PUSH1 0x31 PUSH1 0x4 MSTORE PUSH1 0x24 PUSH1 0x0 REVERT JUMPDEST PUSH1 0x6 DUP2 LT PUSH2 0x1413 JUMPI PUSH1 0x0 DUP1 REVERT JUMPDEST PUSH1 0x0 PUSH1 0x20 DUP3 DUP5 SUB SLT ISZERO PUSH2 0x15E4 JUMPI PUSH1 0x0 DUP1 REVERT JUMPDEST DUP2 CALLDATALOAD PUSH2 0xA6B DUP2 PUSH2 0x15C5 JUMP JUMPDEST DUP1 ISZERO ISZERO DUP2 EQ PUSH2 0x1413 JUMPI PUSH1 0x0 DUP1 REVERT JUMPDEST DUP2 CALLDATALOAD PUSH2 0x1608 DUP2 PUSH2 0x13FE JUMP JUMPDEST DUP2 SLOAD PUSH1 0x1 PUSH1 0x1 PUSH1 0xA0 SHL SUB NOT AND PUSH1 0x1 PUSH1 0x1 PUSH1 0xA0 SHL SUB SWAP2 SWAP1 SWAP2 AND OR DUP2 SSTORE PUSH1 0x20 DUP3 ADD CALLDATALOAD PUSH1 0x1 DUP3 ADD SSTORE PUSH1 0x2 DUP2 ADD PUSH1 0x40 DUP4 ADD CALLDATALOAD PUSH2 0x163F DUP2 PUSH2 0x15C5 JUMP JUMPDEST PUSH1 0x6 DUP2 LT PUSH2 0x165D JUMPI PUSH4 0x4E487B71 PUSH1 0xE0 SHL PUSH1 0x0 MSTORE PUSH1 0x21 PUSH1 0x4 MSTORE PUSH1 0x24 PUSH1 0x0 REVERT JUMPDEST PUSH1 0xFF NOT DUP3 SLOAD AND PUSH1 0xFF DUP3 AND DUP2 OR DUP4 SSTORE POP POP PUSH1 0x0 PUSH1 0x60 DUP5 ADD CALLDATALOAD PUSH2 0x167D DUP2 PUSH2 0x15EF JUMP JUMPDEST DUP3 SLOAD PUSH2 0xFF00 NOT AND DUP2 ISZERO ISZERO PUSH1 0x8 SHL PUSH2 0xFF00 AND OR DUP4 SSTORE SWAP1 POP POP POP POP POP JUMP JUMPDEST PUSH4 0xFFFFFFFF DUP5 AND DUP2 MSTORE PUSH1 0x1 PUSH1 0x1 PUSH1 0xA0 SHL SUB DUP4 AND PUSH1 0x20 DUP3 ADD MSTORE PUSH1 0xC0 DUP2 ADD DUP3 CALLDATALOAD PUSH2 0x16C0 DUP2 PUSH2 0x13FE JUMP JUMPDEST PUSH1 0x1 PUSH1 0x1 PUSH1 0xA0 SHL SUB AND PUSH1 0x40 DUP4 DUP2 ADD SWAP2 SWAP1 SWAP2 MSTORE PUSH1 0x20 DUP5 ADD CALLDATALOAD PUSH1 0x60 DUP5 ADD MSTORE DUP4 ADD CALLDATALOAD PUSH2 0x16E8 DUP2 PUSH2 0x15C5 JUMP JUMPDEST PUSH2 0x16F5 PUSH1 0x80 DUP5 ADD DUP3 PUSH2 0x14D2 JUMP JUMPDEST POP PUSH1 0x60 DUP4 ADD CALLDATALOAD PUSH2 0x1704 DUP2 PUSH2 0x15EF JUMP JUMPDEST DUP1 ISZERO ISZERO PUSH1 0xA0 DUP5 ADD MSTORE POP SWAP5 SWAP4 POP POP POP POP JUMP JUMPDEST PUSH1 0x0 PUSH1 0x20 DUP3 DUP5 SUB SLT ISZERO PUSH2 0x1727 JUMPI PUSH1 0x0 DUP1 REVERT JUMPDEST POP MLOAD SWAP2 SWAP1 POP JUMP INVALID LOG2 PUSH5 0x6970667358 0x22 SLT KECCAK256 0xC7 INVALID SIGNEXTEND 0xED CHAINID TLOAD SWAP10 DUP9 0xA8 0xDA 0xCD SELFBALANCE POP DUP1 0xBF 0xDF 0xDE LOG3 SDIV MCOPY 0xF7 0xC6 POP ORIGIN 0xB7 CREATE 0xDC SWAP8 DUP10 MCOPY SHL 0xF PUSH5 0x736F6C6343 STOP ADDMOD SHR STOP CALLER "
        },
        "methodIdentifiers": {
          "addAutomationToCondition(uint32,uint32)": "023ef5a9",
          "addCondition(uint32,(address,uint256,uint8,bool))": "6c088bb0",
          "addStrategyToCondition(uint32,uint32)": "e5012fb4",
          "automations(address,uint32)": "384c879d",
          "checkCondition(address,uint32)": "89a78a03",
          "conditionInAutomation(address,uint32,uint32)": "8455c3d0",
          "conditionInStrategy(address,uint32,uint32)": "d8cd9c1b",
          "deleteCondition(uint32)": "1245f298",
          "isConditionActive(address,uint32)": "4fdcabb8",
          "isUpdateable(address,uint32)": "57182cae",
          "removeAutomationFromCondition(uint32,uint32)": "8a4914c2",
          "removeStrategyFromCondition(uint32,uint32)": "14b0af70",
          "strategies(address,uint32)": "eec93dd0",
          "supportsInterface(bytes4)": "01ffc9a7",
          "updateCondition(uint32)": "03d049bb",
          "walletCondition(address,uint32)": "6f2b9aff"
        }
      }
    }
  }
}