{
  "contracts/condition/examples/TimeCondition.sol": {
    "TimeCondition": {
      "abi": [
        {
          "inputs": [],
          "name": "ConditionAlreadyExist",
          "type": "error"
        },
        {
          "inputs": [],
          "name": "ConditionAlreadyInUseOfAutomation",
          "type": "error"
        },
        {
          "inputs": [],
          "name": "ConditionAlreadyInUseOfStrategy",
          "type": "error"
        },
        {
          "inputs": [],
          "name": "ConditionDoesNotExist",
          "type": "error"
        },
        {
          "inputs": [],
          "name": "ConditionIsInUse",
          "type": "error"
        },
        {
          "inputs": [],
          "name": "ConditionNotInUseOfAutomation",
          "type": "error"
        },
        {
          "inputs": [],
          "name": "ConditionNotInUseOfStrategy",
          "type": "error"
        },
        {
          "inputs": [],
          "name": "ConditionsIsNotUpdateable",
          "type": "error"
        },
        {
          "inputs": [],
          "name": "DeltaNotValid",
          "type": "error"
        },
        {
          "inputs": [],
          "name": "ExecutionTimeNotValid",
          "type": "error"
        },
        {
          "inputs": [],
          "name": "InvalidID",
          "type": "error"
        },
        {
          "anonymous": false,
          "inputs": [
            {
              "indexed": true,
              "internalType": "address",
              "name": "wallet",
              "type": "address"
            },
            {
              "indexed": true,
              "internalType": "uint32",
              "name": "id",
              "type": "uint32"
            },
            {
              "indexed": false,
              "internalType": "uint32",
              "name": "automation",
              "type": "uint32"
            }
          ],
          "name": "AutomationAdded",
          "type": "event"
        },
        {
          "anonymous": false,
          "inputs": [
            {
              "indexed": true,
              "internalType": "address",
              "name": "wallet",
              "type": "address"
            },
            {
              "indexed": true,
              "internalType": "uint32",
              "name": "id",
              "type": "uint32"
            },
            {
              "indexed": false,
              "internalType": "uint32",
              "name": "automation",
              "type": "uint32"
            }
          ],
          "name": "AutomationRemoved",
          "type": "event"
        },
        {
          "anonymous": false,
          "inputs": [
            {
              "indexed": false,
              "internalType": "uint32",
              "name": "id",
              "type": "uint32"
            },
            {
              "indexed": false,
              "internalType": "address",
              "name": "wallet",
              "type": "address"
            },
            {
              "components": [
                {
                  "internalType": "uint256",
                  "name": "execution",
                  "type": "uint256"
                },
                {
                  "internalType": "uint256",
                  "name": "delta",
                  "type": "uint256"
                },
                {
                  "internalType": "bool",
                  "name": "updateable",
                  "type": "bool"
                }
              ],
              "indexed": false,
              "internalType": "struct ITimeCondition.Condition",
              "name": "condition",
              "type": "tuple"
            }
          ],
          "name": "ConditionAdded",
          "type": "event"
        },
        {
          "anonymous": false,
          "inputs": [
            {
              "indexed": true,
              "internalType": "address",
              "name": "wallet",
              "type": "address"
            },
            {
              "indexed": true,
              "internalType": "uint32",
              "name": "id",
              "type": "uint32"
            }
          ],
          "name": "ConditionDeleted",
          "type": "event"
        },
        {
          "anonymous": false,
          "inputs": [
            {
              "indexed": false,
              "internalType": "uint32",
              "name": "id",
              "type": "uint32"
            },
            {
              "indexed": false,
              "internalType": "address",
              "name": "wallet",
              "type": "address"
            }
          ],
          "name": "ConditionDeleted",
          "type": "event"
        },
        {
          "anonymous": false,
          "inputs": [
            {
              "indexed": false,
              "internalType": "uint32",
              "name": "id",
              "type": "uint32"
            },
            {
              "indexed": false,
              "internalType": "address",
              "name": "wallet",
              "type": "address"
            },
            {
              "indexed": false,
              "internalType": "uint256",
              "name": "newExecution",
              "type": "uint256"
            }
          ],
          "name": "ConditionUpdated",
          "type": "event"
        },
        {
          "anonymous": false,
          "inputs": [
            {
              "indexed": true,
              "internalType": "address",
              "name": "wallet",
              "type": "address"
            },
            {
              "indexed": true,
              "internalType": "uint32",
              "name": "id",
              "type": "uint32"
            },
            {
              "indexed": false,
              "internalType": "uint32",
              "name": "strategy",
              "type": "uint32"
            }
          ],
          "name": "StrategyAdded",
          "type": "event"
        },
        {
          "anonymous": false,
          "inputs": [
            {
              "indexed": true,
              "internalType": "address",
              "name": "wallet",
              "type": "address"
            },
            {
              "indexed": true,
              "internalType": "uint32",
              "name": "id",
              "type": "uint32"
            },
            {
              "indexed": false,
              "internalType": "uint32",
              "name": "strategy",
              "type": "uint32"
            }
          ],
          "name": "StrategyRemoved",
          "type": "event"
        },
        {
          "inputs": [
            {
              "internalType": "uint32",
              "name": "id",
              "type": "uint32"
            },
            {
              "internalType": "uint32",
              "name": "automation",
              "type": "uint32"
            }
          ],
          "name": "addAutomationToCondition",
          "outputs": [
            {
              "internalType": "bool",
              "name": "",
              "type": "bool"
            }
          ],
          "stateMutability": "nonpayable",
          "type": "function"
        },
        {
          "inputs": [
            {
              "internalType": "uint32",
              "name": "_id",
              "type": "uint32"
            },
            {
              "components": [
                {
                  "internalType": "uint256",
                  "name": "execution",
                  "type": "uint256"
                },
                {
                  "internalType": "uint256",
                  "name": "delta",
                  "type": "uint256"
                },
                {
                  "internalType": "bool",
                  "name": "updateable",
                  "type": "bool"
                }
              ],
              "internalType": "struct ITimeCondition.Condition",
              "name": "_condition",
              "type": "tuple"
            }
          ],
          "name": "addCondition",
          "outputs": [],
          "stateMutability": "nonpayable",
          "type": "function"
        },
        {
          "inputs": [
            {
              "internalType": "uint32",
              "name": "id",
              "type": "uint32"
            },
            {
              "internalType": "uint32",
              "name": "strategy",
              "type": "uint32"
            }
          ],
          "name": "addStrategyToCondition",
          "outputs": [
            {
              "internalType": "bool",
              "name": "",
              "type": "bool"
            }
          ],
          "stateMutability": "nonpayable",
          "type": "function"
        },
        {
          "inputs": [
            {
              "internalType": "address",
              "name": "wallet",
              "type": "address"
            },
            {
              "internalType": "uint32",
              "name": "id",
              "type": "uint32"
            }
          ],
          "name": "automations",
          "outputs": [
            {
              "internalType": "uint32[]",
              "name": "",
              "type": "uint32[]"
            }
          ],
          "stateMutability": "view",
          "type": "function"
        },
        {
          "inputs": [
            {
              "internalType": "address",
              "name": "_wallet",
              "type": "address"
            },
            {
              "internalType": "uint32",
              "name": "_id",
              "type": "uint32"
            }
          ],
          "name": "checkCondition",
          "outputs": [
            {
              "internalType": "uint8",
              "name": "",
              "type": "uint8"
            }
          ],
          "stateMutability": "view",
          "type": "function"
        },
        {
          "inputs": [
            {
              "internalType": "address",
              "name": "wallet",
              "type": "address"
            },
            {
              "internalType": "uint32",
              "name": "id",
              "type": "uint32"
            },
            {
              "internalType": "uint32",
              "name": "automationId",
              "type": "uint32"
            }
          ],
          "name": "conditionInAutomation",
          "outputs": [
            {
              "internalType": "bool",
              "name": "",
              "type": "bool"
            }
          ],
          "stateMutability": "view",
          "type": "function"
        },
        {
          "inputs": [
            {
              "internalType": "address",
              "name": "wallet",
              "type": "address"
            },
            {
              "internalType": "uint32",
              "name": "id",
              "type": "uint32"
            },
            {
              "internalType": "uint32",
              "name": "strategyId",
              "type": "uint32"
            }
          ],
          "name": "conditionInStrategy",
          "outputs": [
            {
              "internalType": "bool",
              "name": "",
              "type": "bool"
            }
          ],
          "stateMutability": "view",
          "type": "function"
        },
        {
          "inputs": [
            {
              "internalType": "uint32",
              "name": "_id",
              "type": "uint32"
            }
          ],
          "name": "deleteCondition",
          "outputs": [],
          "stateMutability": "nonpayable",
          "type": "function"
        },
        {
          "inputs": [
            {
              "internalType": "address",
              "name": "wallet",
              "type": "address"
            },
            {
              "internalType": "uint32",
              "name": "id",
              "type": "uint32"
            }
          ],
          "name": "isConditionActive",
          "outputs": [
            {
              "internalType": "bool",
              "name": "",
              "type": "bool"
            }
          ],
          "stateMutability": "view",
          "type": "function"
        },
        {
          "inputs": [
            {
              "internalType": "address",
              "name": "_wallet",
              "type": "address"
            },
            {
              "internalType": "uint32",
              "name": "_id",
              "type": "uint32"
            }
          ],
          "name": "isUpdateable",
          "outputs": [
            {
              "internalType": "bool",
              "name": "",
              "type": "bool"
            }
          ],
          "stateMutability": "view",
          "type": "function"
        },
        {
          "inputs": [
            {
              "internalType": "uint32",
              "name": "id",
              "type": "uint32"
            },
            {
              "internalType": "uint32",
              "name": "automation",
              "type": "uint32"
            }
          ],
          "name": "removeAutomationFromCondition",
          "outputs": [
            {
              "internalType": "bool",
              "name": "",
              "type": "bool"
            }
          ],
          "stateMutability": "nonpayable",
          "type": "function"
        },
        {
          "inputs": [
            {
              "internalType": "uint32",
              "name": "id",
              "type": "uint32"
            },
            {
              "internalType": "uint32",
              "name": "strategy",
              "type": "uint32"
            }
          ],
          "name": "removeStrategyFromCondition",
          "outputs": [
            {
              "internalType": "bool",
              "name": "",
              "type": "bool"
            }
          ],
          "stateMutability": "nonpayable",
          "type": "function"
        },
        {
          "inputs": [
            {
              "internalType": "address",
              "name": "wallet",
              "type": "address"
            },
            {
              "internalType": "uint32",
              "name": "id",
              "type": "uint32"
            }
          ],
          "name": "strategies",
          "outputs": [
            {
              "internalType": "uint32[]",
              "name": "",
              "type": "uint32[]"
            }
          ],
          "stateMutability": "view",
          "type": "function"
        },
        {
          "inputs": [
            {
              "internalType": "bytes4",
              "name": "interfaceId",
              "type": "bytes4"
            }
          ],
          "name": "supportsInterface",
          "outputs": [
            {
              "internalType": "bool",
              "name": "",
              "type": "bool"
            }
          ],
          "stateMutability": "pure",
          "type": "function"
        },
        {
          "inputs": [
            {
              "internalType": "uint32",
              "name": "_id",
              "type": "uint32"
            }
          ],
          "name": "updateCondition",
          "outputs": [
            {
              "internalType": "bool",
              "name": "",
              "type": "bool"
            }
          ],
          "stateMutability": "nonpayable",
          "type": "function"
        },
        {
          "inputs": [
            {
              "internalType": "address",
              "name": "_wallet",
              "type": "address"
            },
            {
              "internalType": "uint32",
              "name": "_id",
              "type": "uint32"
            }
          ],
          "name": "walletCondition",
          "outputs": [
            {
              "components": [
                {
                  "internalType": "uint256",
                  "name": "execution",
                  "type": "uint256"
                },
                {
                  "internalType": "uint256",
                  "name": "delta",
                  "type": "uint256"
                },
                {
                  "internalType": "bool",
                  "name": "updateable",
                  "type": "bool"
                }
              ],
              "internalType": "struct ITimeCondition.Condition",
              "name": "",
              "type": "tuple"
            }
          ],
          "stateMutability": "view",
          "type": "function"
        }
      ],
      "evm": {
        "bytecode": {
          "linkReferences": {},
          "object": "6080604052348015600f57600080fd5b506114e98061001f6000396000f3fe608060405234801561001057600080fd5b50600436106101005760003560e01c806357182cae116100975780638a4914c2116100665780638a4914c2146102b3578063d8cd9c1b146102c6578063e5012fb4146102d9578063eec93dd0146102ec57600080fd5b806357182cae146102005780636f2b9aff146102445780638455c3d01461027b57806389a78a031461028e57600080fd5b80631245f298116100d35780631245f2981461017957806314b0af701461018c578063384c879d1461019f5780634fdcabb8146101bf57600080fd5b806301ffc9a714610105578063023ef5a91461013e57806303d049bb1461015157806310bdddc814610164575b600080fd5b610129610113366004611223565b6001600160e01b03191663732d321f60e01b1490565b60405190151581526020015b60405180910390f35b61012961014c366004611266565b6102ff565b61012961015f366004611299565b610478565b6101776101723660046112b4565b61058b565b005b610177610187366004611299565b61064d565b61012961019a366004611266565b6106ca565b6101b26101ad36600461130a565b610904565b6040516101359190611326565b6101296101cd36600461130a565b6001600160a01b038216600090815260046020908152604080832063ffffffff8516845290915290205460ff1692915050565b61012961020e36600461130a565b6001600160a01b038216600090815260056020908152604080832063ffffffff8516845290915290206002015460ff1692915050565b61025761025236600461130a565b6109ac565b60408051825181526020808401519082015291810151151590820152606001610135565b61012961028936600461136f565b610a2b565b6102a161029c36600461130a565b610b2c565b60405160ff9091168152602001610135565b6101296102c1366004611266565b610bad565b6101296102d436600461136f565b610dd4565b6101296102e7366004611266565b610ea0565b6101b26102fa36600461130a565b61100b565b33600090815260046020908152604080832063ffffffff86168452909152812054839060ff1661034257604051637c748e2960e01b815260040160405180910390fd5b828063ffffffff1660000361036a57604051637ae9080f60e11b815260040160405180910390fd5b610375338686610a2b565b156103935760405163433aca2960e01b815260040160405180910390fd5b33600090815260016020818152604080842063ffffffff8a8116808752918452918520805480860182558187529386206008850401805460079095166004026101000a80850219909516938b169490940292909217909255925290546103f991906113c8565b33600081815260036020908152604080832063ffffffff8b81168086529184528285208b821680875290855294839020805463ffffffff19169790911696909617909555519182527f64ed0b78fd4903b0c4a53da49298cec5f2ab5e723bbe6ba4602be84cc8c5fc6591015b60405180910390a3506001949350505050565b33600090815260056020908152604080832063ffffffff8516845282528083208151606081018352815480825260018301549482019490945260029091015460ff16151591810191909152904210156104e457604051637212a18360e11b815260040160405180910390fd5b6020810151815182906104f89083906113db565b90525033600081815260056020908152604080832063ffffffff8816808552908352928190208551808255868401516001830155868301516002909201805460ff1916921515929092179091558151938452918301939093528183015290517f4512841be653bcd6562897298746e2d671f964036bf8fc1342f86ecabe30d331916060908290030190a150600192915050565b8042813510156105ae5760405163326db01f60e11b815260040160405180910390fd5b610e10816020013510156105d5576040516336027a8f60e21b815260040160405180910390fd5b33600090815260056020908152604080832063ffffffff871684529091529020829061060182826113ff565b90505061060d83611088565b7fb426363a4b10243595274732519e5a718e5fd0cfbfc6d4adac581cff27b3c2d783338460405161064093929190611435565b60405180910390a1505050565b61065681611123565b33600081815260056020908152604080832063ffffffff861680855290835281842084815560018101949094556002909301805460ff191690558051928352908201929092527f9c33cb453d76063bb338c509094bd32900fe4a7e3ccbb52ef947618994a4a6c3910160405180910390a150565b33600090815260046020908152604080832063ffffffff86168452909152812054839060ff1661070d57604051637c748e2960e01b815260040160405180910390fd5b610718338585610dd4565b61073557604051630163c8ad60e71b815260040160405180910390fd5b3360008181526020818152604080832063ffffffff808a16808652918452828520958552600284528285209185529083528184208882168552909252822054835491169190610786906001906113c8565b90508163ffffffff16811461084c5760008382815481106107a9576107a9611487565b6000918252602080832060088304015433845260028252604080852063ffffffff8e8116875290845281862060079095166004026101000a9092048216808652939092529220805463ffffffff19169286169283179055855490925082918691811061081757610817611487565b90600052602060002090600891828204019190066004026101000a81548163ffffffff021916908363ffffffff160217905550505b8280548061085c5761085c61149d565b6000828152602080822060086000199490940193840401805463ffffffff600460078716026101000a81021990911690915592909355338082526002845260408083208c8516808552908652818420948c1680855294865292819020805463ffffffff1916905551928352909290917fc29fe8f04eaa995e540803e6abbd839f149e3b6b8dc9d66f7b411e6ad92f1ebf91015b60405180910390a35060019695505050505050565b6001600160a01b038216600090815260016020908152604080832063ffffffff8516845282529182902080548351818402810184019094528084526060939283018282801561099e57602002820191906000526020600020906000905b82829054906101000a900463ffffffff1663ffffffff16815260200190600401906020826003010492830192600103820291508084116109615790505b505050505090505b92915050565b6109d2604051806060016040528060008152602001600081526020016000151581525090565b506001600160a01b038216600090815260056020908152604080832063ffffffff851684528252918290208251606081018452815481526001820154928101929092526002015460ff1615159181019190915292915050565b6001600160a01b038316600081815260036020908152604080832063ffffffff8088168086529184528285208782168652845282852054958552600184528285209185529252822054919216901580610aad57506001600160a01b038516600090815260016020908152604080832063ffffffff881684529091529020548110155b15610abc576000915050610b25565b6001600160a01b038516600090815260016020908152604080832063ffffffff8881168552925290912080549185169183908110610afc57610afc611487565b6000918252602090912060088204015460079091166004026101000a900463ffffffff16149150505b9392505050565b6001600160a01b038216600090815260056020908152604080832063ffffffff8516845282528083208151606081018352815480825260018301549482019490945260029091015460ff16151591810191909152908203610b915760009150506109a6565b80514210610ba35760019150506109a6565b60009150506109a6565b33600090815260046020908152604080832063ffffffff86168452909152812054839060ff16610bf057604051637c748e2960e01b815260040160405180910390fd5b610bfb338585610a2b565b610c175760405162ede60b60e71b815260040160405180910390fd5b33600081815260016020818152604080842063ffffffff808b16808752918452828620968652600384528286209186529083528185208982168652909252832054845491169291610c67916113c8565b90508163ffffffff168114610d2d576000838281548110610c8a57610c8a611487565b6000918252602080832060088304015433845260038252604080852063ffffffff8e8116875290845281862060079095166004026101000a9092048216808652939092529220805463ffffffff191692861692831790558554909250829186918110610cf857610cf8611487565b90600052602060002090600891828204019190066004026101000a81548163ffffffff021916908363ffffffff160217905550505b82805480610d3d57610d3d61149d565b6000828152602080822060086000199490940193840401805463ffffffff600460078716026101000a81021990911690915592909355338082526003845260408083208c8516808552908652818420948c1680855294865292819020805463ffffffff1916905551928352909290917f2be6cc3208d4434b357c0fdd8ae07d6e1f69605413b29b13d68bbd943a225dea91016108ef565b6001600160a01b038316600081815260026020908152604080832063ffffffff80881680865291845282852087821686528452828520549585528484528285209185529252822054919216901580610e5357506001600160a01b03851660009081526020818152604080832063ffffffff881684529091529020548110155b15610e62576000915050610b25565b6001600160a01b03851660009081526020818152604080832063ffffffff8881168552925290912080549185169183908110610afc57610afc611487565b33600090815260046020908152604080832063ffffffff86168452909152812054839060ff16610ee357604051637c748e2960e01b815260040160405180910390fd5b828063ffffffff16600003610f0b57604051637ae9080f60e11b815260040160405180910390fd5b610f16338686610dd4565b15610f3457604051630662978b60e51b815260040160405180910390fd5b3360009081526020818152604080832063ffffffff8981168086529184529184208054600180820183558287529486206008820401805460079092166004026101000a80860219909216948b1691909102939093179092559092529054610f9b91906113c8565b33600081815260026020908152604080832063ffffffff8b81168086529184528285208b821680875290855294839020805463ffffffff19169790911696909617909555519182527fe4fed7933c124d57c605c2c0c04bf0518034d885e739653e3cc6667526d65d169101610465565b6001600160a01b03821660009081526020818152604080832063ffffffff8516845282529182902080548351818402810184019094528084526060939283018282801561099e576000918252602091829020805463ffffffff16845290820283019290916004910180841161096157509498975050505050505050565b33600090815260046020908152604080832063ffffffff85168452909152902054819060ff16156110cc576040516303d0619f60e61b815260040160405180910390fd5b818063ffffffff166000036110f457604051637ae9080f60e11b815260040160405180910390fd5b505033600090815260046020908152604080832063ffffffff909416835292905220805460ff19166001179055565b33600090815260046020908152604080832063ffffffff85168452909152902054819060ff1661116657604051637c748e2960e01b815260040160405180910390fd5b33600090815260016020908152604080832063ffffffff861684529091529020541515806111b157503360009081526020818152604080832063ffffffff8616845290915290205415155b156111cf57604051637b28591360e01b815260040160405180910390fd5b33600081815260046020908152604080832063ffffffff87168085529252808320805460ff19169055519092917fb0f65a798e2cdda82f7d8ae7ab05d5c06b04d3f8470e4765ff56af507889d19c91a35050565b60006020828403121561123557600080fd5b81356001600160e01b031981168114610b2557600080fd5b803563ffffffff8116811461126157600080fd5b919050565b6000806040838503121561127957600080fd5b6112828361124d565b91506112906020840161124d565b90509250929050565b6000602082840312156112ab57600080fd5b610b258261124d565b60008082840360808112156112c857600080fd5b6112d18461124d565b92506060601f19820112156112e557600080fd5b506020830190509250929050565b80356001600160a01b038116811461126157600080fd5b6000806040838503121561131d57600080fd5b611282836112f3565b602080825282518282018190526000918401906040840190835b8181101561136457835163ffffffff16835260209384019390920191600101611340565b509095945050505050565b60008060006060848603121561138457600080fd5b61138d846112f3565b925061139b6020850161124d565b91506113a96040850161124d565b90509250925092565b634e487b7160e01b600052601160045260246000fd5b818103818111156109a6576109a66113b2565b808201808211156109a6576109a66113b2565b80151581146113fc57600080fd5b50565b813581556020820135600182015560028101604083013561141f816113ee565b815490151560ff1660ff19919091161790555050565b63ffffffff841681526001600160a01b038316602080830191909152823560408084019190915290830135606083015260a0820190830135611476816113ee565b801515608084015250949350505050565b634e487b7160e01b600052603260045260246000fd5b634e487b7160e01b600052603160045260246000fdfea2646970667358221220e24f4a9452e3ca444dbdefb141e99cf69c95abc2e276710d9bc991dcdbc208e864736f6c634300081c0033",
          "opcodes": "PUSH1 0x80 PUSH1 0x40 MSTORE CALLVALUE DUP1 ISZERO PUSH1 0xF JUMPI PUSH1 0x0 DUP1 REVERT JUMPDEST POP PUSH2 0x14E9 DUP1 PUSH2 0x1F PUSH1 0x0 CODECOPY PUSH1 0x0 RETURN INVALID PUSH1 0x80 PUSH1 0x40 MSTORE CALLVALUE DUP1 ISZERO PUSH2 0x10 JUMPI PUSH1 0x0 DUP1 REVERT JUMPDEST POP PUSH1 0x4 CALLDATASIZE LT PUSH2 0x100 JUMPI PUSH1 0x0 CALLDATALOAD PUSH1 0xE0 SHR DUP1 PUSH4 0x57182CAE GT PUSH2 0x97 JUMPI DUP1 PUSH4 0x8A4914C2 GT PUSH2 0x66 JUMPI DUP1 PUSH4 0x8A4914C2 EQ PUSH2 0x2B3 JUMPI DUP1 PUSH4 0xD8CD9C1B EQ PUSH2 0x2C6 JUMPI DUP1 PUSH4 0xE5012FB4 EQ PUSH2 0x2D9 JUMPI DUP1 PUSH4 0xEEC93DD0 EQ PUSH2 0x2EC JUMPI PUSH1 0x0 DUP1 REVERT JUMPDEST DUP1 PUSH4 0x57182CAE EQ PUSH2 0x200 JUMPI DUP1 PUSH4 0x6F2B9AFF EQ PUSH2 0x244 JUMPI DUP1 PUSH4 0x8455C3D0 EQ PUSH2 0x27B JUMPI DUP1 PUSH4 0x89A78A03 EQ PUSH2 0x28E JUMPI PUSH1 0x0 DUP1 REVERT JUMPDEST DUP1 PUSH4 0x1245F298 GT PUSH2 0xD3 JUMPI DUP1 PUSH4 0x1245F298 EQ PUSH2 0x179 JUMPI DUP1 PUSH4 0x14B0AF70 EQ PUSH2 0x18C JUMPI DUP1 PUSH4 0x384C879D EQ PUSH2 0x19F JUMPI DUP1 PUSH4 0x4FDCABB8 EQ PUSH2 0x1BF JUMPI PUSH1 0x0 DUP1 REVERT JUMPDEST DUP1 PUSH4 0x1FFC9A7 EQ PUSH2 0x105 JUMPI DUP1 PUSH4 0x23EF5A9 EQ PUSH2 0x13E JUMPI DUP1 PUSH4 0x3D049BB EQ PUSH2 0x151 JUMPI DUP1 PUSH4 0x10BDDDC8 EQ PUSH2 0x164 JUMPI JUMPDEST PUSH1 0x0 DUP1 REVERT JUMPDEST PUSH2 0x129 PUSH2 0x113 CALLDATASIZE PUSH1 0x4 PUSH2 0x1223 JUMP JUMPDEST PUSH1 0x1 PUSH1 0x1 PUSH1 0xE0 SHL SUB NOT AND PUSH4 0x732D321F PUSH1 0xE0 SHL EQ SWAP1 JUMP JUMPDEST PUSH1 0x40 MLOAD SWAP1 ISZERO ISZERO DUP2 MSTORE PUSH1 0x20 ADD JUMPDEST PUSH1 0x40 MLOAD DUP1 SWAP2 SUB SWAP1 RETURN JUMPDEST PUSH2 0x129 PUSH2 0x14C CALLDATASIZE PUSH1 0x4 PUSH2 0x1266 JUMP JUMPDEST PUSH2 0x2FF JUMP JUMPDEST PUSH2 0x129 PUSH2 0x15F CALLDATASIZE PUSH1 0x4 PUSH2 0x1299 JUMP JUMPDEST PUSH2 0x478 JUMP JUMPDEST PUSH2 0x177 PUSH2 0x172 CALLDATASIZE PUSH1 0x4 PUSH2 0x12B4 JUMP JUMPDEST PUSH2 0x58B JUMP JUMPDEST STOP JUMPDEST PUSH2 0x177 PUSH2 0x187 CALLDATASIZE PUSH1 0x4 PUSH2 0x1299 JUMP JUMPDEST PUSH2 0x64D JUMP JUMPDEST PUSH2 0x129 PUSH2 0x19A CALLDATASIZE PUSH1 0x4 PUSH2 0x1266 JUMP JUMPDEST PUSH2 0x6CA JUMP JUMPDEST PUSH2 0x1B2 PUSH2 0x1AD CALLDATASIZE PUSH1 0x4 PUSH2 0x130A JUMP JUMPDEST PUSH2 0x904 JUMP JUMPDEST PUSH1 0x40 MLOAD PUSH2 0x135 SWAP2 SWAP1 PUSH2 0x1326 JUMP JUMPDEST PUSH2 0x129 PUSH2 0x1CD CALLDATASIZE PUSH1 0x4 PUSH2 0x130A JUMP JUMPDEST PUSH1 0x1 PUSH1 0x1 PUSH1 0xA0 SHL SUB DUP3 AND PUSH1 0x0 SWAP1 DUP2 MSTORE PUSH1 0x4 PUSH1 0x20 SWAP1 DUP2 MSTORE PUSH1 0x40 DUP1 DUP4 KECCAK256 PUSH4 0xFFFFFFFF DUP6 AND DUP5 MSTORE SWAP1 SWAP2 MSTORE SWAP1 KECCAK256 SLOAD PUSH1 0xFF AND SWAP3 SWAP2 POP POP JUMP JUMPDEST PUSH2 0x129 PUSH2 0x20E CALLDATASIZE PUSH1 0x4 PUSH2 0x130A JUMP JUMPDEST PUSH1 0x1 PUSH1 0x1 PUSH1 0xA0 SHL SUB DUP3 AND PUSH1 0x0 SWAP1 DUP2 MSTORE PUSH1 0x5 PUSH1 0x20 SWAP1 DUP2 MSTORE PUSH1 0x40 DUP1 DUP4 KECCAK256 PUSH4 0xFFFFFFFF DUP6 AND DUP5 MSTORE SWAP1 SWAP2 MSTORE SWAP1 KECCAK256 PUSH1 0x2 ADD SLOAD PUSH1 0xFF AND SWAP3 SWAP2 POP POP JUMP JUMPDEST PUSH2 0x257 PUSH2 0x252 CALLDATASIZE PUSH1 0x4 PUSH2 0x130A JUMP JUMPDEST PUSH2 0x9AC JUMP JUMPDEST PUSH1 0x40 DUP1 MLOAD DUP3 MLOAD DUP2 MSTORE PUSH1 0x20 DUP1 DUP5 ADD MLOAD SWAP1 DUP3 ADD MSTORE SWAP2 DUP2 ADD MLOAD ISZERO ISZERO SWAP1 DUP3 ADD MSTORE PUSH1 0x60 ADD PUSH2 0x135 JUMP JUMPDEST PUSH2 0x129 PUSH2 0x289 CALLDATASIZE PUSH1 0x4 PUSH2 0x136F JUMP JUMPDEST PUSH2 0xA2B JUMP JUMPDEST PUSH2 0x2A1 PUSH2 0x29C CALLDATASIZE PUSH1 0x4 PUSH2 0x130A JUMP JUMPDEST PUSH2 0xB2C JUMP JUMPDEST PUSH1 0x40 MLOAD PUSH1 0xFF SWAP1 SWAP2 AND DUP2 MSTORE PUSH1 0x20 ADD PUSH2 0x135 JUMP JUMPDEST PUSH2 0x129 PUSH2 0x2C1 CALLDATASIZE PUSH1 0x4 PUSH2 0x1266 JUMP JUMPDEST PUSH2 0xBAD JUMP JUMPDEST PUSH2 0x129 PUSH2 0x2D4 CALLDATASIZE PUSH1 0x4 PUSH2 0x136F JUMP JUMPDEST PUSH2 0xDD4 JUMP JUMPDEST PUSH2 0x129 PUSH2 0x2E7 CALLDATASIZE PUSH1 0x4 PUSH2 0x1266 JUMP JUMPDEST PUSH2 0xEA0 JUMP JUMPDEST PUSH2 0x1B2 PUSH2 0x2FA CALLDATASIZE PUSH1 0x4 PUSH2 0x130A JUMP JUMPDEST PUSH2 0x100B JUMP JUMPDEST CALLER PUSH1 0x0 SWAP1 DUP2 MSTORE PUSH1 0x4 PUSH1 0x20 SWAP1 DUP2 MSTORE PUSH1 0x40 DUP1 DUP4 KECCAK256 PUSH4 0xFFFFFFFF DUP7 AND DUP5 MSTORE SWAP1 SWAP2 MSTORE DUP2 KECCAK256 SLOAD DUP4 SWAP1 PUSH1 0xFF AND PUSH2 0x342 JUMPI PUSH1 0x40 MLOAD PUSH4 0x7C748E29 PUSH1 0xE0 SHL DUP2 MSTORE PUSH1 0x4 ADD PUSH1 0x40 MLOAD DUP1 SWAP2 SUB SWAP1 REVERT JUMPDEST DUP3 DUP1 PUSH4 0xFFFFFFFF AND PUSH1 0x0 SUB PUSH2 0x36A JUMPI PUSH1 0x40 MLOAD PUSH4 0x7AE9080F PUSH1 0xE1 SHL DUP2 MSTORE PUSH1 0x4 ADD PUSH1 0x40 MLOAD DUP1 SWAP2 SUB SWAP1 REVERT JUMPDEST PUSH2 0x375 CALLER DUP7 DUP7 PUSH2 0xA2B JUMP JUMPDEST ISZERO PUSH2 0x393 JUMPI PUSH1 0x40 MLOAD PUSH4 0x433ACA29 PUSH1 0xE0 SHL DUP2 MSTORE PUSH1 0x4 ADD PUSH1 0x40 MLOAD DUP1 SWAP2 SUB SWAP1 REVERT JUMPDEST CALLER PUSH1 0x0 SWAP1 DUP2 MSTORE PUSH1 0x1 PUSH1 0x20 DUP2 DUP2 MSTORE PUSH1 0x40 DUP1 DUP5 KECCAK256 PUSH4 0xFFFFFFFF DUP11 DUP2 AND DUP1 DUP8 MSTORE SWAP2 DUP5 MSTORE SWAP2 DUP6 KECCAK256 DUP1 SLOAD DUP1 DUP7 ADD DUP3 SSTORE DUP2 DUP8 MSTORE SWAP4 DUP7 KECCAK256 PUSH1 0x8 DUP6 DIV ADD DUP1 SLOAD PUSH1 0x7 SWAP1 SWAP6 AND PUSH1 0x4 MUL PUSH2 0x100 EXP DUP1 DUP6 MUL NOT SWAP1 SWAP6 AND SWAP4 DUP12 AND SWAP5 SWAP1 SWAP5 MUL SWAP3 SWAP1 SWAP3 OR SWAP1 SWAP3 SSTORE SWAP3 MSTORE SWAP1 SLOAD PUSH2 0x3F9 SWAP2 SWAP1 PUSH2 0x13C8 JUMP JUMPDEST CALLER PUSH1 0x0 DUP2 DUP2 MSTORE PUSH1 0x3 PUSH1 0x20 SWAP1 DUP2 MSTORE PUSH1 0x40 DUP1 DUP4 KECCAK256 PUSH4 0xFFFFFFFF DUP12 DUP2 AND DUP1 DUP7 MSTORE SWAP2 DUP5 MSTORE DUP3 DUP6 KECCAK256 DUP12 DUP3 AND DUP1 DUP8 MSTORE SWAP1 DUP6 MSTORE SWAP5 DUP4 SWAP1 KECCAK256 DUP1 SLOAD PUSH4 0xFFFFFFFF NOT AND SWAP8 SWAP1 SWAP2 AND SWAP7 SWAP1 SWAP7 OR SWAP1 SWAP6 SSTORE MLOAD SWAP2 DUP3 MSTORE PUSH32 0x64ED0B78FD4903B0C4A53DA49298CEC5F2AB5E723BBE6BA4602BE84CC8C5FC65 SWAP2 ADD JUMPDEST PUSH1 0x40 MLOAD DUP1 SWAP2 SUB SWAP1 LOG3 POP PUSH1 0x1 SWAP5 SWAP4 POP POP POP POP JUMP JUMPDEST CALLER PUSH1 0x0 SWAP1 DUP2 MSTORE PUSH1 0x5 PUSH1 0x20 SWAP1 DUP2 MSTORE PUSH1 0x40 DUP1 DUP4 KECCAK256 PUSH4 0xFFFFFFFF DUP6 AND DUP5 MSTORE DUP3 MSTORE DUP1 DUP4 KECCAK256 DUP2 MLOAD PUSH1 0x60 DUP2 ADD DUP4 MSTORE DUP2 SLOAD DUP1 DUP3 MSTORE PUSH1 0x1 DUP4 ADD SLOAD SWAP5 DUP3 ADD SWAP5 SWAP1 SWAP5 MSTORE PUSH1 0x2 SWAP1 SWAP2 ADD SLOAD PUSH1 0xFF AND ISZERO ISZERO SWAP2 DUP2 ADD SWAP2 SWAP1 SWAP2 MSTORE SWAP1 TIMESTAMP LT ISZERO PUSH2 0x4E4 JUMPI PUSH1 0x40 MLOAD PUSH4 0x7212A183 PUSH1 0xE1 SHL DUP2 MSTORE PUSH1 0x4 ADD PUSH1 0x40 MLOAD DUP1 SWAP2 SUB SWAP1 REVERT JUMPDEST PUSH1 0x20 DUP2 ADD MLOAD DUP2 MLOAD DUP3 SWAP1 PUSH2 0x4F8 SWAP1 DUP4 SWAP1 PUSH2 0x13DB JUMP JUMPDEST SWAP1 MSTORE POP CALLER PUSH1 0x0 DUP2 DUP2 MSTORE PUSH1 0x5 PUSH1 0x20 SWAP1 DUP2 MSTORE PUSH1 0x40 DUP1 DUP4 KECCAK256 PUSH4 0xFFFFFFFF DUP9 AND DUP1 DUP6 MSTORE SWAP1 DUP4 MSTORE SWAP3 DUP2 SWAP1 KECCAK256 DUP6 MLOAD DUP1 DUP3 SSTORE DUP7 DUP5 ADD MLOAD PUSH1 0x1 DUP4 ADD SSTORE DUP7 DUP4 ADD MLOAD PUSH1 0x2 SWAP1 SWAP3 ADD DUP1 SLOAD PUSH1 0xFF NOT AND SWAP3 ISZERO ISZERO SWAP3 SWAP1 SWAP3 OR SWAP1 SWAP2 SSTORE DUP2 MLOAD SWAP4 DUP5 MSTORE SWAP2 DUP4 ADD SWAP4 SWAP1 SWAP4 MSTORE DUP2 DUP4 ADD MSTORE SWAP1 MLOAD PUSH32 0x4512841BE653BCD6562897298746E2D671F964036BF8FC1342F86ECABE30D331 SWAP2 PUSH1 0x60 SWAP1 DUP3 SWAP1 SUB ADD SWAP1 LOG1 POP PUSH1 0x1 SWAP3 SWAP2 POP POP JUMP JUMPDEST DUP1 TIMESTAMP DUP2 CALLDATALOAD LT ISZERO PUSH2 0x5AE JUMPI PUSH1 0x40 MLOAD PUSH4 0x326DB01F PUSH1 0xE1 SHL DUP2 MSTORE PUSH1 0x4 ADD PUSH1 0x40 MLOAD DUP1 SWAP2 SUB SWAP1 REVERT JUMPDEST PUSH2 0xE10 DUP2 PUSH1 0x20 ADD CALLDATALOAD LT ISZERO PUSH2 0x5D5 JUMPI PUSH1 0x40 MLOAD PUSH4 0x36027A8F PUSH1 0xE2 SHL DUP2 MSTORE PUSH1 0x4 ADD PUSH1 0x40 MLOAD DUP1 SWAP2 SUB SWAP1 REVERT JUMPDEST CALLER PUSH1 0x0 SWAP1 DUP2 MSTORE PUSH1 0x5 PUSH1 0x20 SWAP1 DUP2 MSTORE PUSH1 0x40 DUP1 DUP4 KECCAK256 PUSH4 0xFFFFFFFF DUP8 AND DUP5 MSTORE SWAP1 SWAP2 MSTORE SWAP1 KECCAK256 DUP3 SWAP1 PUSH2 0x601 DUP3 DUP3 PUSH2 0x13FF JUMP JUMPDEST SWAP1 POP POP PUSH2 0x60D DUP4 PUSH2 0x1088 JUMP JUMPDEST PUSH32 0xB426363A4B10243595274732519E5A718E5FD0CFBFC6D4ADAC581CFF27B3C2D7 DUP4 CALLER DUP5 PUSH1 0x40 MLOAD PUSH2 0x640 SWAP4 SWAP3 SWAP2 SWAP1 PUSH2 0x1435 JUMP JUMPDEST PUSH1 0x40 MLOAD DUP1 SWAP2 SUB SWAP1 LOG1 POP POP POP JUMP JUMPDEST PUSH2 0x656 DUP2 PUSH2 0x1123 JUMP JUMPDEST CALLER PUSH1 0x0 DUP2 DUP2 MSTORE PUSH1 0x5 PUSH1 0x20 SWAP1 DUP2 MSTORE PUSH1 0x40 DUP1 DUP4 KECCAK256 PUSH4 0xFFFFFFFF DUP7 AND DUP1 DUP6 MSTORE SWAP1 DUP4 MSTORE DUP2 DUP5 KECCAK256 DUP5 DUP2 SSTORE PUSH1 0x1 DUP2 ADD SWAP5 SWAP1 SWAP5 SSTORE PUSH1 0x2 SWAP1 SWAP4 ADD DUP1 SLOAD PUSH1 0xFF NOT AND SWAP1 SSTORE DUP1 MLOAD SWAP3 DUP4 MSTORE SWAP1 DUP3 ADD SWAP3 SWAP1 SWAP3 MSTORE PUSH32 0x9C33CB453D76063BB338C509094BD32900FE4A7E3CCBB52EF947618994A4A6C3 SWAP2 ADD PUSH1 0x40 MLOAD DUP1 SWAP2 SUB SWAP1 LOG1 POP JUMP JUMPDEST CALLER PUSH1 0x0 SWAP1 DUP2 MSTORE PUSH1 0x4 PUSH1 0x20 SWAP1 DUP2 MSTORE PUSH1 0x40 DUP1 DUP4 KECCAK256 PUSH4 0xFFFFFFFF DUP7 AND DUP5 MSTORE SWAP1 SWAP2 MSTORE DUP2 KECCAK256 SLOAD DUP4 SWAP1 PUSH1 0xFF AND PUSH2 0x70D JUMPI PUSH1 0x40 MLOAD PUSH4 0x7C748E29 PUSH1 0xE0 SHL DUP2 MSTORE PUSH1 0x4 ADD PUSH1 0x40 MLOAD DUP1 SWAP2 SUB SWAP1 REVERT JUMPDEST PUSH2 0x718 CALLER DUP6 DUP6 PUSH2 0xDD4 JUMP JUMPDEST PUSH2 0x735 JUMPI PUSH1 0x40 MLOAD PUSH4 0x163C8AD PUSH1 0xE7 SHL DUP2 MSTORE PUSH1 0x4 ADD PUSH1 0x40 MLOAD DUP1 SWAP2 SUB SWAP1 REVERT JUMPDEST CALLER PUSH1 0x0 DUP2 DUP2 MSTORE PUSH1 0x20 DUP2 DUP2 MSTORE PUSH1 0x40 DUP1 DUP4 KECCAK256 PUSH4 0xFFFFFFFF DUP1 DUP11 AND DUP1 DUP7 MSTORE SWAP2 DUP5 MSTORE DUP3 DUP6 KECCAK256 SWAP6 DUP6 MSTORE PUSH1 0x2 DUP5 MSTORE DUP3 DUP6 KECCAK256 SWAP2 DUP6 MSTORE SWAP1 DUP4 MSTORE DUP2 DUP5 KECCAK256 DUP9 DUP3 AND DUP6 MSTORE SWAP1 SWAP3 MSTORE DUP3 KECCAK256 SLOAD DUP4 SLOAD SWAP2 AND SWAP2 SWAP1 PUSH2 0x786 SWAP1 PUSH1 0x1 SWAP1 PUSH2 0x13C8 JUMP JUMPDEST SWAP1 POP DUP2 PUSH4 0xFFFFFFFF AND DUP2 EQ PUSH2 0x84C JUMPI PUSH1 0x0 DUP4 DUP3 DUP2 SLOAD DUP2 LT PUSH2 0x7A9 JUMPI PUSH2 0x7A9 PUSH2 0x1487 JUMP JUMPDEST PUSH1 0x0 SWAP2 DUP3 MSTORE PUSH1 0x20 DUP1 DUP4 KECCAK256 PUSH1 0x8 DUP4 DIV ADD SLOAD CALLER DUP5 MSTORE PUSH1 0x2 DUP3 MSTORE PUSH1 0x40 DUP1 DUP6 KECCAK256 PUSH4 0xFFFFFFFF DUP15 DUP2 AND DUP8 MSTORE SWAP1 DUP5 MSTORE DUP2 DUP7 KECCAK256 PUSH1 0x7 SWAP1 SWAP6 AND PUSH1 0x4 MUL PUSH2 0x100 EXP SWAP1 SWAP3 DIV DUP3 AND DUP1 DUP7 MSTORE SWAP4 SWAP1 SWAP3 MSTORE SWAP3 KECCAK256 DUP1 SLOAD PUSH4 0xFFFFFFFF NOT AND SWAP3 DUP7 AND SWAP3 DUP4 OR SWAP1 SSTORE DUP6 SLOAD SWAP1 SWAP3 POP DUP3 SWAP2 DUP7 SWAP2 DUP2 LT PUSH2 0x817 JUMPI PUSH2 0x817 PUSH2 0x1487 JUMP JUMPDEST SWAP1 PUSH1 0x0 MSTORE PUSH1 0x20 PUSH1 0x0 KECCAK256 SWAP1 PUSH1 0x8 SWAP2 DUP3 DUP3 DIV ADD SWAP2 SWAP1 MOD PUSH1 0x4 MUL PUSH2 0x100 EXP DUP2 SLOAD DUP2 PUSH4 0xFFFFFFFF MUL NOT AND SWAP1 DUP4 PUSH4 0xFFFFFFFF AND MUL OR SWAP1 SSTORE POP POP JUMPDEST DUP3 DUP1 SLOAD DUP1 PUSH2 0x85C JUMPI PUSH2 0x85C PUSH2 0x149D JUMP JUMPDEST PUSH1 0x0 DUP3 DUP2 MSTORE PUSH1 0x20 DUP1 DUP3 KECCAK256 PUSH1 0x8 PUSH1 0x0 NOT SWAP5 SWAP1 SWAP5 ADD SWAP4 DUP5 DIV ADD DUP1 SLOAD PUSH4 0xFFFFFFFF PUSH1 0x4 PUSH1 0x7 DUP8 AND MUL PUSH2 0x100 EXP DUP2 MUL NOT SWAP1 SWAP2 AND SWAP1 SWAP2 SSTORE SWAP3 SWAP1 SWAP4 SSTORE CALLER DUP1 DUP3 MSTORE PUSH1 0x2 DUP5 MSTORE PUSH1 0x40 DUP1 DUP4 KECCAK256 DUP13 DUP6 AND DUP1 DUP6 MSTORE SWAP1 DUP7 MSTORE DUP2 DUP5 KECCAK256 SWAP5 DUP13 AND DUP1 DUP6 MSTORE SWAP5 DUP7 MSTORE SWAP3 DUP2 SWAP1 KECCAK256 DUP1 SLOAD PUSH4 0xFFFFFFFF NOT AND SWAP1 SSTORE MLOAD SWAP3 DUP4 MSTORE SWAP1 SWAP3 SWAP1 SWAP2 PUSH32 0xC29FE8F04EAA995E540803E6ABBD839F149E3B6B8DC9D66F7B411E6AD92F1EBF SWAP2 ADD JUMPDEST PUSH1 0x40 MLOAD DUP1 SWAP2 SUB SWAP1 LOG3 POP PUSH1 0x1 SWAP7 SWAP6 POP POP POP POP POP POP JUMP JUMPDEST PUSH1 0x1 PUSH1 0x1 PUSH1 0xA0 SHL SUB DUP3 AND PUSH1 0x0 SWAP1 DUP2 MSTORE PUSH1 0x1 PUSH1 0x20 SWAP1 DUP2 MSTORE PUSH1 0x40 DUP1 DUP4 KECCAK256 PUSH4 0xFFFFFFFF DUP6 AND DUP5 MSTORE DUP3 MSTORE SWAP2 DUP3 SWAP1 KECCAK256 DUP1 SLOAD DUP4 MLOAD DUP2 DUP5 MUL DUP2 ADD DUP5 ADD SWAP1 SWAP5 MSTORE DUP1 DUP5 MSTORE PUSH1 0x60 SWAP4 SWAP3 DUP4 ADD DUP3 DUP3 DUP1 ISZERO PUSH2 0x99E JUMPI PUSH1 0x20 MUL DUP3 ADD SWAP2 SWAP1 PUSH1 0x0 MSTORE PUSH1 0x20 PUSH1 0x0 KECCAK256 SWAP1 PUSH1 0x0 SWAP1 JUMPDEST DUP3 DUP3 SWAP1 SLOAD SWAP1 PUSH2 0x100 EXP SWAP1 DIV PUSH4 0xFFFFFFFF AND PUSH4 0xFFFFFFFF AND DUP2 MSTORE PUSH1 0x20 ADD SWAP1 PUSH1 0x4 ADD SWAP1 PUSH1 0x20 DUP3 PUSH1 0x3 ADD DIV SWAP3 DUP4 ADD SWAP3 PUSH1 0x1 SUB DUP3 MUL SWAP2 POP DUP1 DUP5 GT PUSH2 0x961 JUMPI SWAP1 POP JUMPDEST POP POP POP POP POP SWAP1 POP JUMPDEST SWAP3 SWAP2 POP POP JUMP JUMPDEST PUSH2 0x9D2 PUSH1 0x40 MLOAD DUP1 PUSH1 0x60 ADD PUSH1 0x40 MSTORE DUP1 PUSH1 0x0 DUP2 MSTORE PUSH1 0x20 ADD PUSH1 0x0 DUP2 MSTORE PUSH1 0x20 ADD PUSH1 0x0 ISZERO ISZERO DUP2 MSTORE POP SWAP1 JUMP JUMPDEST POP PUSH1 0x1 PUSH1 0x1 PUSH1 0xA0 SHL SUB DUP3 AND PUSH1 0x0 SWAP1 DUP2 MSTORE PUSH1 0x5 PUSH1 0x20 SWAP1 DUP2 MSTORE PUSH1 0x40 DUP1 DUP4 KECCAK256 PUSH4 0xFFFFFFFF DUP6 AND DUP5 MSTORE DUP3 MSTORE SWAP2 DUP3 SWAP1 KECCAK256 DUP3 MLOAD PUSH1 0x60 DUP2 ADD DUP5 MSTORE DUP2 SLOAD DUP2 MSTORE PUSH1 0x1 DUP3 ADD SLOAD SWAP3 DUP2 ADD SWAP3 SWAP1 SWAP3 MSTORE PUSH1 0x2 ADD SLOAD PUSH1 0xFF AND ISZERO ISZERO SWAP2 DUP2 ADD SWAP2 SWAP1 SWAP2 MSTORE SWAP3 SWAP2 POP POP JUMP JUMPDEST PUSH1 0x1 PUSH1 0x1 PUSH1 0xA0 SHL SUB DUP4 AND PUSH1 0x0 DUP2 DUP2 MSTORE PUSH1 0x3 PUSH1 0x20 SWAP1 DUP2 MSTORE PUSH1 0x40 DUP1 DUP4 KECCAK256 PUSH4 0xFFFFFFFF DUP1 DUP9 AND DUP1 DUP7 MSTORE SWAP2 DUP5 MSTORE DUP3 DUP6 KECCAK256 DUP8 DUP3 AND DUP7 MSTORE DUP5 MSTORE DUP3 DUP6 KECCAK256 SLOAD SWAP6 DUP6 MSTORE PUSH1 0x1 DUP5 MSTORE DUP3 DUP6 KECCAK256 SWAP2 DUP6 MSTORE SWAP3 MSTORE DUP3 KECCAK256 SLOAD SWAP2 SWAP3 AND SWAP1 ISZERO DUP1 PUSH2 0xAAD JUMPI POP PUSH1 0x1 PUSH1 0x1 PUSH1 0xA0 SHL SUB DUP6 AND PUSH1 0x0 SWAP1 DUP2 MSTORE PUSH1 0x1 PUSH1 0x20 SWAP1 DUP2 MSTORE PUSH1 0x40 DUP1 DUP4 KECCAK256 PUSH4 0xFFFFFFFF DUP9 AND DUP5 MSTORE SWAP1 SWAP2 MSTORE SWAP1 KECCAK256 SLOAD DUP2 LT ISZERO JUMPDEST ISZERO PUSH2 0xABC JUMPI PUSH1 0x0 SWAP2 POP POP PUSH2 0xB25 JUMP JUMPDEST PUSH1 0x1 PUSH1 0x1 PUSH1 0xA0 SHL SUB DUP6 AND PUSH1 0x0 SWAP1 DUP2 MSTORE PUSH1 0x1 PUSH1 0x20 SWAP1 DUP2 MSTORE PUSH1 0x40 DUP1 DUP4 KECCAK256 PUSH4 0xFFFFFFFF DUP9 DUP2 AND DUP6 MSTORE SWAP3 MSTORE SWAP1 SWAP2 KECCAK256 DUP1 SLOAD SWAP2 DUP6 AND SWAP2 DUP4 SWAP1 DUP2 LT PUSH2 0xAFC JUMPI PUSH2 0xAFC PUSH2 0x1487 JUMP JUMPDEST PUSH1 0x0 SWAP2 DUP3 MSTORE PUSH1 0x20 SWAP1 SWAP2 KECCAK256 PUSH1 0x8 DUP3 DIV ADD SLOAD PUSH1 0x7 SWAP1 SWAP2 AND PUSH1 0x4 MUL PUSH2 0x100 EXP SWAP1 DIV PUSH4 0xFFFFFFFF AND EQ SWAP2 POP POP JUMPDEST SWAP4 SWAP3 POP POP POP JUMP JUMPDEST PUSH1 0x1 PUSH1 0x1 PUSH1 0xA0 SHL SUB DUP3 AND PUSH1 0x0 SWAP1 DUP2 MSTORE PUSH1 0x5 PUSH1 0x20 SWAP1 DUP2 MSTORE PUSH1 0x40 DUP1 DUP4 KECCAK256 PUSH4 0xFFFFFFFF DUP6 AND DUP5 MSTORE DUP3 MSTORE DUP1 DUP4 KECCAK256 DUP2 MLOAD PUSH1 0x60 DUP2 ADD DUP4 MSTORE DUP2 SLOAD DUP1 DUP3 MSTORE PUSH1 0x1 DUP4 ADD SLOAD SWAP5 DUP3 ADD SWAP5 SWAP1 SWAP5 MSTORE PUSH1 0x2 SWAP1 SWAP2 ADD SLOAD PUSH1 0xFF AND ISZERO ISZERO SWAP2 DUP2 ADD SWAP2 SWAP1 SWAP2 MSTORE SWAP1 DUP3 SUB PUSH2 0xB91 JUMPI PUSH1 0x0 SWAP2 POP POP PUSH2 0x9A6 JUMP JUMPDEST DUP1 MLOAD TIMESTAMP LT PUSH2 0xBA3 JUMPI PUSH1 0x1 SWAP2 POP POP PUSH2 0x9A6 JUMP JUMPDEST PUSH1 0x0 SWAP2 POP POP PUSH2 0x9A6 JUMP JUMPDEST CALLER PUSH1 0x0 SWAP1 DUP2 MSTORE PUSH1 0x4 PUSH1 0x20 SWAP1 DUP2 MSTORE PUSH1 0x40 DUP1 DUP4 KECCAK256 PUSH4 0xFFFFFFFF DUP7 AND DUP5 MSTORE SWAP1 SWAP2 MSTORE DUP2 KECCAK256 SLOAD DUP4 SWAP1 PUSH1 0xFF AND PUSH2 0xBF0 JUMPI PUSH1 0x40 MLOAD PUSH4 0x7C748E29 PUSH1 0xE0 SHL DUP2 MSTORE PUSH1 0x4 ADD PUSH1 0x40 MLOAD DUP1 SWAP2 SUB SWAP1 REVERT JUMPDEST PUSH2 0xBFB CALLER DUP6 DUP6 PUSH2 0xA2B JUMP JUMPDEST PUSH2 0xC17 JUMPI PUSH1 0x40 MLOAD PUSH3 0xEDE60B PUSH1 0xE7 SHL DUP2 MSTORE PUSH1 0x4 ADD PUSH1 0x40 MLOAD DUP1 SWAP2 SUB SWAP1 REVERT JUMPDEST CALLER PUSH1 0x0 DUP2 DUP2 MSTORE PUSH1 0x1 PUSH1 0x20 DUP2 DUP2 MSTORE PUSH1 0x40 DUP1 DUP5 KECCAK256 PUSH4 0xFFFFFFFF DUP1 DUP12 AND DUP1 DUP8 MSTORE SWAP2 DUP5 MSTORE DUP3 DUP7 KECCAK256 SWAP7 DUP7 MSTORE PUSH1 0x3 DUP5 MSTORE DUP3 DUP7 KECCAK256 SWAP2 DUP7 MSTORE SWAP1 DUP4 MSTORE DUP2 DUP6 KECCAK256 DUP10 DUP3 AND DUP7 MSTORE SWAP1 SWAP3 MSTORE DUP4 KECCAK256 SLOAD DUP5 SLOAD SWAP2 AND SWAP3 SWAP2 PUSH2 0xC67 SWAP2 PUSH2 0x13C8 JUMP JUMPDEST SWAP1 POP DUP2 PUSH4 0xFFFFFFFF AND DUP2 EQ PUSH2 0xD2D JUMPI PUSH1 0x0 DUP4 DUP3 DUP2 SLOAD DUP2 LT PUSH2 0xC8A JUMPI PUSH2 0xC8A PUSH2 0x1487 JUMP JUMPDEST PUSH1 0x0 SWAP2 DUP3 MSTORE PUSH1 0x20 DUP1 DUP4 KECCAK256 PUSH1 0x8 DUP4 DIV ADD SLOAD CALLER DUP5 MSTORE PUSH1 0x3 DUP3 MSTORE PUSH1 0x40 DUP1 DUP6 KECCAK256 PUSH4 0xFFFFFFFF DUP15 DUP2 AND DUP8 MSTORE SWAP1 DUP5 MSTORE DUP2 DUP7 KECCAK256 PUSH1 0x7 SWAP1 SWAP6 AND PUSH1 0x4 MUL PUSH2 0x100 EXP SWAP1 SWAP3 DIV DUP3 AND DUP1 DUP7 MSTORE SWAP4 SWAP1 SWAP3 MSTORE SWAP3 KECCAK256 DUP1 SLOAD PUSH4 0xFFFFFFFF NOT AND SWAP3 DUP7 AND SWAP3 DUP4 OR SWAP1 SSTORE DUP6 SLOAD SWAP1 SWAP3 POP DUP3 SWAP2 DUP7 SWAP2 DUP2 LT PUSH2 0xCF8 JUMPI PUSH2 0xCF8 PUSH2 0x1487 JUMP JUMPDEST SWAP1 PUSH1 0x0 MSTORE PUSH1 0x20 PUSH1 0x0 KECCAK256 SWAP1 PUSH1 0x8 SWAP2 DUP3 DUP3 DIV ADD SWAP2 SWAP1 MOD PUSH1 0x4 MUL PUSH2 0x100 EXP DUP2 SLOAD DUP2 PUSH4 0xFFFFFFFF MUL NOT AND SWAP1 DUP4 PUSH4 0xFFFFFFFF AND MUL OR SWAP1 SSTORE POP POP JUMPDEST DUP3 DUP1 SLOAD DUP1 PUSH2 0xD3D JUMPI PUSH2 0xD3D PUSH2 0x149D JUMP JUMPDEST PUSH1 0x0 DUP3 DUP2 MSTORE PUSH1 0x20 DUP1 DUP3 KECCAK256 PUSH1 0x8 PUSH1 0x0 NOT SWAP5 SWAP1 SWAP5 ADD SWAP4 DUP5 DIV ADD DUP1 SLOAD PUSH4 0xFFFFFFFF PUSH1 0x4 PUSH1 0x7 DUP8 AND MUL PUSH2 0x100 EXP DUP2 MUL NOT SWAP1 SWAP2 AND SWAP1 SWAP2 SSTORE SWAP3 SWAP1 SWAP4 SSTORE CALLER DUP1 DUP3 MSTORE PUSH1 0x3 DUP5 MSTORE PUSH1 0x40 DUP1 DUP4 KECCAK256 DUP13 DUP6 AND DUP1 DUP6 MSTORE SWAP1 DUP7 MSTORE DUP2 DUP5 KECCAK256 SWAP5 DUP13 AND DUP1 DUP6 MSTORE SWAP5 DUP7 MSTORE SWAP3 DUP2 SWAP1 KECCAK256 DUP1 SLOAD PUSH4 0xFFFFFFFF NOT AND SWAP1 SSTORE MLOAD SWAP3 DUP4 MSTORE SWAP1 SWAP3 SWAP1 SWAP2 PUSH32 0x2BE6CC3208D4434B357C0FDD8AE07D6E1F69605413B29B13D68BBD943A225DEA SWAP2 ADD PUSH2 0x8EF JUMP JUMPDEST PUSH1 0x1 PUSH1 0x1 PUSH1 0xA0 SHL SUB DUP4 AND PUSH1 0x0 DUP2 DUP2 MSTORE PUSH1 0x2 PUSH1 0x20 SWAP1 DUP2 MSTORE PUSH1 0x40 DUP1 DUP4 KECCAK256 PUSH4 0xFFFFFFFF DUP1 DUP9 AND DUP1 DUP7 MSTORE SWAP2 DUP5 MSTORE DUP3 DUP6 KECCAK256 DUP8 DUP3 AND DUP7 MSTORE DUP5 MSTORE DUP3 DUP6 KECCAK256 SLOAD SWAP6 DUP6 MSTORE DUP5 DUP5 MSTORE DUP3 DUP6 KECCAK256 SWAP2 DUP6 MSTORE SWAP3 MSTORE DUP3 KECCAK256 SLOAD SWAP2 SWAP3 AND SWAP1 ISZERO DUP1 PUSH2 0xE53 JUMPI POP PUSH1 0x1 PUSH1 0x1 PUSH1 0xA0 SHL SUB DUP6 AND PUSH1 0x0 SWAP1 DUP2 MSTORE PUSH1 0x20 DUP2 DUP2 MSTORE PUSH1 0x40 DUP1 DUP4 KECCAK256 PUSH4 0xFFFFFFFF DUP9 AND DUP5 MSTORE SWAP1 SWAP2 MSTORE SWAP1 KECCAK256 SLOAD DUP2 LT ISZERO JUMPDEST ISZERO PUSH2 0xE62 JUMPI PUSH1 0x0 SWAP2 POP POP PUSH2 0xB25 JUMP JUMPDEST PUSH1 0x1 PUSH1 0x1 PUSH1 0xA0 SHL SUB DUP6 AND PUSH1 0x0 SWAP1 DUP2 MSTORE PUSH1 0x20 DUP2 DUP2 MSTORE PUSH1 0x40 DUP1 DUP4 KECCAK256 PUSH4 0xFFFFFFFF DUP9 DUP2 AND DUP6 MSTORE SWAP3 MSTORE SWAP1 SWAP2 KECCAK256 DUP1 SLOAD SWAP2 DUP6 AND SWAP2 DUP4 SWAP1 DUP2 LT PUSH2 0xAFC JUMPI PUSH2 0xAFC PUSH2 0x1487 JUMP JUMPDEST CALLER PUSH1 0x0 SWAP1 DUP2 MSTORE PUSH1 0x4 PUSH1 0x20 SWAP1 DUP2 MSTORE PUSH1 0x40 DUP1 DUP4 KECCAK256 PUSH4 0xFFFFFFFF DUP7 AND DUP5 MSTORE SWAP1 SWAP2 MSTORE DUP2 KECCAK256 SLOAD DUP4 SWAP1 PUSH1 0xFF AND PUSH2 0xEE3 JUMPI PUSH1 0x40 MLOAD PUSH4 0x7C748E29 PUSH1 0xE0 SHL DUP2 MSTORE PUSH1 0x4 ADD PUSH1 0x40 MLOAD DUP1 SWAP2 SUB SWAP1 REVERT JUMPDEST DUP3 DUP1 PUSH4 0xFFFFFFFF AND PUSH1 0x0 SUB PUSH2 0xF0B JUMPI PUSH1 0x40 MLOAD PUSH4 0x7AE9080F PUSH1 0xE1 SHL DUP2 MSTORE PUSH1 0x4 ADD PUSH1 0x40 MLOAD DUP1 SWAP2 SUB SWAP1 REVERT JUMPDEST PUSH2 0xF16 CALLER DUP7 DUP7 PUSH2 0xDD4 JUMP JUMPDEST ISZERO PUSH2 0xF34 JUMPI PUSH1 0x40 MLOAD PUSH4 0x662978B PUSH1 0xE5 SHL DUP2 MSTORE PUSH1 0x4 ADD PUSH1 0x40 MLOAD DUP1 SWAP2 SUB SWAP1 REVERT JUMPDEST CALLER PUSH1 0x0 SWAP1 DUP2 MSTORE PUSH1 0x20 DUP2 DUP2 MSTORE PUSH1 0x40 DUP1 DUP4 KECCAK256 PUSH4 0xFFFFFFFF DUP10 DUP2 AND DUP1 DUP7 MSTORE SWAP2 DUP5 MSTORE SWAP2 DUP5 KECCAK256 DUP1 SLOAD PUSH1 0x1 DUP1 DUP3 ADD DUP4 SSTORE DUP3 DUP8 MSTORE SWAP5 DUP7 KECCAK256 PUSH1 0x8 DUP3 DIV ADD DUP1 SLOAD PUSH1 0x7 SWAP1 SWAP3 AND PUSH1 0x4 MUL PUSH2 0x100 EXP DUP1 DUP7 MUL NOT SWAP1 SWAP3 AND SWAP5 DUP12 AND SWAP2 SWAP1 SWAP2 MUL SWAP4 SWAP1 SWAP4 OR SWAP1 SWAP3 SSTORE SWAP1 SWAP3 MSTORE SWAP1 SLOAD PUSH2 0xF9B SWAP2 SWAP1 PUSH2 0x13C8 JUMP JUMPDEST CALLER PUSH1 0x0 DUP2 DUP2 MSTORE PUSH1 0x2 PUSH1 0x20 SWAP1 DUP2 MSTORE PUSH1 0x40 DUP1 DUP4 KECCAK256 PUSH4 0xFFFFFFFF DUP12 DUP2 AND DUP1 DUP7 MSTORE SWAP2 DUP5 MSTORE DUP3 DUP6 KECCAK256 DUP12 DUP3 AND DUP1 DUP8 MSTORE SWAP1 DUP6 MSTORE SWAP5 DUP4 SWAP1 KECCAK256 DUP1 SLOAD PUSH4 0xFFFFFFFF NOT AND SWAP8 SWAP1 SWAP2 AND SWAP7 SWAP1 SWAP7 OR SWAP1 SWAP6 SSTORE MLOAD SWAP2 DUP3 MSTORE PUSH32 0xE4FED7933C124D57C605C2C0C04BF0518034D885E739653E3CC6667526D65D16 SWAP2 ADD PUSH2 0x465 JUMP JUMPDEST PUSH1 0x1 PUSH1 0x1 PUSH1 0xA0 SHL SUB DUP3 AND PUSH1 0x0 SWAP1 DUP2 MSTORE PUSH1 0x20 DUP2 DUP2 MSTORE PUSH1 0x40 DUP1 DUP4 KECCAK256 PUSH4 0xFFFFFFFF DUP6 AND DUP5 MSTORE DUP3 MSTORE SWAP2 DUP3 SWAP1 KECCAK256 DUP1 SLOAD DUP4 MLOAD DUP2 DUP5 MUL DUP2 ADD DUP5 ADD SWAP1 SWAP5 MSTORE DUP1 DUP5 MSTORE PUSH1 0x60 SWAP4 SWAP3 DUP4 ADD DUP3 DUP3 DUP1 ISZERO PUSH2 0x99E JUMPI PUSH1 0x0 SWAP2 DUP3 MSTORE PUSH1 0x20 SWAP2 DUP3 SWAP1 KECCAK256 DUP1 SLOAD PUSH4 0xFFFFFFFF AND DUP5 MSTORE SWAP1 DUP3 MUL DUP4 ADD SWAP3 SWAP1 SWAP2 PUSH1 0x4 SWAP2 ADD DUP1 DUP5 GT PUSH2 0x961 JUMPI POP SWAP5 SWAP9 SWAP8 POP POP POP POP POP POP POP POP JUMP JUMPDEST CALLER PUSH1 0x0 SWAP1 DUP2 MSTORE PUSH1 0x4 PUSH1 0x20 SWAP1 DUP2 MSTORE PUSH1 0x40 DUP1 DUP4 KECCAK256 PUSH4 0xFFFFFFFF DUP6 AND DUP5 MSTORE SWAP1 SWAP2 MSTORE SWAP1 KECCAK256 SLOAD DUP2 SWAP1 PUSH1 0xFF AND ISZERO PUSH2 0x10CC JUMPI PUSH1 0x40 MLOAD PUSH4 0x3D0619F PUSH1 0xE6 SHL DUP2 MSTORE PUSH1 0x4 ADD PUSH1 0x40 MLOAD DUP1 SWAP2 SUB SWAP1 REVERT JUMPDEST DUP2 DUP1 PUSH4 0xFFFFFFFF AND PUSH1 0x0 SUB PUSH2 0x10F4 JUMPI PUSH1 0x40 MLOAD PUSH4 0x7AE9080F PUSH1 0xE1 SHL DUP2 MSTORE PUSH1 0x4 ADD PUSH1 0x40 MLOAD DUP1 SWAP2 SUB SWAP1 REVERT JUMPDEST POP POP CALLER PUSH1 0x0 SWAP1 DUP2 MSTORE PUSH1 0x4 PUSH1 0x20 SWAP1 DUP2 MSTORE PUSH1 0x40 DUP1 DUP4 KECCAK256 PUSH4 0xFFFFFFFF SWAP1 SWAP5 AND DUP4 MSTORE SWAP3 SWAP1 MSTORE KECCAK256 DUP1 SLOAD PUSH1 0xFF NOT AND PUSH1 0x1 OR SWAP1 SSTORE JUMP JUMPDEST CALLER PUSH1 0x0 SWAP1 DUP2 MSTORE PUSH1 0x4 PUSH1 0x20 SWAP1 DUP2 MSTORE PUSH1 0x40 DUP1 DUP4 KECCAK256 PUSH4 0xFFFFFFFF DUP6 AND DUP5 MSTORE SWAP1 SWAP2 MSTORE SWAP1 KECCAK256 SLOAD DUP2 SWAP1 PUSH1 0xFF AND PUSH2 0x1166 JUMPI PUSH1 0x40 MLOAD PUSH4 0x7C748E29 PUSH1 0xE0 SHL DUP2 MSTORE PUSH1 0x4 ADD PUSH1 0x40 MLOAD DUP1 SWAP2 SUB SWAP1 REVERT JUMPDEST CALLER PUSH1 0x0 SWAP1 DUP2 MSTORE PUSH1 0x1 PUSH1 0x20 SWAP1 DUP2 MSTORE PUSH1 0x40 DUP1 DUP4 KECCAK256 PUSH4 0xFFFFFFFF DUP7 AND DUP5 MSTORE SWAP1 SWAP2 MSTORE SWAP1 KECCAK256 SLOAD ISZERO ISZERO DUP1 PUSH2 0x11B1 JUMPI POP CALLER PUSH1 0x0 SWAP1 DUP2 MSTORE PUSH1 0x20 DUP2 DUP2 MSTORE PUSH1 0x40 DUP1 DUP4 KECCAK256 PUSH4 0xFFFFFFFF DUP7 AND DUP5 MSTORE SWAP1 SWAP2 MSTORE SWAP1 KECCAK256 SLOAD ISZERO ISZERO JUMPDEST ISZERO PUSH2 0x11CF JUMPI PUSH1 0x40 MLOAD PUSH4 0x7B285913 PUSH1 0xE0 SHL DUP2 MSTORE PUSH1 0x4 ADD PUSH1 0x40 MLOAD DUP1 SWAP2 SUB SWAP1 REVERT JUMPDEST CALLER PUSH1 0x0 DUP2 DUP2 MSTORE PUSH1 0x4 PUSH1 0x20 SWAP1 DUP2 MSTORE PUSH1 0x40 DUP1 DUP4 KECCAK256 PUSH4 0xFFFFFFFF DUP8 AND DUP1 DUP6 MSTORE SWAP3 MSTORE DUP1 DUP4 KECCAK256 DUP1 SLOAD PUSH1 0xFF NOT AND SWAP1 SSTORE MLOAD SWAP1 SWAP3 SWAP2 PUSH32 0xB0F65A798E2CDDA82F7D8AE7AB05D5C06B04D3F8470E4765FF56AF507889D19C SWAP2 LOG3 POP POP JUMP JUMPDEST PUSH1 0x0 PUSH1 0x20 DUP3 DUP5 SUB SLT ISZERO PUSH2 0x1235 JUMPI PUSH1 0x0 DUP1 REVERT JUMPDEST DUP2 CALLDATALOAD PUSH1 0x1 PUSH1 0x1 PUSH1 0xE0 SHL SUB NOT DUP2 AND DUP2 EQ PUSH2 0xB25 JUMPI PUSH1 0x0 DUP1 REVERT JUMPDEST DUP1 CALLDATALOAD PUSH4 0xFFFFFFFF DUP2 AND DUP2 EQ PUSH2 0x1261 JUMPI PUSH1 0x0 DUP1 REVERT JUMPDEST SWAP2 SWAP1 POP JUMP JUMPDEST PUSH1 0x0 DUP1 PUSH1 0x40 DUP4 DUP6 SUB SLT ISZERO PUSH2 0x1279 JUMPI PUSH1 0x0 DUP1 REVERT JUMPDEST PUSH2 0x1282 DUP4 PUSH2 0x124D JUMP JUMPDEST SWAP2 POP PUSH2 0x1290 PUSH1 0x20 DUP5 ADD PUSH2 0x124D JUMP JUMPDEST SWAP1 POP SWAP3 POP SWAP3 SWAP1 POP JUMP JUMPDEST PUSH1 0x0 PUSH1 0x20 DUP3 DUP5 SUB SLT ISZERO PUSH2 0x12AB JUMPI PUSH1 0x0 DUP1 REVERT JUMPDEST PUSH2 0xB25 DUP3 PUSH2 0x124D JUMP JUMPDEST PUSH1 0x0 DUP1 DUP3 DUP5 SUB PUSH1 0x80 DUP2 SLT ISZERO PUSH2 0x12C8 JUMPI PUSH1 0x0 DUP1 REVERT JUMPDEST PUSH2 0x12D1 DUP5 PUSH2 0x124D JUMP JUMPDEST SWAP3 POP PUSH1 0x60 PUSH1 0x1F NOT DUP3 ADD SLT ISZERO PUSH2 0x12E5 JUMPI PUSH1 0x0 DUP1 REVERT JUMPDEST POP PUSH1 0x20 DUP4 ADD SWAP1 POP SWAP3 POP SWAP3 SWAP1 POP JUMP JUMPDEST DUP1 CALLDATALOAD PUSH1 0x1 PUSH1 0x1 PUSH1 0xA0 SHL SUB DUP2 AND DUP2 EQ PUSH2 0x1261 JUMPI PUSH1 0x0 DUP1 REVERT JUMPDEST PUSH1 0x0 DUP1 PUSH1 0x40 DUP4 DUP6 SUB SLT ISZERO PUSH2 0x131D JUMPI PUSH1 0x0 DUP1 REVERT JUMPDEST PUSH2 0x1282 DUP4 PUSH2 0x12F3 JUMP JUMPDEST PUSH1 0x20 DUP1 DUP3 MSTORE DUP3 MLOAD DUP3 DUP3 ADD DUP2 SWAP1 MSTORE PUSH1 0x0 SWAP2 DUP5 ADD SWAP1 PUSH1 0x40 DUP5 ADD SWAP1 DUP4 JUMPDEST DUP2 DUP2 LT ISZERO PUSH2 0x1364 JUMPI DUP4 MLOAD PUSH4 0xFFFFFFFF AND DUP4 MSTORE PUSH1 0x20 SWAP4 DUP5 ADD SWAP4 SWAP1 SWAP3 ADD SWAP2 PUSH1 0x1 ADD PUSH2 0x1340 JUMP JUMPDEST POP SWAP1 SWAP6 SWAP5 POP POP POP POP POP JUMP JUMPDEST PUSH1 0x0 DUP1 PUSH1 0x0 PUSH1 0x60 DUP5 DUP7 SUB SLT ISZERO PUSH2 0x1384 JUMPI PUSH1 0x0 DUP1 REVERT JUMPDEST PUSH2 0x138D DUP5 PUSH2 0x12F3 JUMP JUMPDEST SWAP3 POP PUSH2 0x139B PUSH1 0x20 DUP6 ADD PUSH2 0x124D JUMP JUMPDEST SWAP2 POP PUSH2 0x13A9 PUSH1 0x40 DUP6 ADD PUSH2 0x124D JUMP JUMPDEST SWAP1 POP SWAP3 POP SWAP3 POP SWAP3 JUMP JUMPDEST PUSH4 0x4E487B71 PUSH1 0xE0 SHL PUSH1 0x0 MSTORE PUSH1 0x11 PUSH1 0x4 MSTORE PUSH1 0x24 PUSH1 0x0 REVERT JUMPDEST DUP2 DUP2 SUB DUP2 DUP2 GT ISZERO PUSH2 0x9A6 JUMPI PUSH2 0x9A6 PUSH2 0x13B2 JUMP JUMPDEST DUP1 DUP3 ADD DUP1 DUP3 GT ISZERO PUSH2 0x9A6 JUMPI PUSH2 0x9A6 PUSH2 0x13B2 JUMP JUMPDEST DUP1 ISZERO ISZERO DUP2 EQ PUSH2 0x13FC JUMPI PUSH1 0x0 DUP1 REVERT JUMPDEST POP JUMP JUMPDEST DUP2 CALLDATALOAD DUP2 SSTORE PUSH1 0x20 DUP3 ADD CALLDATALOAD PUSH1 0x1 DUP3 ADD SSTORE PUSH1 0x2 DUP2 ADD PUSH1 0x40 DUP4 ADD CALLDATALOAD PUSH2 0x141F DUP2 PUSH2 0x13EE JUMP JUMPDEST DUP2 SLOAD SWAP1 ISZERO ISZERO PUSH1 0xFF AND PUSH1 0xFF NOT SWAP2 SWAP1 SWAP2 AND OR SWAP1 SSTORE POP POP JUMP JUMPDEST PUSH4 0xFFFFFFFF DUP5 AND DUP2 MSTORE PUSH1 0x1 PUSH1 0x1 PUSH1 0xA0 SHL SUB DUP4 AND PUSH1 0x20 DUP1 DUP4 ADD SWAP2 SWAP1 SWAP2 MSTORE DUP3 CALLDATALOAD PUSH1 0x40 DUP1 DUP5 ADD SWAP2 SWAP1 SWAP2 MSTORE SWAP1 DUP4 ADD CALLDATALOAD PUSH1 0x60 DUP4 ADD MSTORE PUSH1 0xA0 DUP3 ADD SWAP1 DUP4 ADD CALLDATALOAD PUSH2 0x1476 DUP2 PUSH2 0x13EE JUMP JUMPDEST DUP1 ISZERO ISZERO PUSH1 0x80 DUP5 ADD MSTORE POP SWAP5 SWAP4 POP POP POP POP JUMP JUMPDEST PUSH4 0x4E487B71 PUSH1 0xE0 SHL PUSH1 0x0 MSTORE PUSH1 0x32 PUSH1 0x4 MSTORE PUSH1 0x24 PUSH1 0x0 REVERT JUMPDEST PUSH4 0x4E487B71 PUSH1 0xE0 SHL PUSH1 0x0 MSTORE PUSH1 0x31 PUSH1 0x4 MSTORE PUSH1 0x24 PUSH1 0x0 REVERT INVALID LOG2 PUSH5 0x6970667358 0x22 SLT KECCAK256 0xE2 0x4F BLOBBASEFEE SWAP5 MSTORE 0xE3 0xCA PREVRANDAO 0x4D 0xBD 0xEF 0xB1 COINBASE 0xE9 SWAP13 0xF6 SWAP13 SWAP6 0xAB 0xC2 0xE2 PUSH23 0x710D9BC991DCDBC208E864736F6C634300081C00330000 "
        },
        "methodIdentifiers": {
          "addAutomationToCondition(uint32,uint32)": "023ef5a9",
          "addCondition(uint32,(uint256,uint256,bool))": "10bdddc8",
          "addStrategyToCondition(uint32,uint32)": "e5012fb4",
          "automations(address,uint32)": "384c879d",
          "checkCondition(address,uint32)": "89a78a03",
          "conditionInAutomation(address,uint32,uint32)": "8455c3d0",
          "conditionInStrategy(address,uint32,uint32)": "d8cd9c1b",
          "deleteCondition(uint32)": "1245f298",
          "isConditionActive(address,uint32)": "4fdcabb8",
          "isUpdateable(address,uint32)": "57182cae",
          "removeAutomationFromCondition(uint32,uint32)": "8a4914c2",
          "removeStrategyFromCondition(uint32,uint32)": "14b0af70",
          "strategies(address,uint32)": "eec93dd0",
          "supportsInterface(bytes4)": "01ffc9a7",
          "updateCondition(uint32)": "03d049bb",
          "walletCondition(address,uint32)": "6f2b9aff"
        }
      }
    }
  }
}